:020000040800F2
:10000000E8060020DD010008E5010008E70100081E
:10001000E9010008EB010008ED0100080000000004
:10002000000000000000000000000000EF010008D8
:10003000F101000800000000F3010008F5010008CC
:10004000F7010008F7010008F7010008F7010008B0
:10005000F7010008F7010008F7010008F7010008A0
:10006000F7010008F701000811050008F701000872
:10007000F7010008F7010008F7010008F701000880
:10008000F7010008F7010008F7010008F701000870
:10009000F7010008F7010008F70100083105000822
:1000A000F7010008F7010008F7010008F701000850
:1000B000E9060008F7010008F7010008F701000849
:1000C000F7010008F7010008F7010008F701000830
:1000D000F70100081D070008F7010008F7010008F4
:1000E000F1040008F7010008F7010008F701000813
:1000F000F7010008F7010008F7010008F701000800
:10010000F7010008F7010008F7010008F7010008EF
:10011000F7010008F7010008F7010008F7010008DF
:10012000F7010008F7010008F7010008F7010008CF
:1001300000F002F800F042F80AA090E8000C8244B7
:100140008344AAF10107DA4501D100F037F8AFF294
:10015000090EBAE80F0013F0010F18BFFB1A43F0A5
:10016000010318475C1900007C190000103A24BFF5
:1001700078C878C1FAD8520724BF30C830C144BF0C
:1001800004680C607047000000230024002500264E
:10019000103A28BF78C1FBD8520728BF30C148BFEA
:1001A0000B607047782900F0A580732900F03D812D
:1001B000002070471FB51FBD10B510BD00F06CF9D1
:1001C0001146FFF7F7FF00F0F3FF00F08AF903B4E0
:1001D000FFF7F2FF03BC00F0F5FA00000948804782
:1001E00009480047FEE7FEE7FEE7FEE7FEE7FEE719
:1001F000FEE7FEE7FEE7FEE704480549054A064B31
:10020000704700008906000831010008E80000205E
:10021000E8060020E8020020E80200207047000005
:100220000FB4044910B503AA029800F003F910BCFA
:100230005DF814FB100000202DE9F0410E46044645
:10024000002020622046E168884730B3252805D089
:10025000D4E901219047206A401CF2E7E16820467A
:1002600000278847050018D0A5F14100192802D8B9
:1002700020354FF400673246294620462760FFF7B5
:1002800091FF40B1012804D0F61D26F0070608367C
:10029000D8E7361DD6E72846DAE7206ABDE8F081C0
:1002A00070B50C460546012A05D02878800600D591
:1002B000EA69002302E0012305E05B1C934202D2BD
:1002C000E05C0028F9D1A869E618C01AA861286A7C
:1002D000184428622846AFF3008004E0D5E90121E4
:1002E00014F8010B9047B442F8D32846AFF30080CE
:1002F00070BD000070B504460D4621461068AFF38E
:1003000000802188090502D50F4A7A4402E00E4A8E
:100310007A440E32002104F1240305E000F00F06B8
:100320000009965D5E54491C0028F7D1207800230F
:10033000000704D5702D02D009B1022311322046E6
:10034000BDE8704000F006B88A170000704770479B
:10035000704770472DE9F0470D469946924604468E
:1003600000F124080168880604D5E06921F0100135
:10037000216000E00120A84201DD471B00E00027CA
:10038000A1697A1902EB0900081AA0612078C00659
:1003900002D42046AFF30080002608E0D4E9012112
:1003A0001AF806009047206A401C761C20624E45D1
:1003B000F4DB2078C0060AD52046AFF3008006E0C3
:1003C000D4E9012130209047206A401C2062381E69
:1003D000A7F10107F4DC07E0D4E9012118F80500D2
:1003E0009047206A401C2062281EA5F10105F3DC1D
:1003F0002046AFF300802078000602D50220BDE839
:10040000F0870120FBE710B5436913B1AFF300801B
:1004100001E0FFF745FF012010BD127800F1240133
:100420000A7000224A700122EDE711684FF0FF3296
:10043000E9E70000074B70B50D467B4400F011F86A
:100440000446284600F020F810B14FF0FF3070BD90
:10045000204670BD570D000001694A1C02610878F2
:10046000704700B58FB0CDE90131002105910549F4
:100470007944CDE9031011466846FFF7DDFE0FB061
:1004800000BD0000E5FFFFFF007B00F0800070472B
:1004900000487047840000207546FFF7F9FFAE461C
:1004A00005006946534620F00700854618B020B580
:1004B000FFF7A2FEBDE820404FF000064FF0000716
:1004C0004FF000084FF0000B21F00701AC46ACE8FC
:1004D000C009ACE8C009ACE8C009ACE8C0098D4669
:1004E00070470446AFF300802046FFF770FE00001F
:1004F0000548806800F4006028B90448006840F4AA
:100500000060024908607047002001401404014067
:100510000548806800F0100028B90448006840F0E1
:1005200010000249086070470010014014040140A7
:100530000C4880680B48806800F0800028B90A48A1
:10054000006840F08000084908600648806800F4B0
:10055000007028B90448006840F40070024908603F
:100560007047000000200140140401400148008849
:10057000704700000008006C0149088070470000C7
:100580000008006C0149088070470000FE07006CFD
:10059000024A1080921C118070470000FE07006C18
:1005A00010B500F001F810BD0CB5002001900090CE
:1005B0003348006840F480303149086000BF30485B
:1005C000006800F4003000900198401C01900098F1
:1005D00018B90198B0F5A06FF1D12948006800F46E
:1005E000003010B10120009001E000200090009840
:1005F000012843D12348006840F0100021490860D9
:100600000846006820F0030008600846006840F0D3
:10061000020008601A484068194948600846406866
:1006200048600846406840F480604860084640687A
:1006300020F47C1048600846406840F4E8104860A8
:100640000846006840F08070086000BF0C480068F1
:1006500000F000700028F9D00948406820F003003D
:10066000074948600846406840F00200486000BF03
:100670000348406800F00C000828F9D10CBD0000C8
:10068000001002400020024010B51348006840F0FE
:1006900001001149086008464068104908400E49A9
:1006A0004860084600680E4908400B490860084643
:1006B000006820F4802008600846406820F4FE00AE
:1006C00048604FF41F008860FFF76AFF4FF000603A
:1006D0000449086010BD0000001002400000FFF84F
:1006E000FFFFF6FE08ED00E010B50B48007828B1DA
:1006F00000F086FD00200849087004E000F06EFD5F
:100700000120054908704FF08040008A20F0010068
:100710004FF08041088210BD0D00002010B5104838
:10072000008800F02000D0B100240DE000F072FD40
:100730000C4908550846005D18B10846005D0A28B6
:1007400000D102E0601CC4B2F0E700BF0021601ECF
:10075000044A1154114604A0FFF762FD00BF10BD0A
:10076000003801401E00002046726F6D20436F6DFF
:1007700070757465723A25730A0000000146104ACC
:1007800012684A434FF0E0235A6100229A611A46E8
:10079000126942F001021A6100BF4FF0E0221069B5
:1007A00000F001021AB100F48032002AF5D04FF0B7
:1007B000E022126922F001024FF0E0231A61704733
:1007C00004000020014600BF7047000000B5184833
:1007D000806940F01000164988610846806940F43D
:1007E00080708861134800686FF30F00114908603A
:1007F0000846006843F2333108430E490860072079
:1008000000F0F6FC0C48406820F07F600A49486020
:100810000846406840F04C70486008464068002038
:1008200048600846406840F04C70486000BD0000D9
:1008300000100240001001400020014070B5034646
:100840000846CE1701EB9676C6F38704CE1701EB68
:100850009676B610A1EB8606B606350E1B48806963
:1008600040F00100194EB0614FEAB63050F8240054
:1008700003FA05F63043164E46F824001548006882
:1008800001268E403043134E3060301D0668012033
:10089000884006430F48001D066002F0010040B189
:1008A0000C480830006801268E403043094E083657
:1008B000306002F0020040B106480C3006680120AA
:1008C0008840064303480C30066070BD00100240AB
:1008D000080001400004014010B53748406940F469
:1008E0008070354948610846806940F4B470886179
:1008F0003248006820F00F00304908600846006860
:1009000040F0030008602E48006800F0FF202C49EA
:1009100008600846006840F0BB100860081D0068C9
:10092000284908402649091D0860084600682649EC
:1009300008432349091D08602448006820F07040DE
:10094000224908600846006840F0304008604FF0D7
:10095000BB30091D08601E48006820F00F001C49CC
:1009600008600846006840F00B00086008464068D0
:1009700020F4702048600846406840F43020486009
:1009800000204FF020418861C8611249086045F29B
:1009900010004FF02041886140F60170C8614FF4AB
:1009A0004070C1F81C010846806940F00100886170
:1009B0003220FFF7E3FE10BD00100240000C0140A2
:1009C0000014014000F0FF00BB0B00BB0018014009
:1009D000002001401C0100A010B52F48806940F4A0
:1009E00088702D4988612D48006820F07F402B4990
:1009F00008602B4840684FF2F0018843284948605E
:100A00002648006840F008402449086008464068CD
:100A100048F280010843214948600846C06840F414
:100A20002C60C8601E48006820F470201C490860D3
:100A30000846006840F4002008600846C06840F09E
:100A40001000C860022206210846FFF7F7FE0222C6
:100A500007210620FFF7F2FE022209210620FFF7F8
:100A6000EDFE17220121032000F0C8FA02220B211B
:100A70000620FFF7E3FE28220121032000F0BEFA42
:100A8000022204211046FFF7D9FE0A220121032089
:100A900000F0B4FA10BD0000001002400020014038
:100AA000001001401CB50446084804800120CDE92F
:100AB000004007484088401E83B205480088401E19
:100AC00081B20022104600F005F81CBD0A0000208B
:100AD000140000202DE9F0410446DDE90657012FFE
:100AE00048D14FF02A0CDFF83882A8F800C04FEA4E
:100AF000242C08F10208A8F800C0C446ACF8004055
:100B00004FEA212CA8F800C0C446ACF800104FF002
:100B10002B0CDFF80C82A8F800C04FEA222C08F159
:100B20000208A8F800C0C446ACF800204FEA232C05
:100B3000A8F800C0C446ACF800304FF02C0CDFF829
:100B4000E081A8F800C0204611E0164609E0DFF871
:100B5000D0C10CF1020CACF8005006F1010C1FFAE8
:100B60008CF69E42F3DD00F1010C1FFA8CF08842F6
:100B7000EBDDD3E04FF02A0CDFF8A481A8F800C029
:100B80004FEA242C08F10208A8F800C0C446ACF8CB
:100B900000404FEA212CA8F800C0C446ACF8001071
:100BA0004FF02B0CDFF87881A8F800C04FEA222C18
:100BB00008F10208A8F800C0C446ACF800204FEACB
:100BC000222CA8F800C0C446ACF800204FF02C0C32
:100BD000DFF84C81A8F800C0204609E0DFF840C1EA
:100BE0000CF1020CACF8005000F1010C1FFA8CF073
:100BF0008842F3DD4FF02B0CDFF82481A8F800C009
:100C00004FEA232C08F10208A8F800C0C446ACF84B
:100C100000304FEA232CA8F800C0C446ACF80030DE
:100C20004FF02C0CDFF8F880A8F800C0204609E04F
:100C3000DFF8ECC00CF1020CACF8005000F1010C34
:100C40001FFA8CF08842F3DD4FF02B0CDFF8D080D8
:100C5000A8F800C04FEA222C08F10208A8F800C04A
:100C6000C446ACF800204FEA232CA8F800C0C446C4
:100C7000ACF800304FF02A0CDFF8A480A8F800C0D0
:100C80004FEA242C08F10208A8F800C0C446ACF8CA
:100C900000404FEA242CA8F800C0C446ACF800403D
:100CA0004FF02C0CDFF87880A8F800C0104609E05F
:100CB000DFF86CC00CF1020CACF8005000F1010C34
:100CC0001FFA8CF09842F3DD4FF02A0CDFF85080C9
:100CD000A8F800C04FEA212C08F10208A8F800C0CB
:100CE000C446ACF800104FEA212CA8F800C0C44656
:100CF000ACF800104FF02C0CDFF82480A8F800C0EE
:100D0000104609E0DFF818C00CF1020CACF80050F6
:100D100000F1010C1FFA8CF09842F3DDBDE8F08180
:100D2000FE07006C10B5FFF7D7FD0020A3498880AF
:100D3000B020FFF727FC0020FFF71EFCD320FFF7B1
:100D400021FCFFF713FCFFF711FCFFF70FFC9B4999
:100D50008880084680884FF6FF7101EA0020974995
:100D60008880FFF703FC9549898808439349888068
:100D70000846818892A0FFF753FAC020FFF702FCD3
:100D80000A20FFF7F9FB0A20FFF7F6FBC120FFF767
:100D9000F9FB4420FFF7F0FBC520FFF7F3FB002031
:100DA000FFF7EAFB0920FFF7E7FBB120FFF7EAFBBB
:100DB0009020FFF7E1FB1120FFF7DEFBB420FFF7E7
:100DC000E1FB0220FFF7D8FBB720FFF7DBFBC620D3
:100DD000FFF7D2FBB620FFF7D5FB0020FFF7CCFBD7
:100DE0002220FFF7C9FB3B20FFF7C6FBE020FFF7FF
:100DF000C9FB0020FFF7C0FB0420FFF7BDFB062066
:100E0000FFF7BAFB0220FFF7B7FB1120FFF7B4FB97
:100E10000C20FFF7B1FB3F20FFF7AEFBAC20FFF744
:100E2000ABFB4F20FFF7A8FB0920FFF7A5FB0E2027
:100E3000FFF7A2FB0A20FFF79FFB2120FFF79CFB97
:100E40002420FFF799FB0F20FFF796FBE120FFF727
:100E500099FB0020FFF790FB1B20FFF78DFB1E2066
:100E6000FFF78AFB0520FFF787FB1120FFF784FBC4
:100E70000620FFF781FB3020FFF77EFBFF20FFF706
:100E80007BFB4020FFF778FB0320FFF775FB0E206C
:100E9000FFF772FB0D20FFF76FFB3920FFF76CFBAC
:100EA0003B20FFF769FB0F20FFF766FBF220FFF7FF
:100EB00069FB1820FFF760FBA320FFF75DFB122002
:100EC000FFF75AFB0220FFF757FBB220FFF754FB56
:100ED0001220FFF751FBFF20FFF74EFB1020FFF71A
:100EE0004BFB0020FFF748FBF720FFF74BFBA92047
:100EF000FFF742FB9120FFF73FFB2D20FFF73CFB64
:100F00000A20FFF739FB4F20FFF736FBFB20FFF7E6
:100F100039FB2120FFF730FB0420FFF72DFB3620A3
:100F2000FFF730FB0020FFF727FB3A20FFF72AFBF3
:100F30005520FFF721FBF920FFF724FB0020FFF7E6
:100F40001BFB0820FFF718FBF420FFF71BFB00201A
:100F5000FFF712FB0020FFF70FFB0820FFF70CFB49
:100F60009120FFF709FB0420FFF706FB1120FFF794
:100F700009FB7820FFF702FC2920FFF703FB2A205A
:100F80000E4908722B2048722C20C87100208871ED
:100F90004FF4A07008804FF4F0704880082136208C
:100FA000FFF7F6FA0848006840F0010006490860BB
:100FB0004EF6D360FFF776FD10BD00001400002050
:100FC00025780D0A000000000C0C0140084A107042
:100FD000072222EA0000074A11684FF6FF0211407B
:100FE00041EA0021044A1143024A1160704700009F
:100FF0000C0000200CED00E00000FA05F0B50346FF
:10100000134E3678C6F10406F4B2114E37780F2627
:1010100046FA07F503FA04F6F0B201EA0506304392
:101020000607300E0B4EB0545611B60006F1E026FE
:10103000D6F8006102F01F0C012707FA0CF73E43B7
:101040005711BF0007F1E027C7F80061F0BD0000AD
:101050000C00002000E400E010B504460C48C06914
:1010600040F001000A49C861601E890408850846ED
:10107000008840F0100008800846808940F0010098
:1010800088811C2201210220FFF7B8FF10BD00005B
:10109000001002402DE9F14F009800F0F6FA80466A
:1010A00000222C4B00F004FB064632460B46002083
:1010B000294900F065F904460D462046294600F00E
:1010C000B7FA1FFA80FA504600F0DFFA06462246C9
:1010D0002B4600F0EBFB804600F0AAFA1FFA80FBDB
:1010E0000BEB0A101FFA80FA1C48806944F20401D5
:1010F00008431A4988611A48006820F47F6018493B
:1011000008600846006840F0B000086008460068C3
:1011100040F40060086012480830006840F48060C5
:101120000F49083108600F48A0F800A0001D008892
:1011300042F20C0108430B49091D0880084600884B
:1011400040F020000880252203210846FFF756FFC3
:10115000BDE8F88F00003040882A9141001002401D
:10116000040801400838014000214FF0E0221161DD
:10117000C21700EB5272D210044B1A60194609686C
:101180004FF47A725143024A116070470000002008
:101190000400002000BF054A128802F04002002A25
:1011A000F9D0024B1B1D1880704700000038014029
:1011B0000420FFF751FF0220FFF708FF4820FFF748
:1011C000D3FFFFF703FBFFF707FC4FF46140FFF786
:1011D00061FFFFF7A7FD00BFFEE700000348C068FE
:1011E00020F480400149C8607047000000200140A1
:1011F0000249C9680143014AD160704700100140AB
:101200000348C06840F480400149C860704700004E
:101210000020014000BF0548008800F020000028A1
:10122000F9D00248001D0088C0B270470038014064
:1012300010B591EA030F48BF83F0004300F14A83E1
:10124000841A71EB030C05D2121943EB0C03001B3B
:1012500061EB0C01DFF824E14FEA1154A4EB135CBD
:101260001EEA430F18BF9EEA445F73D023EA0E03C1
:10127000DCF1200E21EA045143F4801332D322FA28
:101280000CFE10EB0E0023FA0CFE41EB0E01CCF12C
:10129000200E03FA0EFE10EB0E0051F10001B1F525
:1012A000801FCCF1200E32D201EB045112FA0EF263
:1012B000BDE8104058BF7047401C38BF5FEA42028B
:1012C00018BF7047002814BF20F0010041F1000151
:1012D0004FEA410313F5001F38BF7047A1F1C04129
:1012E00000F0DEBA012A43EB0302ACF1200CDCF182
:1012F0001F0E32BF4FF0000E23FA0CF310EB030069
:1013000041EB0451B4EB115FD0D0A1EB045101F5D6
:10131000801149085FEA300001EB04510ED350F10F
:10132000000038BF12FA0EFE08D1BDE81040C9E730
:10133000401C38BF5FEA4202CAD1C3E7BDE8104093
:101340004FEA410313F5001F38BF7047A1F1C041B8
:1013500000F0A6BA9EEA445F08D011EA5E0FBDE82D
:10136000104004BF01F0004100207047BDE810406C
:1013700070B500F047FA00BF64FBBE3E0000E0FF1E
:101380002DE9C04130B4DFF8A0C23CEA111418BF07
:101390003CEA131400F0EC8081EA03051CEA111406
:1013A00044EAD57418BF1CEA131500F0C780A4EBFB
:1013B00005044FF0004545EAC12145EAC32341EA4F
:1013C000505143EA525304F17F74994204F50034BA
:1013D0004FEAC0204FEAC22208BF904200F09C8032
:1013E0004FEA13650FF24016765D4FEA134506FB90
:1013F00005F7C7F1807706FB07F74FEAD737A7FB5A
:1014000003687642C8F58038A7FB06CE38BFA8F13E
:10141000010807FB08E64FF0000EA6FB028CE6FB76
:1014200003CEDCF1000CCEF1004E38BFAEF1010E60
:10143000A6FB0C584FF000074FF00005E6FB0E87A7
:10144000A1FB08C6A0FB07CE16EB0E0645F1000572
:10145000E1FB076515F1E04E7EBFA4F580345FEA3D
:1014600046066D4116F1800745F100054FEA172742
:101470004FEA066647EA0567A6F1DE46B6F1805FE9
:101480004FEA15251FD9384624F0010C05EBC4712D
:10149000BCF1FE6F01EB0C1102D8F0BCBDE800817D
:1014A00024425CBF01F5801E9EEAC47F02D4F0BCDA
:1014B000BDE80081244238D4F0BCA1F1C041BDE8B0
:1014C000004100F0EDB94FEAD22242EA43524FEA1E
:1014D000D323A7FB02864FEAD02040EA415007FB06
:1014E00003661EEA0E0F4FEAD12105FB026658BFC4
:1014F000A6EB0056B6EB00564FEA520E4EEAC37EFC
:1015000018EB0E0E56EB530EBDD518EB02085E41DC
:101510007F1C55F10005B6E74FF480154FF000072A
:101520004FF000064FF00008ADE7F0BC4FF00000B0
:1015300001F1C04101F00041BDE8008111EA0C1F3A
:101540000CEA131500D00CE013EA0C1F00F0258004
:101550004FF00000F0BC81EA030101F00041BDE85A
:101560000081F0BCBDE8004181EA030100F098B9B8
:10157000F0BCBDE8004170B500F044F9097EFC3EC6
:1015800000F007B881EA03014FF0000001F00041CC
:10159000704781EA030100F083B9F0BCBDE8004167
:1015A0004FF0000021497047FFFDFBF9F7F5F4F219
:1015B000F0EEEDEBE9E8E6E4E3E1E0DEDDDBDAD8EE
:1015C000D7D5D4D3D1D0CFCDCCCBCAC8C7C6C5C44C
:1015D000C2C1C0BFBEBDBCBBBAB9B8B7B6B5B4B363
:1015E000B2B1B0AFAEADACABAAA9A8A8A7A6A5A44E
:1015F000A3A3A2A1A09F9F9E9D9C9C9B9A99999812
:101600009797969595949393929191908F8F8E8EB4
:101610008D8C8C8B8B8A8989888887878685858441
:1016200084838382828181800000FF070000F87F2D
:101630004FEA1153A3F58063D3F11E03A8BFD3F182
:10164000200C08DB4FF0004242EAC12252EA50521D
:1016500032FA03F0704709420BD4102BC4BF0020AC
:10166000704703F5787CBCF1FF3F05D04FF0FF30A9
:1016700070474FF00000704770B500F0C3F800BF2E
:101680004992248000207047F0E7B0FA80F310FA06
:1016900003F10AD0C3F11D0303F580634FEA415003
:1016A0004FEA035202EBD12170474FF00000704720
:1016B000DFF848C170B51CEA111E1EBF1CEA1315E5
:1016C0009EEA0C0F95EA0C0F00F06F8081EA03048C
:1016D00023EA4C134EEAD47E21EA4C1141F48011E6
:1016E00043F48013AE44A1FB024CA0FB0365AEF1B2
:1016F0007F7E361955EB0C05A1FB034C4CF1000322
:10170000A0FB021C16EB0C06654153F100030942D5
:1017100018BF46F0010613F4007F0BD14FEA0331E6
:101720004FEA0530340341EA155140EA16506FF094
:1017300003020AE04FEAC3214FEAC520F40241EA5E
:10174000555140EA56506FF0020202EB2E4201EB77
:10175000025585EACE710AD05FEA440C18BF24F026
:10176000004450F1000041F1000120EAD47040F241
:10177000FE7C624500D270BDA84214BF4FF0804489
:101780004FF04044002E08BF0024BEF1806FA8BF78
:10179000A1F1C041BDE8704080F282804FF00000AE
:1017A00001F1C04101F0004170479EEA0C0F0CEAC4
:1017B000131518BF95EA0C0F06D04FF0000081EA10
:1017C000030E0EF0004170BD00F01CF88900013ED0
:1017D00000F007B800F009B84FEA430C5FEA5C5C20
:1017E00008D081EA030100F05BB84FEA410C5FEAE0
:1017F0005C5CF6D14FF00000014970470000FF0724
:101800000000F87F0EF1020E2EF0030E5EF8046B5E
:10181000364205D4012A43EB030515F5001F12D803
:10182000012841EB010C1CF5001F0CD80ED14FEA2A
:10183000D17C15F5001F0CEB4C0C0CF1020C08BF11
:101840004CEBD37C04E04FF0080C01E04FEAD37C72
:101850000CEB4C0526FA05F606F00706B6F1040C6B
:1018600006D20EEB860CBDE870404CF0010C6047D0
:10187000DFE80CF0090B02024FF000414FF00000CE
:10188000A1F5002170BD19461046012851EB010455
:1018900018BFD4F5001484BF002001F0004170BDD2
:1018A0000808A0F500114FEA3101704791EA030FD3
:1018B00010B581F000413FF5C3AC83F0004300F068
:1018C00009B8000010B591EA030F48BF83F0004348
:1018D0003FF5B6AC841A71EB030C07D212198CF0E9
:1018E000004C43EB0C03001B61EB0C01DFF8A4E19F
:1018F0004FEA1154A4EB135C1EEA430F18BF9EEA93
:10190000445F00F0B08023EA6E03524221EA0451A2
:10191000C3EB6E0338BF5B1EDCF1200E25D322FA29
:101920000CFE10EB0E0043FA0CFE41EB0E01CCF165
:10193000200E03FA0EFE10EB0E0051F10001CCF167
:10194000200E29D412FA0EF201EB0451BDE810402A
:1019500058BF7047401C1CBFB2F1004F70470028B1
:101960000CBF491C20F00100704712EB020E43EB44
:10197000030218BF4FF0010E4EEA4202ACF1200CF8
:10198000DCF11E0E54D943FA0CFE10EB0E0051F19F
:10199000FF31CCF11E0ED5D50EF1010E12FA0EFE5E
:1019A000404141EB010101EB445C5FEA5C5C10D912
:1019B00010EBDE7001EB045138BFBEF1004FBDE803
:1019C000104018BF704700280CBF491C20F00100D0
:1019D000704730D24FEAD42C11F5001124F4006482
:1019E0001BD0B1FA81F20B3AA41AA41ED2F1200343
:1019F000914030FA03F31943904001EBCC71002C75
:101A000001EB0451BDE81040A8BF704701F1C0418F
:101A10004FF0000001F000417047B0FA80F310FA77
:101A200003F100D110BDE41A173C4805C90AE4E7E8
:101A300001EB045110BD491001EB0451BDE8104009
:101A40004FEA300002E04FF0000170474A0008BF43
:101A50000042F8D0B2F5001F28BF704701F00041E6
:101A60004FF0000070479EEA445F07D011EA5E0F16
:101A7000BDE8104004BF002100207047BDE81040C1
:101A800070B5FFF7BFFE00BF40DFF63E83F00041B8
:101A9000104670470000E0FF3031323334353637BE
:101AA00038394142434445464030580030313233A2
:101AB00034353637383961626364656640307800A2
:101AC000E01A000800000020140000006C0100086B
:101AD000F41A000814000020D40600008801000851
:101AE00000000000000000000000FFFF00000000F8
:041AF00000000000F2
:0400000508000131BD
:00000001FF
