:020000040800F2
:1000000060060020B3010008BB010008BD01000824
:10001000BF010008C1010008C30100080000000082
:10002000000000000000000000000000C501000802
:10003000C701000800000000C9010008CB0100084A
:10004000CD010008CD010008CD010008CD01000858
:10005000CD010008CD010008CD010008CD01000848
:10006000CD010008CD010008CD010008CD01000838
:10007000CD010008CD010008CD010008CD01000828
:10008000CD010008CD010008CD010008CD01000818
:10009000CD010008CD010008CD010008CD01000808
:1000A000CD010008CD010008CD010008CD010008F8
:1000B000CD010008CD010008CD010008CD010008E8
:1000C000CD010008CD010008CD010008CD010008D8
:1000D000CD010008CD010008CD010008CD010008C8
:1000E000CD010008CD010008CD010008CD010008B8
:1000F000CD010008CD010008CD010008CD010008A8
:10010000CD010008CD010008CD010008CD01000897
:10011000CD010008CD010008CD010008CD01000887
:10012000CD010008CD010008CD010008CD01000877
:1001300000F002F800F02CF80AA090E8000C8244CD
:100140008344AAF10107DA4501D100F021F8AFF2AA
:10015000090EBAE80F0013F0010F18BFFB1A43F0A5
:1001600001031847080100001801000000230024C3
:1001700000250026103A28BF78C1FBD8520728BFB7
:1001800030C148BF0B6070471FB51FBD10B510BD13
:1001900000F033F81146FFF7F7FF00F064F800F0C5
:1001A00051F803B4FFF7F2FF03BC00F055F800006C
:1001B00070470A4880470A480047FEE7FEE7FEE727
:1001C000FEE7FEE7FEE7FEE7FEE7FEE7FEE70000EC
:1001D00004480549054A064B70470000B101000874
:1001E000310100086000002060060020600200204D
:1001F00060020020704770477047754600F028F88D
:10020000AE4605006946534620F00700854618B003
:1002100020B5FFF7DDFFBDE820404FF000064FF0AE
:1002200000074FF000084FF0000B21F00701AC462B
:10023000ACE8C009ACE8C009ACE8C009ACE8C0094A
:100240008D4670470446AFF300802046FFF7A9FFB4
:10025000004870470000002001491820ABBEFEE7AF
:1002600026000200704700BFFEE700007C02000885
:0C02700000000020600600006C01000887
:0400000508000131BD
:00000001FF
