:020000040800F2
:10000000C80800201D2E0008212E0008232E0008FD
:10001000252E0008272E0008292E000800000000C9
:100020000000000000000000000000002B2E00086F
:100030002D2E0008000000002F2E0008312E000891
:10004000332E0008332E0008332E0008332E00080C
:10005000332E0008332E0008332E0008332E0008FC
:10006000332E0008332E0008332E0008332E0008EC
:10007000332E0008332E0008332E0008332E0008DC
:10008000332E0008332E0008332E0008332E0008CC
:10009000332E0008332E0008332E0008332E0008BC
:1000A000332E0008332E0008332E0008332E0008AC
:1000B000332E00087D550008332E0008332E00082B
:1000C000332E0008332E0008332E0008332E00088C
:1000D000332E0008FF380008332E0008332E0008A6
:1000E000332E0008332E0008332E0008332E00086C
:1000F000332E0008332E0008332E0008332E00085C
:10010000332E0008332E000883570008332E0008D2
:10011000332E0008332E0008EB580008332E000859
:10012000332E0008332E0008332E0008332E00082B
:1001300000F002F800F044F80AA090E8000C8244B5
:100140008344AAF10107DA4501D100F039F8AFF292
:10015000090EBAE80F0013F0010F18BFFB1A43F0A5
:10016000010318475CE503007CE50300103A24BF57
:1001700078C878C1FAD8520724BF30C830C144BF0C
:1001800004680C607047000000230024002500264E
:10019000103A28BF78C1FBD8520728BF30C148BFEA
:1001A0000B607047642905F09387782905F0CC87A8
:1001B000002070471FB506F064F81FBD10B510BDD4
:1001C00006F006F91146FFF7F5FF00F023F806F0F8
:1001D00024F903B4FFF7F2FF03BC03F081FB000036
:1001E0000B49D1F800C04A685CF8043B1068184419
:1001F00042F8040B8C4528BFA1F1DC0C8A4228BFD1
:10020000A1F1DC02C1F800C04A6020F00040704754
:100210005C020020002404F0D6FA092003F015FB4C
:10022000482002F017FE4FF4E131482003F0E5FBCF
:10023000022003F045FA03F00EFD04F0F9F804F093
:10024000A5F905F0B9FB05F00DFCFA201849088066
:1002500018490868804705F059FE05F0D1FC05F003
:1002600015FFFA201249088005F0E0FC0446042C32
:1002700002D110498868804701F062FA16E001F067
:10028000E6FD01F0A9FF01200B490860002004F001
:100290008FFA4FF4FA7002F015FE00200749C1F8FA
:1002A000B801012004F084FA02F03CFAE7E700000C
:1002B0003834014040000020B801244200002442AC
:1002C00010B501EB8103FA4C04EBC31323F81020A3
:1002D00010BD2DE9F04706460F4690469946DDF8D9
:1002E00020A03D460CE0344606E052462946204612
:1002F000FFF7E6FF601C84B24445F6DD681C85B25A
:100300004D45F0DDBDE8F08730B500240EE0002556
:1003100007E04EF6D36221462846FFF7D1FF681C5E
:1003200085B2B5F5A07FF4DB601C84B2B4F5F07F34
:10033000EDDB30BD2DE9FF4F84B081468A460020B9
:10034000029083460698A0EB09050798A0EB0A06E1
:10035000CDF80490CDF800A0002D01DD012705E0C7
:100360000DB9002702E04FF0FF376D42002E02DD8D
:100370004FF0010806E016B94FF0000802E04FF018
:10038000FF387642B54201DD2C4600E034460020BD
:1003900003901EE0009A91B2019A90B2119AFFF771
:1003A0008FFF029828440290B3440298A04205DDD2
:1003B0000298001B0290019838440190A34504DD87
:1003C000ABEB040B0098404400900398401C80B2B3
:1003D0000390611C03988842DCDD08B0BDE8F08F13
:1003E000F8B505460E461746002415E0A6F1100C98
:1003F0001FFA8CF305F10A0CA4441FFA8CF2A6F143
:10040000010C1FFA8CF105EB040C1FFA8CF000971D
:10041000FFF790FF601CC4B20A2CE7DBF8BDF8B50B
:1004200007460D46144604F4FC6000EBC42000EBC4
:10043000D42084B205F1100083B24FF4A072294693
:1004400038460094FFF745FF00260DE005F1100245
:1004500091B206EB860207EB820290B243F2EE52B3
:10046000FFF7BEFF701CC6B2102EEFDBF8BD2DE902
:10047000F04103460C46002533E021462BE01846A8
:100480001CE0834207D101EB8107DFF824C20CEBAB
:10049000C71737F8106001EB8107DFF814C20CEBC7
:1004A000C71C471C3CF8177001EB810CDFF8008279
:1004B00008EBCC1C2CF81070471CB8B2B0F59F7F2D
:1004C000DFDD01EB8107DFF8E8C10CEBC71727F888
:1004D00010604F1CB9B204F11007B942CFDB6F1C9A
:1004E000FDB29542C9DBBDE8F0812DE9F84F054624
:1004F0000F4690461E460097DDF82C90A8F120008C
:1005000000F0FF080A98002850D100244BE00C2E80
:1005100007D108EB4800674901EB800010F804A000
:1005200004E0654800EB081010F804A04FF0000B41
:1005300033E00AF0800018B16048A0F8009003E0B2
:100540005F4800885D4908805C4802883946284633
:10055000FFF7B6FE4FEA4A604FEA106A781C87B28E
:1005600058484088A84204DC5448A0F80090BDE8F0
:10057000F88F0098381AB0420BD1009F681C85B2E2
:1005800050484088A84203DC4C48A0F80090EEE7B1
:1005900006E00BF1010000F0FF0BBBF1080FC8DB18
:1005A00000BF601CC4B2B442B1DB46E0002442E0AC
:1005B0000C2E07D108EB48003E4901EB800010F8F3
:1005C00004A004E03C4800EB081010F804A04FF031
:1005D000000B2AE00AF0800028B13848028839462A
:1005E0002846FFF76DFE4FEA4A604FEA106A781C12
:1005F00087B234488088A84203DC3048A0F80090D5
:10060000B5E70098381AB0420BD1009F681C85B23C
:100610002C484088A84203DC2848A0F80090A6E7B0
:1006200006E00BF1010000F0FF0BBBF1080FD1DB7E
:1006300000BF601CC4B2B442BADB2048A0F80090EE
:1006400000BF94E72DE9FC4F04460D4690469946BD
:10065000DDE90C7A0B9E04F0FF0B08EB04001FFA97
:1006600080F809EB05001FFA80F917E0444502DB2A
:100670005C46A81985B24D4500DB15E00020CDE9A8
:10068000000A3A78334629462046FFF72EFF3046C7
:1006900006EBD07104EB61018CB27F1C38787E28A8
:1006A00002DC38782028E1DA00BFBDE8FC8F0000CA
:1006B0000000006872C40308E6C803083400002084
:1006C00036000020760100202DE9F04180460C46DE
:1006D0004646274600BF2BE0464624E0381B00EB89
:1006E000800006EB8010012101EB4000FE490D5C0B
:1006F0004FF6FF7000EA0525381B00EB800006EB83
:10070000801011F81000284485B205F4FC6000EB5D
:10071000C52000EBD52085B22A4639463046FFF782
:10072000CFFD701C86B2B6F5A07FD7DB781C87B2F0
:1007300004F15000B842CFDCBDE8F0812DE9F04172
:1007400004460D46A0462F4600BF32E0A0462AE0F0
:10075000A8EB0401781B5922504301EB4000012112
:1007600001EB4000E1490E5C4FF6FF7000EA0626FF
:10077000A8EB0401781B504301EB4000DB4911F862
:100780001000304486B206F4FC6000EBC62000EB9B
:10079000D62086B2324639464046FFF791FD08F131
:1007A00001001FFA80F804F1B2004045D0DC781C4B
:1007B00087B205F13000B842C8DCBDE8F0812DE910
:1007C000F74F05460E462F46B0460298002865D1E1
:1007D00000BF5EE02F4654E0781BA8EB060101EB5A
:1007E000810202EBC10100EBC100012101EB4000DD
:1007F000BF490C5C4FF6FF7000EA0424781BA8EB9D
:10080000060101EB810202EBC10100EBC100B84916
:1008100011F81000204484B204F478494FEAE92921
:1008200004F4FC6B4FEA6B1B04F01F0AAAEB0900EF
:10083000072818DDABEB0A000A2820DDABEB090026
:100840000A281CDDAAEB09000A2818DA04F4FC6067
:1008500000EBC42000EBD42084B222464146384647
:10086000FFF72EFD0BE004F4FC6000EBC42000EB6E
:10087000D42084B2224641463846FFF721FD781C39
:1008800087B205F16800B842A6DC08F101001FFA42
:1008900080F806F13A0040459CDC4BE0B04645E06C
:1008A0002F463BE0781BA8EB060101EB810202EB2F
:1008B000C10100EBC100012101EB40008D490C5C3E
:1008C0004FF6FF7000EA0424781BA8EB060101EB49
:1008D000810202EBC10100EBC100864911F8100052
:1008E000204484B204F478494FEAE92904F4FC6B0B
:1008F0004FEA6B1B04F01F0AAAEB090007280BDC68
:1009000004F4FC6000EBC42000EBD42084B2224647
:1009100041463846FFF7D4FC781C87B205F16800E1
:10092000B842BFDC08F101001FFA80F806F13A0076
:100930004045B5DCBDE8FE8F2DE9F74F05460E4674
:100940002F46B046029864287DD066287CD06D285A
:100950004ED0752879D100BF45E02F463BE0781B8B
:10096000A8EB060101EB810202EBC10100EB4100A3
:10097000012101EB400060490C5C4FF6FF7000EA7A
:100980000424781BA8EB060101EB810202EBC101F4
:1009900000EB4100584911F81000204484B204F4DF
:1009A00078494FEAE92904F4FC6B4FEA6B1B04F029
:1009B0001F0AAAEB090007280BDC04F4FC6000EB1B
:1009C000C42000EBD42084B2224641463846FFF7CB
:1009D00077FC781C87B205F11A00B842BFDC08F139
:1009E00001001FFA80F806F112004045B5DCFEE078
:1009F000B04649E02F463FE0781BA8EB060101EB2B
:100A0000810202EBC10100EB4100012101EB40003A
:100A10003A490C5C4FF6FF7000EA0424781BA8EBFF
:100A2000060101EB810202EBC10100EB41003349F9
:100A300011F81000204484B204F478494FEAE929FF
:100A400004F4FC6B02E024E07FE0CFE04FEA6B1B94
:100A500004F01F0AAAEB090007280BDC04F4FC6071
:100A600000EBC42000EBD42084B222464146384635
:100A7000FFF726FC781C87B205F11A00B842BBDCF0
:100A800008F101001FFA80F806F112004045B1DCC0
:100A9000ADE0B04654E02F464AE0781BA8EB0601D3
:100AA00001EB810202EBC10100EB4100012101EBEE
:100AB000400013490C5C4FF6FF7000EA0424781BD9
:100AC000A8EB060101EB810202EBC10100EB410042
:100AD0000B4911F81000204484B204F478494FEA1D
:100AE000E92904F4FC6B0DE04E6F00084E37010855
:100AF0000E7A01082EA901084ED80108F6DB01087C
:100B0000D2DF01084FEA6B1B04F01F0AAAEB0900B1
:100B100007280BDC04F4FC6000EBC42000EBD420BD
:100B200084B2224641463846FFF7CAFB781C87B29A
:100B300005F11A00B842B0DC08F101001FFA80F894
:100B400006F112004045A6DC51E0B04649E02F46D0
:100B50003FE0A8EB0600791BC1F1110101EB810216
:100B600002EBC10100EB4100012101EB4000F7491C
:100B70000C5C4FF6FF7000EA0424A8EB0600791B1A
:100B8000C1F1110101EB810202EBC10100EB410057
:100B9000EE4911F81000204484B204F478494FEA79
:100BA000E92904F4FC6B4FEA6B1B04F01F0AAAEB63
:100BB000090007280BDC04F4FC6000EBC42000EB08
:100BC000D42084B2224641463846FFF779FB781C90
:100BD00087B205F11200B842BBDC08F101001FFA30
:100BE00080F806F11A004045B1DC00E000BF00BF0C
:100BF000BDE8FE8F2DE9F04106460F469046D448E9
:100C0000008810B9D348008830B3D24804881EE069
:100C1000CF48058814E0CF480088201A00EB8001F7
:100C200001EBC000CC4901EB8000C9490988691A71
:100C300030F8112021462846FFF742FB681C85B298
:100C4000C34800881A308542E5DB601C84B2C14885
:100C5000008812308442DBDB3C461BE0354613E063
:100C600004EB8400BD4901EBC01030F81500E11B16
:100C700001EB810202EBC101B74A02EB8101AA1B21
:100C800021F81200681C85B206F11A008542E7DBE4
:100C9000601C84B207F112008442DFDB4246394611
:100CA0003046FFF749FEAA480680AA480780BDE8FB
:100CB000F0812DE9FF5F05460E461446642C4ADCA0
:100CC00005F47847FF1205F4FC694FEA691905F04D
:100CD0001F0B06F478484FEAE82806F4FC6A4FEA4E
:100CE0006A1A06F01F00039007FB04F0642190FBD2
:100CF000F1F1C4F1640000FB08F0642290FBF2F013
:100D0000084483B2029309FB04F0642190FBF1F1E3
:100D1000C4F1640000FB0AF090FBF2F0084483B2D7
:100D200001930BFB04F0642190FBF1F2C4F1640128
:100D300003984143642091FBF0F0104483B2009388
:100D4000009BDAB2019BD9B2029BD8B203F060FBE0
:100D500004B0BDE8F09F4FF47E40F9E770B5064659
:100D60000C46154615B1012D0DD105E02246002196
:100D70003046FFF79EFF70BD22464FF6FF713046AA
:100D8000FFF797FFF7E74FF47E40F4E72DE9F041D6
:100D900006460F46002519E0002413E005EB850107
:100DA0006E4A02EBC11131F814003A463146FFF7A2
:100DB000D5FF05EB8501694A02EBC11121F814004A
:100DC000601C84B2F02CE9DB681C85B2B5F5A07F0D
:100DD000E2DBBDE8F0814200614B1A8070472DE9EB
:100DE000F04F05460E462F46B04600BF45E02F4661
:100DF0003BE0781BA8EB0601C1EBC102C2EB8111FD
:100E000000EB4100012101EB400056490C5C4FF61C
:100E1000FF7000EA0424781BA8EB0601C1EBC102B5
:100E2000C2EB811100EB41004E4911F81000204443
:100E300084B204F478494FEAE92904F4FC6B4FEAE0
:100E40006B1B04F01F0AAAEB090007280BDC04F453
:100E5000FC6000EBC42000EBD42084B22246414663
:100E60003846FFF72DFA781C87B205F17200B842B8
:100E7000BFDC08F101001FFA80F806F1620040456E
:100E8000B5DCBDE8F08F2DE9F04F05460E462F4644
:100E9000B04600BF45E02F463BE0781BA8EB0601BB
:100EA000C1EBC10202EB011100EBC100012101EB1A
:100EB00040002D490C5C4FF6FF7000EA0424781BBB
:100EC000A8EB0601C1EBC10202EB011100EBC1006E
:100ED000254911F81000204484B204F478494FEAFF
:100EE000E92904F4FC6B4FEA6B1B04F01F0AAAEB20
:100EF000090007280BDC04F4FC6000EBC42000EBC5
:100F0000D42084B2224641463846FFF7D9F9781CEE
:100F100087B205F1B800B842BFDC08F101001FFA42
:100F200080F806F132004045B5DCBDE8F08F2DE9D0
:100F3000F04F044694461F4622460B46BCF1000F74
:100F400068D100BF61E0224657E00000F6DB0108EF
:100F5000040000200600002000C0046800000068B3
:100F6000383401407AE30108C23A0208A3EB0109D0
:100F7000C9EBC90A0AEB4919A2EB040AD1444FF0A4
:100F8000010A0AEB4909DFF894A61AF809004FF69E
:100F9000FF7909EA0020A3EB0109C9EBC90A0AEBB2
:100FA0004919A2EB040AD144DFF870A61AF8199087
:100FB00081441FFA89F000F47845ED1200F4FC68D2
:100FC0004FEA681800F01F06A6EB0509B9F1070FF4
:100FD0000FDC43F2B16907FB09F9DFF844A60AEB1D
:100FE0004909C3EBC30A0AEB431A09EB4A0929F87A
:100FF000120002F101091FFA89F204F12709914553
:10100000B4DC03F101091FFA89F301F115099945CF
:1010100099DC5DE001F114091FFA89F356E02246DC
:101020004CE0A3EB0109C9EBC90A0AEB4919A2EB91
:10103000040AD1444FF0010A0AEB4909DFF8DCA5A4
:101040001AF809004FF6FF7909EA0020A3EB01091D
:10105000C9EBC90A0AEB4919A2EB040AD144DFF82B
:10106000BCA51AF8199081441FFA89F000F478455C
:10107000ED1200F4FC684FEA681800F01F06A6EBBA
:101080000509B9F1070F15DC43F2B16907FB09F94E
:10109000DFF88CA50AEB490A4FEA410909F1140966
:1010A000A9EB0309C9EBC90B0BEB49190AEB490979
:1010B00029F8120002F101091FFA89F204F1270947
:1010C0009145AEDCA3F101091FFA89F38B42A6DA40
:1010D000BDE8F08F2DE9F043154603460C4600BFEE
:1010E00050E0034646E0A4EB0108C8EBC80808EB53
:1010F0008808A3EB0009C8444FF0010909EB480830
:10110000DFF8209519F808204FF6FF7808EA022248
:10111000A4EB0108C8EBC80808EB8808A3EB00099A
:10112000C844DFF8009519F8188090441FFA88F237
:1011300002F47846F61202F4FC6C4FEA6C1C02F0E2
:101140001F07A7EB0608B8F1070F0FDC43F2B168E1
:1011500005FB08F8DFF8C89409EB4808C4EBC4099C
:1011600009EB441908EB490828F8132003F101089A
:101170001FFA88F300F123089845B4DC04F1010854
:101180001FFA88F401F107084445AADBBDE8F083A3
:101190002DE9F04704460F46924699464FF0000865
:1011A0000AE0C8EBC80081B24A460220FFF792FF6E
:1011B00008F101001FFA80F8D045F2DBC8EBC80047
:1011C00081B24B4600221046FFF7B1FEC8EBC800C3
:1011D0005E3081B24B4601220020FFF7A8FE4FF09F
:1011E00000080EE0C8EBC8007330CAEBCA02104416
:1011F00081B24A460220FFF76DFF08F101001FFA95
:1012000080F8CAF124004045ECDC14F12A0F36DDE9
:10121000002C34DA3D462DE0664227E043F2B1600F
:1012200009FB00F0FE4901EB4000E91BC1EBC102E4
:1012300002EB411100EB410030F81600FE2814D0FB
:1012400043F2B16109FB01F1F54B03EB4101EB1BEB
:10125000C3EBC30C0CEB431301EB430131F8162035
:10126000311988B22946FFF72BF8761C272ED5DBDB
:10127000681C85B207F26710A842CDDC65E0B4F5C2
:101280008D7F39DBB4F59F7F36DC3D462FE0264667
:1012900028E043F2B16009FB00F0E14901EB4000B6
:1012A000E91BC1EBC10202EB411100EB4100311B14
:1012B00030F81100FE2814D043F2B16109FB01F1AE
:1012C000D74B03EB4101EB1BC3EBC30C0CEB4313FC
:1012D00001EB4301331B31F81320B0B22946FEF76E
:1012E000EFFF761CB6F5A07FD3DB681C85B207F252
:1012F0006710A842CBDC28E0B4F58C7F25DC002CFD
:1013000023DD3D461DE0264615E043F2B16109FBB1
:1013100001F1C34B03EB4101EB1BC3EBC30C0CEB23
:10132000431301EB4301331B31F81320B0B22946BC
:10133000FEF7C6FF761C04F12700B042E5DC681C0E
:1013400085B207F26710A842DDDCBDE8F0872DE921
:10135000F04380460F4691461D46B348405DE0B3DA
:10136000B24830F8154031E0B14830F8156025E05A
:10137000C9EBC9001530A04204DCC9EBC9005530E7
:10138000A04219DA43F2B1606843AA4901EB400078
:10139000A64931F81510611AC1EBC10303EB4111E5
:1013A00000EB4100A24931F81510711A30F81120F4
:1013B00021463046FEF784FF701C86B29C4830F808
:1013C00015002730B042D3DC601C84B2974830F857
:1013D000150000F26710A042C6DCB8F58D7F3ADB3D
:1013E0003C4633E040F219162BE004EB84009249AE
:1013F00001EBC01030F8161043F2B16068438D4A1B
:1014000002EB4000E21BC2EBC20303EB421200EB13
:101410004202A6F2191022F81010FE2143F2B16028
:1014200068437F4A02EB4000E21BC2EBC20303EBBE
:10143000421200EB4202A6F2191022F81010701CA2
:1014400086B2B6F5A07FD0DB601C84B207F26710CD
:101450008442C7DB78E0B8F1000F34DA3C462DE077
:10146000002627E004EB8400734901EBC01030F83C
:10147000161043F2B16068436E4A02EB4000E21B73
:10148000C2EBC20303EB421200EB420020F816103D
:10149000FE2143F2B1606843614A02EB4000E21B67
:1014A000C2EBC20303EB421200EB420020F816101D
:1014B000701C86B2272ED5DB601C84B207F2671041
:1014C0008442CDDB40E03C463AE01FFA88F631E04A
:1014D00004EB8400584901EBC01030F8161043F2B9
:1014E000B1606843534A02EB4000E21BC2EBC20307
:1014F00003EB421200EB4200A6EB080220F81210A8
:1015000004EB84004C4901EBC01030F8161043F294
:10151000B1606843424A02EB4000E21BC2EBC203E7
:1015200003EB421200EB4200A6EB080220F8121077
:10153000701C86B208F127008642C9DB601C84B2A9
:1015400007F267108442C0DB2B464A4639464046C4
:10155000FFF71EFEB8F1000F04DA0020344921F82D
:1015600015000BE0B8F58D7F05DB40F2191030490E
:1015700021F8150002E02E4921F815802B4820F8AB
:101580001570012028494855BDE8F0832DE9F04F3A
:1015900005460E462F46B04600BF59E02F463BE0B9
:1015A000781BA8EB0601C1EB0112C2EBC11100EBE5
:1015B0004100012101EB400020490C5C4FF6FF7017
:1015C00000EA0424781BA8EB0601C1EB0112C2EB70
:1015D000C11100EB4100194911F81000204484B2F8
:1015E00004F478494FEAE92904F4FC6B4FEA6B1BD9
:1015F00004F01F0AAAEB090007280BDC04F4FC60C6
:1016000000EBC42000EBD42084B222464146384689
:10161000FEF756FE781C87B212E00000A282020894
:1016200000F0046808890208000000200E00002075
:101630000800002000D0066800000068F2C9020817
:1016400005F1E200B842ABDC08F101001FFA80F8B6
:1016500006F172004045A1DCBDE8F08F2DE9F04FA6
:1016600005460E462F46B04600BF41E02F4637E004
:10167000781BA8EB060101EB410100EB8110012171
:1016800001EB4000FE490C5C4FF6FF7000EA0424B9
:10169000781BA8EB060101EB410100EB8110F84932
:1016A00011F81000204484B204F478494FEAE92983
:1016B00004F4FC6B4FEA6B1B04F01F0AAAEB090051
:1016C00007280BDC04F4FC6000EBC42000EBD42002
:1016D00084B2224641463846FEF7F2FD781C87B2B6
:1016E00005F1C000B842C3DC08F101001FFA80F820
:1016F00006F12A004045B9DCBDE8F08F2DE9F04342
:1017000005460E4617469846DDF81C90002407E073
:10171000281B43463A463146FFF719FE601CC4B207
:101720004C45F5DBBDE8F08310B54FF4F0734FF492
:10173000A0720021084602F0E9F902F08DFF10BD09
:10174000FEB50126C820CF490860FEF7DDFD45F64D
:1017500033724FF4B4710020FEF761FE43F6E810D7
:101760004FF4B37340F23F12194600900020FEF789
:10177000B0FD4BF2BD7040F2671340F23F121946C4
:1017800000900020FEF7A5FD48F6FC704FF4B473FE
:1017900040F23F12194600900020FEF79AFD41F6F4
:1017A000EB3040F2751340F23F12194600900020D2
:1017B000FEF78FFD44F659504FF4BB7340F23F12D1
:1017C000194600900020FEF784FD44F6595040F27F
:1017D000771340F23F12194600900020FEF779FD82
:1017E00049F2BB604FF4F07340F23F124FF4BC710A
:1017F00000900020FEF76DFD4FF48C710020FEF785
:1018000063FF5D214520FEF799FF00224FF496719A
:101810002A20FEF7D4FF01224FF49671B420FEF780
:10182000CEFF002398481E210268962001F01AFA84
:10183000FFF77AFF49F2BB60944908804FF6FF70CA
:1018400093A110221346CDE900210290C8224FF443
:10185000BC715A20FEF7F6FEF5E204F0E7F9054602
:10186000012D11D188480068401C8749086008464E
:101870000068062801DD06200860002382481E213A
:101880000268962001F0EEF9022D11D17E48006821
:10189000401E7D49086008460068002801DA0020E3
:1018A0000860002378481E210268962001F0DAF9CA
:1018B0007D484168002088477B48007D00F080001B
:1018C000002873D002F0B5FB7748408A77494988F1
:1018D00088426BDA7448008A744989888842F8DA49
:1018E0007148408A2A2873DB6F48408A92286FDC4F
:1018F0006D48008AB0F5B37FF9DC6B48008AB0F51B
:10190000967FF0DB4FF48C710020FEF7DDFE0022A5
:101910004FF497712B20FEF752FF01224FF496717E
:10192000B420FEF74CFFFFF7FFFE73E05E4841680E
:101930000020884705224FF4B4710020FEF797FD80
:101940005048008881B25A4802786A20FFF752F95D
:10195000FFF7EAFE032094FBF0F100FB11400028A2
:1019600053D148480068C83805284DD2DFE800F058
:10197000030D1F314200C9204249086064204C49D0
:10198000087000204B4908703EE04A48007830B9A2
:10199000CA203C4908606D204549087005E0C82010
:1019A000384908607520424908702DE072E14148CD
:1019B000007830B9CB203349086075203C49087065
:1019C00005E0C9202F4908606420394908701BE0F0
:1019D000EFE03848007830B9CC202A49086064200C
:1019E0003349087005E0CA20264908606D20304957
:1019F000087009E0CB202349086075202C49087045
:101A000001202C49087000BF00BF601CC4B2642CC8
:101A100000D100242448007D00F08000002885D1FA
:101A20004FF48C71FEF750FE00224FF496712A207D
:101A3000FEF7C5FE01224FF49671B420FEF7BFFEFB
:101A400043F6E8104FF4B37340F23F12194600908A
:101A50000020FEF73EFC4BF2BD7040F2671340F2EF
:101A60003F12194600900020FEF733FC48F6FC7048
:101A70004FF4B47340F23F121946009000201BE06F
:101A8000F28A0208180000202800002036000020FA
:101A90002863297777772E62726975702E636F6D70
:101AA0002032303135000000400000207601002057
:101AB0001500002014000020FEF70BFCFFF734FE99
:101AC000012473E0032094FBF0F100FB1140002897
:101AD00051D1FE480068C83805284BD2DFE800F035
:101AE000030D1E2F4000C920F84908606420F84902
:101AF00008700020F74908703CE0F648007830B9DB
:101B0000CA20F24908606D20F149087005E0C8203C
:101B1000EE4908607520EE4908702BE0ED4800782A
:101B200030B9CB20E94908607520E949087005E023
:101B3000C920E64908606420E54908701AE0E548D4
:101B4000007830B9CC20E14908606420E049087091
:101B500005E0CA20DD4908606D20DD49087009E014
:101B6000CB20DA4908607520D94908700120D9498D
:101B7000087000BF00BF05224FF4B4710020FEF7CB
:101B800076FCD248008881B2D14802786A20FFF7FB
:101B900031F804EB84016422A2EB4101C8B20021B8
:101BA000FFF719F9FFF7C0FD601CC4B20A2C89DDEC
:101BB0000026C948408AB4286CDBC748408AB0F583
:101BC0008E7F67DCC448008AB0F5B37FF9DCC24879
:101BD000008AB0F5967FEFDB4FF48C710020FEF7A2
:101BE00073FD00224FF496712A20FEF7E8FD0122D2
:101BF0004FF49771B520FEF7E2FDFFF795FD72E017
:101C0000B54841680020884705224FF4B471002090
:101C1000FEF72DFCAD48008881B2AD4802786A20FD
:101C2000FEF7E8FFFFF780FD032094FBF0F100FBD7
:101C3000114070BBA5480068C83805284DD2DFE8C0
:101C400000F0030D1E314200C920A0490860642045
:101C50009F49087000209F4908703EE09D48007829
:101C600030B9CA20994908606D209949087005E08B
:101C7000C820964908607520954908702DE0954860
:101C8000007840B9CB2091490860752090490870D0
:101C900007E023E067E0C9208C49086064208C4994
:101CA00008701AE08B48007830B9CC20874908606A
:101CB00064208749087005E0CA20844908606D20C7
:101CC0008349087009E0CB2080490860752080496D
:101CD000087001207F49087000BF00BF601CC4B2BB
:101CE000642C00D100247C48007D00F08000002896
:101CF00086D14FF48C71FEF7E7FC00224FF4967109
:101D00002A20FEF75CFD01224FF49671B420FEF705
:101D100056FD43F6E8104FF4B37340F23F121946F4
:101D200000900020FEF7D5FA4BF2BD7040F2671329
:101D300040F23F12194600900020FEF7CAFA48F61A
:101D4000FC704FF4B47340F23F121946009000202B
:101D5000FEF7BFFAFFF7E8FC01220021842004F01F
:101D60002DF902F066F9002E6DD005224FF4B47102
:101D70000020FEF77CFB5548008881B25448027869
:101D80006A20FEF737FFFFF7CFFC032094FBF0F14A
:101D900000FB1140A8BB4D480068C83805284CD24C
:101DA000DFE800F0030D1E304100C92047490860FC
:101DB0006420474908700020464908703DE04548C6
:101DC000007830B9CA20414908606D204049087048
:101DD00005E0C8203D49086075203D4908702CE0A9
:101DE0003C48007830B9CB20384908607520384924
:101DF000087005E0C920354908606420344908703E
:101E00001BE01BE03348007830B9CC202F49086034
:101E100064202F49087005E0CA202C4908606D2015
:101E20002B49087009E0CB20284908607520284913
:101E3000087001202749087000BF00BF601CC4B2B1
:101E4000642C00D10024002E7FF407ADFEBD38B510
:101E500001251E4800681E301C490860FEF754FA30
:101E600045F633724FF4B4710020FEF7D8FA43F60A
:101E7000E8104FF4B37340F23F121946009000206F
:101E8000FEF727FA4BF2BD7040F2671340F23F12A3
:101E9000194600900020FEF71CFA48F6FC704FF43B
:101EA000B47340F23F12194600900020FEF711FA79
:101EB00041F6EB3040F2751340F23F1219460090A4
:101EC0000020FEF706FA44F6595007E018000020FB
:101ED0001500002014000020400000204FF4BB73C8
:101EE00040F23F12194600900020FEF7F2F944F646
:101EF000595040F2771340F23F12194600900020EB
:101F0000FEF7E7F949F2BB604FF4F07340F23F127D
:101F10004FF4BC7100900020FEF7DBF94FF48C7198
:101F20000020FEF7D1FB012479E0032094FBF0F1BF
:101F300000FB1140002851D1FC480068E638052814
:101F40004BD2DFE800F0030D1E2F4000E720F749D9
:101F500008606420F64908700020F64908703CE0EB
:101F6000F448007830B9E820F04908606D20F04965
:101F7000087005E0E620ED4908607520EC4908701E
:101F80002BE0EC48007830B9E920E849086075207A
:101F9000E749087005E0E720E44908606420E44967
:101FA00008701AE0E348007830B9EA20DF49086099
:101FB0006420DF49087005E0E820DC4908606D20F6
:101FC000DB49087009E0E920D84908607520D84944
:101FD00008700120D749087000BF00BF05224FF4E8
:101FE000B4710020FEF743FAD048008881B2D0488F
:101FF00002783920FEF7FEFD46214420FEF743FF1C
:1020000078216720FEF7EBFE04EB84018906080EB9
:102010000021FEF7E0FEFFF787FB601CC4B20A2C2C
:1020200083DD79E0C448416800208847C248007DCC
:1020300000F0800000B100250A2C00DD0024002DF6
:102040006AD0032094FBF0F100FB1140002851D12D
:10205000B6480068E63805284BD2DFE800F0030DEB
:102060001E2F4000E720B14908606420B049087085
:102070000020B04908703CE0AE48007830B9E82054
:10208000AA4908606D20AA49087005E0E620A74922
:1020900008607520A64908702BE0A648007830B982
:1020A000E920A24908607520A149087005E0E720F1
:1020B0009E49086064209E4908701AE09D48007897
:1020C00030B9EA209949086064209949087005E010
:1020D000E820964908606D209549087009E0E920DC
:1020E0009249086075209249087001209149087052
:1020F00000BF00BF05224FF4B4710020FEF7B7F90E
:102100008A48008881B28A4802783920FEF772FD39
:10211000FFF70AFB601CC4B2002D83D101240DE03F
:1021200004EB84016422A2EB4101C8B20021FEF756
:1021300052FE1E2000F0C6FE601CC4B20A2CEFDD69
:1021400038BD70B50446254600267C48406820F01E
:1021500003007A4948600846006820F080700860F3
:102160000846406820F470104860A01EC4B20846BB
:10217000406840EA844048600846406840F4803047
:1021800048606F48006840F012006D4908606B4875
:10219000006840F080706949086000BF67480068C7
:1021A000400E0028FAD06548406840F002006349BC
:1021B000486005E061484068C0F3870606F0030602
:1021C000022EF7D1E906080E00F044FEE8004FF4B5
:1021D000E13101F012FC70BD2DE9FF474FF001081D
:1021E0001020FFF7AEFF5748006840F002004FF0A4
:1021F0002041C1F81C010846D0F81C0140F4407091
:10220000C1F81C010846406940F4C0604861FEF70F
:102210007BF845F633724FF4B4710020FEF7FFF8F7
:1022200043F6E8104FF4B37340F23F1219460090A2
:102230000020FEF74EF84BF2BD7040F2671340F2FB
:102240003F12194600900020FEF743F848F6FC7054
:102250004FF4B47340F23F12194600900020FEF78D
:1022600038F841F6EB3040F2751340F23F12194650
:1022700000900020FEF72DF844F659504FF4BB7340
:1022800040F23F12194600900020FEF722F844F673
:10229000595040F2771340F23F1219460090002047
:1022A000FEF717F849F2BB604FF4F07340F23F12AB
:1022B0004FF4BC7100900020FEF70BF84FF48C71C6
:1022C0000020FEF701FA0A21012003F079FC0646FE
:1022D000304603F0C1FFFDF783FF242190FBF1F2AC
:1022E00001FB1200C4B2C6EB0611480003F0B4FFB4
:1022F000FDF776FF2044242190FBF1F201FB120050
:10230000C4B227460120002322461946009040F21D
:102310003F10FFF7F3F900231A463221962000F010
:10232000A1FCFFF701FA012519E0000018000020C8
:102330001500002014000020400000200010024082
:10234000002002401C0100A005EB85014906080E93
:102350000021FEF740FD1E2000F0B4FD6D1C0A2D8B
:10236000F2DD002569E0032095FBF0F100FB115040
:10237000002851D1FE480068E63805284BD2DFE836
:1023800000F0030D1E2F4000E720F949086064208B
:10239000F84908700020F84908703CE0F6480078D9
:1023A00030B9E820F24908606D20F249087005E074
:1023B000E620EF4908607520EE4908702BE0EE48F2
:1023C000007830B9E920EA4908607520E9490870C9
:1023D00005E0E720E64908606420E64908701AE055
:1023E000E548007830B9EA20E14908606420E14915
:1023F000087005E0E820DE4908606D20DD490870BE
:1024000009E0E920DA4908607520DA4908700120FE
:10241000D949087000BF00BF07224FF4B4710020F3
:10242000FEF725F8D248008881B2D24802783920D8
:10243000FEF7E0FBFFF778F96D1C0A2D93DD002510
:102440004FF49E70019067E1CC48416800208847B6
:10245000CA48007D00F0800000287CD0C448008875
:1024600081B275223920FEF7C5FBC14800680938E2
:10247000C3490968401ABE4908606420BD49087014
:1024800007224FF4B4710020FDF7F1FFB84800684F
:10249000002802DA0020B6490860012000900023DD
:1024A000224619460198FFF729F90198122824DBE2
:1024B0000198522821DCC4EBC4001530AC490968EE
:1024C000884206DAC4EBC4004A30A9490968884248
:1024D00002DC4FF0000810E0AA48008868B901202B
:1024E000A8490880A8480068401CA7490860012046
:1024F000A6490860002002F050F90023A2483221CA
:102500000268962000F0AEFBFFF70EF90198C01F9D
:102510000190019810F12A0F43DA0A21012003F0FB
:102520004FFB0646304603F097FEFDF759FE242187
:1025300090FBF1F201FB1200C4B206EB86018800A9
:1025400003F08AFEFDF74CFE00EB0409FDF748FEA0
:102550001430242100E02BE090FBF1F201FB12008B
:1025600099FBF0F100FB1190C4B20CE0FDF738FECE
:10257000242190FBF1F201FB1200204490FBF1F2C8
:1025800001FB1200C4B2381B10F1050F02DD381B2D
:102590000528EBDB274640F23F10019000207949E7
:1025A0000880002079490860012002F0F6F820E058
:1025B0006F480068B0F5A57F1BDC6E480078662880
:1025C00017D06D206B4908706948006809306C4964
:1025D000096808446649086008460068B0F5A57FA8
:1025E00007DD4FF4A57008606620624908704FF05F
:1025F000000860480078662805D007224FF4B471BF
:102600000020FDF734FF01200090002322461946E8
:102610000198FFF773F8564A128891B25C4A128803
:1026200090B2544A1278FEF7E5FA0198122824DB9A
:102630000198522821DCC4EBC40015304C490968CC
:10264000884206DAC4EBC4004A3049490968884226
:1026500002DC4FF0000810E04A48008868B9012009
:102660004849088048480068401C474908600120E4
:1026700046490860002002F090F8002342483221C9
:102680000268962000F0EEFAFFF74EF80198C01F9E
:102690000190019810F12A0F38DA0A21012003F085
:1026A0008FFA0646304603F0D7FDFDF799FD21214C
:1026B00090FBF1F201FB1200C4B2C6EB061003F06E
:1026C000CBFDFDF78DFD2044212190FBF1F201FBB4
:1026D0001200C4B20CE0FDF783FD242190FBF1F25F
:1026E00001FB1200204490FBF1F201FB1200C4B286
:1026F000381B10F1050F02DD381B0528EBDB2746E0
:1027000040F23F10019000201E49088000201F4920
:102710000860012002F041F8B8F1000F7FF494AE98
:10272000BDE8FF872DE9F84300260127B0460920C0
:10273000FFF707FD01F07CFE01F028FF502140204B
:10274000FEF78CFF8C212820FEF720FF00224FF49B
:1027500096712A20FEF733F801224FF49671B420C7
:10276000FEF72DF8FEF7E0FF0121842012E00000C3
:102770001800002015000020140000204000002058
:10278000280000202000002024000020B80124425E
:102790001C00002003F027FC00F0FF08B8F1550FE3
:1027A00009D002220021702003F008FC01225521EB
:1027B000842003F003FC0221702003F014FC064681
:1027C00081480068B04205D902227F480168702024
:1027D00003F0F4FB002416E07B480068844205D82F
:1027E00001232246AF21F02000F03CFA01232246CB
:1027F000D721F02000F036FAFEF796FF1E2000F0F9
:1028000061FB601C84B270480068B04202D96E4817
:10281000006800E03046A042DED200206A4908602D
:10282000CDE06A484168002088476848007D00F094
:10283000800000287DD001F0FCFB6448408A644998
:102840004988884275DA6148008A614989888842E6
:10285000F8DA5E48408A2A2838DB5C48408A9228A9
:1028600034DC5A48008AB0F5B37F2FDC5748008A21
:10287000B0F5967F2ADB00224FF497712B20FDF7ED
:102880009EFF01224FF49671B420FDF798FF16E0E9
:102890004E4841680020884701250DE005EB850181
:1028A0006422A2EB4101C8B20021FEF794FA1E2077
:1028B00000F008FB681CC5B20A2DEFDD0027434875
:1028C000007D00F0800008B1002FE1D13F48408A30
:1028D000B42851DB3D48408AB0F58E7F4CDC3B4844
:1028E000008AB0F5B37F47DC3848008AB0F5967FA0
:1028F00042DB43F6E8104FF4B37340F23F1219463F
:1029000000900020FDF7E5FC4BF2BD7040F267132C
:1029100040F23F12194600900020FDF7DAFC48F61D
:10292000FC704FF4B47340F23F121946009000203F
:1029300000E021E0FDF7CDFC00224FF496712A2043
:10294000FDF73DFF01224FF49771B520FDF737FFEA
:10295000FEF7EAFE05E01D4841680020884701F0C7
:1029600068FB1A48007D00F080000028F3D10122A6
:102970000021842003F022FB00224FF496712A20CC
:10298000FDF71DFF01224FF49671B420FDF717FFEC
:1029900000201049087075200F49087077200F49F2
:1029A000086039200E49086000200E4908800E4951
:1029B00008800E4908800E490870FEF7B5FE002F0A
:1029C0007FF42FAFBDE8F8832400002040000020F2
:1029D00076010020140000201500002018000020BF
:1029E0001C00002020000020040000200600002021
:1029F000000000202DE9F84F04460D469146274679
:102A0000A84600BF40E0274636E0A8EB050000EBF3
:102A1000C000391B0844012101EB400019F8006097
:102A20004FF6FF7000EA0626A8EB050000EBC00099
:102A3000391B084419F81000304486B206F4784A6D
:102A40004FEAEA2A06F4FC600090009840110090DA
:102A500006F01F0BABEB0A00072806DD4EF6D3622B
:102A600041463846FDF72CFC04E0324641463846E4
:102A7000FDF726FC781C87B204F10900B842C4DCDB
:102A800008F101001FFA80F805F10E004045BADC9C
:102A9000BDE8F88F2DE9F84F04460D4691462746CC
:102AA000A84600BF42E0274638E0381BA8EB0501E6
:102AB00001EBC10100EB4100012101EB400019F8DD
:102AC00000604FF6FF7000EA0626381BA8EB0501F0
:102AD00001EBC10100EB410019F81000304486B24F
:102AE00006F4784A4FEAEA2A06F4FC60009000985F
:102AF0004011009006F01F0BABEB0A00072806DD23
:102B00004EF6D36241463846FDF7DAFB04E0324622
:102B100041463846FDF7D4FB781C87B204F1120019
:102B2000B842C2DC08F101001FFA80F805F11C0070
:102B30004045B8DCBDE8F88F2DE9F04106460F4668
:102B400014461D46002D45D10A2C42D2DFE804F080
:102B5000050B11171D23292F353B9C4A394630465A
:102B6000FFF798FF35E09A4A39463046FFF792FF63
:102B70002FE0984A39463046FFF78CFF29E0964A05
:102B800039463046FFF786FF23E0944A39463046FF
:102B9000FFF780FF1DE0924A39463046FFF77AFF83
:102BA00017E0904A39463046FFF774FF11E08E4A2D
:102BB00039463046FFF76EFF0BE08C4A3946304607
:102BC000FFF768FF05E08A4A39463046FFF762FFA3
:102BD00000BF45E00A2C42D2DFE804F0050B1117D4
:102BE0001D23292F353B834A39463046FFF702FF24
:102BF00035E0814A39463046FFF7FCFE2FE07F4A38
:102C000039463046FFF7F6FE29E07D4A3946304620
:102C1000FFF7F0FE23E07B4A39463046FFF7EAFE35
:102C20001DE0794A39463046FFF7E4FE17E0774A5F
:102C300039463046FFF7DEFE11E0754A3946304628
:102C4000FFF7D8FE0BE0734A39463046FFF7D2FE55
:102C500005E0714A39463046FFF7CCFE00BF00BFA1
:102C6000BDE8F0812DE9F84F07468A4690469B461D
:102C70004646002504E00A20B6FBF0F6681C85B243
:102C8000002EF8D1B8F1000F00D10125BBF1000FE3
:102C900035D14EF6D36005EB850107EB410C691E7B
:102CA00001EB8101ACEB8101009088B20AF11E01B9
:102CB0008BB205EB850107EB41018AB25146FDF766
:102CC00008FB4646002417E00A20B6FBF0F100FBA3
:102CD000116905EB850107EB410104EB8402A1EBCF
:102CE000820188B200234A465146FFF725FF0A2099
:102CF000B6FBF0F6601C84B2AC42E5DB19E0464658
:102D0000002414E00A20B6FBF0F100FB116904EB8B
:102D1000440101EBC401791A88B201234A465146A5
:102D2000FFF70AFF0A20B6FBF0F6601C84B2AC4243
:102D3000E8DBBDE8F88F2DE9F84F04460D469146D3
:102D40002746A84600BF3BE0274631E0381BA8EBEA
:102D5000050101EBC10100EB4100012101EB400045
:102D600019F800604FF6FF7000EA0626381BA8EB42
:102D7000050101EBC10100EB410019F810003044DE
:102D800086B206F4784A4FEAEA2A06F4FC6000901C
:102D900000984011009006F01F0BABEB0A000728CB
:102DA00004DC002241463846FDF78AFA781C87B2D7
:102DB00004F11200B842C9DC08F101001FFA80F8E2
:102DC00005F11C004045BFDCBDE8F88F3A930308CD
:102DD00026980308129D0308FEA10308EAA603082B
:102DE000D6AB0308C2B00308AEB503089ABA03080D
:102DF00086BF03082A970308169C030802A103084C
:102E0000EEA50308DAAA0308C6AF0308B2B40308A4
:102E10009EB903088ABE030876C303080848004722
:102E2000FEE7FEE7FEE7FEE7FEE7FEE7FEE7FEE77A
:102E3000FEE7FEE703480449044A054B70470000DB
:102E400031010008C8020020C8080020C804002082
:102E5000C80400204FF0E021096921F004014FF07F
:102E6000E0221161C21700EB5272C2F3C702234B7A
:102E70001A701946097801EB4102C2EBC1114FF6F5
:102E8000FF7202EAC1011E4A1180704701461B4AC7
:102E900012784A434FF0E0235A6100229A610122DE
:102EA0001A6100BF4FF0E022106900F001021AB170
:102EB00000F48032002AF5D000224FF0E0231A619E
:102EC0009A61704701460E4A12884A434FF0E02348
:102ED0005A6100229A6101221A6100BF4FF0E0227C
:102EE000106900F001021AB100F48032002AF5D016
:102EF00000224FF0E0231A619A6170472C000020F5
:102F00002E0000202DE9F04105460C4616461F46CE
:102F1000364BE91800204AE0012383403340EBB3ED
:102F2000072812DC0B684FEA80084FF00F0C0CFAF0
:102F300008FC23EA0C030B600B684FEA800C04FAD0
:102F40000CFC43EA0C030B601CE003464FEAE07CF8
:102F500000EB5C7C4FEAEC0CA0EBCC0C0CF0FF021D
:102F60004B684FEA82084FF00F0C0CFA08FC23EA7A
:102F70000C034B604B684FEA820C04FA0CFC43EAEA
:102F80000C034B6084F0080343B9CB684FF0010C8D
:102F90000CFA00FC23EA0C03CB6000E005E0CB68F0
:102FA00007FA00FC43EA0C03CB60431CD8B210289C
:102FB000B2DBBDE8F08170B503460C460B4D5919E4
:102FC00000200FE00125854025404DB1CD68012648
:102FD0008640B543CD60CD6802FA00F63543CD603A
:102FE000451CE8B21028EDDB70BD00000008014070
:102FF000FB4A0A400243FB4B1A60704770B501461A
:103000000023002975D0012973D0022971D003292A
:103010006FD004296DD005296BD0062969D0072906
:1030200067D0082965D0092963D00A2961D00B2906
:103030005FD00C295DD00D295BD00E2959D00F2906
:1030400057D0102955D0112953D0122951D0132906
:103050004FD014294DD015294BD0162949D0172906
:1030600047D0182945D0192943D01A2941D01B2906
:103070003FD01C293DD01D293BD01E2939D01F2906
:1030800037D0202935D0212933D0222931D0232906
:103090002FD024292DD025292BD0262929D0272906
:1030A00027D0282925D0292923D02A2921D02B2906
:1030B0001FD02C291DD02D291BD02E2919D02F2906
:1030C00017D0302915D0312913D0322911D0332906
:1030D0000FD034290DD035290BD0362909D0372906
:1030E00007D0382905D0392903D03A2901D03B2906
:1030F00001D1012000E0002008B9002070BDCC17EC
:1031000001EBD4646411A40004F1E024D4F800417C
:103110000A46CD1701EBD5656D11A1EB45160125CA
:10312000B5402C430846CD1701EBD5656D11AD00B8
:1031300005F1E025C5F80041CA1701EBD262521132
:10314000920002F1E022D2F80031CA1701EBD262FC
:103150005211A1EB42140122A2401340CC1701EB03
:10316000D4646411A40004F1E024D4F80041CD1724
:1031700001EBD5656D11A1EB45160125B5402C403D
:103180000CB10120BAE70020B8E730B501460029AC
:1031900075D0012973D0022971D003296FD0042979
:1031A0006DD005296BD0062969D0072967D0082979
:1031B00065D0092963D00A2961D00B295FD00C2979
:1031C0005DD00D295BD00E2959D00F2957D0102979
:1031D00055D0112953D0122951D013294FD0142979
:1031E0004DD015294BD0162949D0172947D0182979
:1031F00045D0192943D01A2941D01B293FD01C2979
:103200003DD01D293BD01E2939D01F2937D0202978
:1032100035D0212933D0222931D023292FD0242978
:103220002DD025292BD0262929D0272927D0282978
:1032300025D0292923D02A2921D02B291FD02C2978
:103240001DD02D291BD02E2919D02F2917D0302978
:1032500015D0312913D0322911D033290FD0342978
:103260000DD035290BD0362909D0372907D0382978
:1032700005D0392903D03A2901D03B2901D10120B9
:1032800000E0002008B9002030BDCB1701EBD3636C
:103290005C11554B53F824300A46CC1701EBD4642B
:1032A0006411A1EB44150124AC4023430846CC171C
:1032B00001EBD46465114C4C44F82530CB1701EB7D
:1032C000D3635C11484B53F82430CC1701EBD46422
:1032D0006411A1EB44150124AC4023400BB901203B
:1032E000D2E70020D0E730B50146002975D001298A
:1032F00073D0022971D003296FD004296DD005291C
:103300006BD0062969D0072967D0082965D009291B
:1033100063D00A2961D00B295FD00C295DD00D291B
:103320005BD00E2959D00F2957D0102955D011291B
:1033300053D0122951D013294FD014294DD015291B
:103340004BD0162949D0172947D0182945D019291B
:1033500043D01A2941D01B293FD01C293DD01D291B
:103360003BD01E2939D01F2937D0202935D021291B
:1033700033D0222931D023292FD024292DD025291B
:103380002BD0262929D0272927D0282925D029291B
:1033900023D02A2921D02B291FD02C291DD02D291B
:1033A0001BD02E2919D02F2917D0302915D031291B
:1033B00013D0322911D033290FD034290DD035291B
:1033C0000BD0362909D0372907D0382905D039291B
:1033D00003D03A2901D03B2908D1012007E00000A1
:1033E00080FFFF1F08ED00E080E100E0002008B949
:1033F000002030BD0846CB1701EBD3635B11A1EB76
:1034000043140123A3400A46CC1701EBD464651191
:10341000F24C44F82530CB1701EBD3635C11EF4B32
:1034200053F82430CC1701EBD4646411A1EB44159C
:103430000124AC402340012B01D10120D9E7002019
:10344000D7E730B50146002975D0012973D002298C
:1034500071D003296FD004296DD005296BD00629BE
:1034600069D0072967D0082965D0092963D00A29BE
:1034700061D00B295FD00C295DD00D295BD00E29BE
:1034800059D00F2957D0102955D0112953D01229BE
:1034900051D013294FD014294DD015294BD01629BE
:1034A00049D0172947D0182945D0192943D01A29BE
:1034B00041D01B293FD01C293DD01D293BD01E29BE
:1034C00039D01F2937D0202935D0212933D02229BE
:1034D00031D023292FD024292DD025292BD02629BE
:1034E00029D0272927D0282925D0292923D02A29BE
:1034F00021D02B291FD02C291DD02D291BD02E29BE
:1035000019D02F2917D0302915D0312913D03229BD
:1035100011D033290FD034290DD035290BD03629BD
:1035200009D0372907D0382905D0392903D03A29BD
:1035300001D03B2901D1012000E0002008B9002082
:1035400030BD0846CB1701EBD3635B11A1EB4314ED
:103550000123A3400A46CC1701EBD46465119F4CAC
:10356000803444F82530CB1701EBD3635C119B4BBF
:10357000803353F82430CC1701EBD4646411A1EBF1
:1035800044150124AC4023400BB90120D8E70020AA
:10359000D6E730B50146002975D0012973D002293C
:1035A00071D003296FD004296DD005296BD006296D
:1035B00069D0072967D0082965D0092963D00A296D
:1035C00061D00B295FD00C295DD00D295BD00E296D
:1035D00059D00F2957D0102955D0112953D012296D
:1035E00051D013294FD014294DD015294BD016296D
:1035F00049D0172947D0182945D0192943D01A296D
:1036000041D01B293FD01C293DD01D293BD01E296C
:1036100039D01F2937D0202935D0212933D022296C
:1036200031D023292FD024292DD025292BD026296C
:1036300029D0272927D0282925D0292923D02A296C
:1036400021D02B291FD02C291DD02D291BD02E296C
:1036500019D02F2917D0302915D0312913D032296C
:1036600011D033290FD034290DD035290BD036296C
:1036700009D0372907D0382905D0392903D03A296C
:1036800001D03B2901D1012000E0002008B9002031
:1036900030BD0A46C81701EBD0604411504850F8BD
:1036A00024000B46CC1701EBD4646411A1EB441544
:1036B0000124AC40204008B10120E9E70020E7E701
:1036C00001460022474802684FF6FF0002400429E5
:1036D00001DD0020704744480243C81C42EA002232
:1036E000404802600068C0F30220C01E884201D139
:1036F0000120EFE70020EDE7F0B5034600240025A8
:1037000038480068C0F30220C01EC4B234B1012C96
:1037100007D0022C0CD0032C18D110E001F00F05BB
:1037200014E001F00706104666F35F0005460DE061
:1037300001F00306104666F39F00054606E001F01F
:103740000106104666F3DF00054600BF00BF274EA6
:103750009F1056F827601846DF1703EB9777BF10C6
:10376000A3EB87074FEAC70CF02707FA0CF7BE4315
:103770001E4F4FEAA30C47F82C603E469F1056F8A8
:103780002760DF1703EB9777BF10A3EB87074FEA9C
:10379000C70C2F0107FA0CF73E43144F4FEAA30C56
:1037A00047F82C600120F0BD0020704700207047D2
:1037B0002DE9F04105460E4617461C464FF001081C
:1037C0002846FFF77DFF80463A4631462046FFF700
:1037D00093FF80464046BDE8F081000000E200E033
:1037E00000E300E00CED00E00000FA0500E400E07A
:1037F00010B5002036490861C860142048610020D7
:103800008861C8610846006840F001000860084609
:103810004068304908402E494860084600682E49F3
:1038200008402B4908600846006820F480200860A2
:103830000846406820F4FE004860002088600021AF
:103840004FF00060FFF7D4FB10BD70B504460025B3
:10385000FFF7CEFF1E48006840F480301C49086026
:1038600000BF1B480068400C0028FAD04FF480606D
:1038700017494860A01EC4B20846406840EA844028
:1038800048600846406840F480304860134800684B
:1038900040F03200114908600D48006840F0807027
:1038A0000B49086000BF0A480068400E0028FAD0A3
:1038B0000748406840F002000549486005E00448B8
:1038C0004068C0F3870505F00305022DF7D170BDF0
:1038D000001002400000FFF8FFFFF6FE002002404B
:1038E000014600BF704700BF794A128802F04002CB
:1038F000002AF9D0C2B2764B1B1D1A80704774495A
:10390000098801F0200191B37149091D0988C8B2E5
:10391000704991F8041101F0010141BB41B26D4AB7
:10392000B2F802216B4B99541946B1F80211491CA7
:103930001A46A2F80211114691F80211A2F80211DA
:103940001146B1F80211B2F80021914207D119468F
:1039500091F8041141F001011A4682F804115D4901
:1039600091F8041121F002015A4A82F804117047BB
:10397000584991F8041101F0020139BB5549B1F8D9
:103980000011544A50561146B1F80011491CA2F8D2
:103990000011114691F80011A2F800111146B1F87A
:1039A0000211B2F80021914207D14A4991F804115D
:1039B00041F00201474A82F80411464991F8041186
:1039C00021F00101434A82F8041101E04FF0FF3079
:1039D000704770B504460D46002609E0FFF7C8FFA2
:1039E0000346581C20B1A355681E85B2701C86B2D0
:1039F000012DF3DC0020A05570BD2DE9F05F0546D8
:103A00000E46300103F0DEF88146334905FB01F034
:103A100003F0D8F88246494602F0BEFF0746384612
:103A200003F098F884B2204603F0CCF88346394678
:103A300003F00DFA82464FF0834103F00BF9814603
:103A400003F088F8804608EB041084B20120234973
:103A500008602349C1F838032248006820F47F60D9
:103A6000204908600846006840F40B6008600120A7
:103A70001D49086000201A49C1F8B80114480830EF
:103A80000480001D008842F20C01084310490C31EB
:103A9000088000200F49A1F80001A1F802010846A2
:103AA00090F8040140F0020081F8040101200F4960
:103AB00008600F49C1F89401252304220A2100203F
:103AC000FFF776FE2520FFF799FABDE8F09F00008A
:103AD000003801407000002040420F0008034242BD
:103AE0000000424204080140B8014242A0012742BE
:103AF00000002742FE48C079FE4908807047FD4912
:103B0000891C08807047FB49088070472DE9F04107
:103B100004460D4616461F46F549087AFFF7F3FF9F
:103B20002012FFF7ECFFE0B2FFF7E9FF3012FFF7DA
:103B3000E6FFF0B2FFF7E3FFED49487AFFF7E3FF56
:103B40002812FFF7DCFFE8B2FFF7D9FF3812FFF7C2
:103B5000D6FFF8B2FFF7D3FFFFF7CCFFBDE8F08147
:103B60002DE9F0410746002400260525E04840885D
:103B7000DF49898800FB01F600BF19E004F001006D
:103B8000A8B904FB055083B204FB05F081B240F2F2
:103B90003F120020FFF7BAFF002603E0D548801C43
:103BA0000780761CD24840886843B042F6D8641C2F
:103BB0004FF4F07090FBF5F0A042DFD8002419E03C
:103BC00004F00100A8B104FB055083B204FB05F02A
:103BD00081B240F23F120020FFF798FF002603E079
:103BE000C448801C0780761CC14840886843B042A6
:103BF000F6D8641C4FF4F07090FBF5F0A042DFD8CB
:103C0000BDE8F081BB4A1080921C1180704710B54E
:103C10002A20B74908722B2048722C20C871002036
:103C200088714FF4A07048804FF4F0708880522162
:103C30003620FFF7E7FF10BDAE48801C00887047B4
:103C400010B504462046FFF75EFF0520FFF71EF97A
:103C5000FFF7F2FF10BD10B5A748406940F480702F
:103C6000A54948610846806940F4B4708861A3485A
:103C7000006820F00F00A14908600846006840F085
:103C8000030008609E4800689E4908409C490860FF
:103C9000084600689C49084399490860081F006865
:103CA00000F0FF20091F08600846006840F0BB10C4
:103CB000086096480068002094490860084600683B
:103CC00040F0BB300860081F006820F07040091FFA
:103CD00008600846006840F0304008608C48406842
:103CE00020F470208A4948600846406840F430203B
:103CF00048600846006820F00F0008600846006829
:103D000040F00B00086000204FF020418861C8613E
:103D1000804908604FF02040806940F480504FF0A7
:103D2000204188610846806940F4804088610846E7
:103D3000806940F0100088610846C069C861084683
:103D4000C06940F00100C8610846C06940F4706075
:103D5000C86170480068C1F81C016E480068C1F86D
:103D60001C010846D0F81C0140F44070C1F81C0149
:103D70000846806940F0010088613220FFF7A2F810
:103D800001210020FFF73EFF3220FFF79BF80020C3
:103D9000FFF756FF5649088008460088FF2805DBD4
:103DA000084600884FF6FF71884219D1D320FFF7EB
:103DB000AAFEFFF741FFFFF73FFFFFF73DFF4C492A
:103DC0000880084600884FF6FF7101EA0020484944
:103DD0000880FFF731FF46490988084344490880B5
:103DE000434801884CA002F067F90C20FFF728FF38
:103DF000044621464CA002F05FF9FFF71DFF044680
:103E000021464CA002F058F91320FFF77CFEB120A8
:103E1000FFF779FEA020FFF772FE0020FFF76FFE8C
:103E2000B420FFF770FE0020FFF769FE2A20FFF79D
:103E30006AFE0020FFF763FE0020FFF760FE01200E
:103E4000FFF75DFEDF20FFF75AFE2B20FFF75BFE3A
:103E50000020FFF754FE0020FFF751FE0120FFF77E
:103E60004EFE3F20FFF74BFE3520FFF74CFE0020B3
:103E7000FFF745FE3620FFF746FE3020FFF73FFEF6
:103E8000E020FFF740FE0920FFF739FE0A20FFF788
:103E900036FE0E20FFF733FE0D20FFF730FE072021
:103EA000FFF72DFE1820FFF72AFE0D20FFF727FE53
:103EB0000D20FFF724FE0E20FFF721FE0420FFF760
:103EC0001EFE0520FFF71BFE0620FFF718FE0E2042
:103ED000FFF715FE2520FFF712FE2220FFF70FFE49
:103EE000E120FFF710FE1F20FFF709FE3F2027E02B
:103EF00076010020FE07006C00100240000C01401B
:103F00000414014000F0FF00BB0B00BB041801408B
:103F1000002001401C0100A04C43442049443A20A9
:103F200025780D0A0000000064617461313A202593
:103F3000780D0A0064617461323A2025780D0A0018
:103F4000FFF7DDFD3F20FFF7DAFD0F20FFF7D7FD7C
:103F50001F20FFF7D4FD0F20FFF7D1FD4620FFF70C
:103F6000CEFD4920FFF7CBFD3120FFF7C8FD05202E
:103F7000FFF7C5FD0920FFF7C2FD0320FFF7BFFDD6
:103F80001C20FFF7BCFD1A20FFF7B9FD0020FFF74A
:103F9000B6FD3A20FFF7B7FD5520FFF7B0FD4420EE
:103FA000FFF7B1FD0020FFF7AAFD0120FFF7A7FDF5
:103FB0001120FFF7A8FD9620FEF784FFD020FFF721
:103FC000A2FD0720FFF79BFD0720FFF798FDD120FA
:103FD000FFF799FD0320FFF792FD5220FFF78FFDB9
:103FE0001020FFF78CFDD220FFF78DFD0320FFF797
:103FF00086FD2420FFF783FD2020FFF784FDB020FD
:10400000FFF781FD0020FFF77AFD2920FFF77BFDF8
:104010000A20FEF757FFFFF7FAFD0120F749086075
:104020004FF6FF70FFF79CFD10BD10B5FFF762FD66
:1040300010BD10B500212920FFF7E4FD10BD10B51B
:1040400000212820FFF7DEFD10BD70B505460C46A7
:10405000EB49087AFFF757FD2812FFF750FDE8B249
:10406000FFF74DFD2812FFF74AFD2846FFF747FDF1
:10407000E349487AFFF747FD2012FFF740FDE0B221
:10408000FFF73DFD2012FFF73AFD2046FFF737FD11
:10409000FFF730FD70BD70B505460E46144631463B
:1040A0002846FFF7D2FF2C20D64908802088891C9B
:1040B000088070BD2DE9F04F87B005460E461746C3
:1040C0009946B846CDF80C90E81B02F063FD0590C8
:1040D000A6EB090002F05EFD0490BD4204D0DDE9CC
:1040E000040102F059FC0690BD4203DDA8463D469E
:1040F00003964E4645450ED1344606E021462846F5
:10410000109AFFF7C8FF601C84B203988442F5DD63
:1041100007B0BDE8F08F039886420BD12C4606E02D
:1041200031462046109AFFF7B6FF601C84B2444522
:10413000F6DDEDE72C463FE0304602F043FD02900D
:10414000601B02F027FD0090069902F083FD0190AC
:10415000029902F0B3FB82464FF07E51069802F0BE
:1041600045FE1DD84FF0000B14E0584602F02AFD22
:104170005146009002F0A2FB019002F0EBFC80B2ED
:10418000029001462046109AFFF785FF0BF10100CF
:104190001FFA80FB069802F0DDFC80B25845E4DA95
:1041A000504602F0D7FC80B2029001462046109A99
:1041B000FFF771FF601C84B24445BDDD00BFA7E777
:1041C0002DE9F84F04460D4616461F46DDF82880B7
:1041D00006FB07FA98F80500012814D1E81983B204
:1041E000A01982B229462046FFF790FC4FF0000943
:1041F00006E0B8F800008349891C088009F101092C
:10420000D145F6D32AE098F8050038BBA01982B250
:104210002B4629462046CDF80080FFF74BFFE819D2
:1042200083B2224629462046CDF80080FFF742FFA0
:10423000E81983B2A01982B2E81981B22046CDF8FC
:104240000080FFF737FFE9198BB2A1198AB2A119D3
:1042500088B22946CDF80080FFF72CFFBDE8F88F23
:104260002DE9F84F80460C4617461D460094A7F1ED
:104270002000C7B22879102802D0202806D102E0F9
:104280004FF0100905E04FF0400902E00120BDE8C1
:10429000F88F00BF002644E02879102802D020289B
:1042A0000CD105E0584800EB071010F806B007E005
:1042B000564800EB871010F806B001E00120E6E751
:1042C00000BF4FF0000A17E00BF0800020B12A4633
:1042D00021464046FFF7DFFE4FEA4B604FEA106B86
:1042E000601C84B246488088A04201DA0120CEE7F3
:1042F0000AF1010000F0FF0ABAF1080FE4DB0098B0
:10430000201A297988420AD1009C08F101001FFA7D
:1043100080F83B484088404501DA0120B7E7701C2F
:10432000C6B24E45B8DB0020B1E72DE9F0410746A3
:10433000884614461D4600262879102802D02028D9
:1043400004D101E0102604E0202602E00120BDE8AF
:10435000F08100BF2FE0A879B8B92078812803DB6D
:10436000B81987B2A41C26E022782B46414638466D
:10437000FFF776FF08B10120E9E7304606EBD07180
:1043800007EB61018FB2641C15E0A879012812D1F6
:104390002078812801DBA41C09E022782B464146C5
:1043A0003846FFF75DFF08B10120D0E7641C08EB39
:1043B00006001FFA80F820780028CCD100BFC6E79D
:1043C00070B504460D461646324629462046FFF78C
:1043D00062FE611C88B232462946FFF75CFE681C0B
:1043E00081B232462046FFF756FE6A1C91B2621C2B
:1043F00090B23246FFF74FFE70BD0000808121422F
:1044000076010020FE07006CE6C80308D6CE03083C
:1044100010B5034618464FF6FF7404EA40104418DE
:10442000A0B24FF6FF7404EA80108418A0B210BD49
:104430004C48406940F480704A49486108468069A8
:1044400040F4F070886148480068002046490860E0
:104450000846006840F0BB300860081F006800F0A4
:10446000FF20091F08600846006840F0BB10086084
:104470003E48006800203D4908600846006840F05A
:10448000BB300860081F0068394908403749091FD8
:10449000086008460068374908433449091F086026
:1044A0003548006880B234490860084600683349DE
:1044B000084331490860081F006800F07F40091F69
:1044C0000860084600682E4908432B49091F086008
:1044D0002C48406820F470602A49486008464068CB
:1044E00040F4306048600846006800F07F40086093
:1044F00008460068224908432249086000204FF01E
:1045000020410861486120490860C806006940F4FC
:104510008040C90608610846006940F4805008617F
:104520000846006940F0100008610846006908610B
:104530000846406948610846406940F40070486197
:104540000846406940F0010048610846D0F814016F
:1045500040F44070C1F814010846006940F00100C1
:104560000861704700100240041401400418014023
:1045700000FFFF0FBB0000B0041C01400000BBBBEC
:10458000BBBBBB0000200140140100A010B569486E
:10459000406940F00200674948610520FEF792FC3F
:1045A0006548664908606648091D0860002063493F
:1045B0000839086008460068086008460068086016
:1045C0000846006840F0400008600846006808603F
:1045D0000846006840F4807008600846006840F4AF
:1045E000806008600846006840F480500860084613
:1045F000006840F48040086010BD10B54F4808388E
:10460000006820F001004D49083908604D484B49C9
:1046100008604FF41630091F08604B4801684BA032
:1046200001F04AFD45480838006840F00100434960
:1046300008390860081D016848A001F03DFD05E04B
:104640003E48001F016845A001F036FD3B48001FB1
:1046500000680028F4D110BD38480838006820F000
:104660000100364908390860334834490860424837
:104670000068091F0860081F006840F00100091F5A
:10468000086000BF2D48001F00680028FAD13B4891
:104690002A49086029480838006820F001002749A5
:1046A0000839086034480068091D0860081F006860
:1046B00040F00100091F086000BF2048001F00688B
:1046C0000028FAD12E481D4908601C4808380068A7
:1046D00020F0010019490839086027480068091DC1
:1046E0000860081F006840F00100091F086000BF53
:1046F0001248001F00680028FAD122480F490860BC
:104700000E480838006820F001000C49083908609C
:1047100019480068091D0860081F006840F0010082
:10472000091F086000BF0548001F00680028FAD173
:104730007047000000100240000000686004024062
:104740000008006C009001683C0000207C204C4573
:104750004E203D20256C647C0D0A00007C20444DD9
:1047600041325F4368616E6E656C35203D20256C7B
:10477000647C0D0A0000000038000020002C016855
:10478000005802680084036818B90021244A1160A7
:1047900002E00121224A1160704720B90021204A1D
:1047A000121D116003E001211D4A121D11607047A6
:1047B00020B900211A4A0832116003E00121184A89
:1047C00008321160704710B50120164908600023B7
:1047D00007220321C002FEF795FB0120FFF7E8FF47
:1047E0000120FFF7DAFF0120FFF7CEFF10BD10B563
:1047F000002400BF10E001220721D002FEF7DBFBFE
:10480000002221464FF40060FEF7D5FB4FF47A708A
:10481000FEF758FB601CC4B2082CECDB10BD000096
:104820008001224210034242002100BF14E000F048
:1048300080021AB10122FE4B1A6002E00022FC4BFA
:104840001A604206100E0022FA4B1A600122FA4B3F
:10485000C3F884214A1CD1B20829E8DB704770B53F
:104860000646002500240020F2490860F349C1F8FB
:10487000A401F049091D08603046FFF7D5FF062066
:10488000FEF704FB0020EC49C1F884010120FEF78B
:10489000FDFA0120E74908600020E749C1F88401DA
:1048A00000BF12E04FF6FF7000EA44040020E14927
:1048B00008600120E049C1F88401DD4884380068BF
:1048C00008B1601C84B2681CC5B2102DEADB24114B
:1048D0000120D849091D0860204670BD2DE9FE431E
:1048E00080460027002406E04046FFF7B8FF2DF879
:1048F0001400601C84B2052CF6DB002416E0601C5A
:1049000085B20FE03DF814003DF81510884207DD30
:104910003DF814603DF815002DF814002DF81560D1
:10492000681C85B2052DEDDB601C84B2042CE6DB2F
:104930000027012405E03DF81400384487B2601CCC
:1049400084B2042CF7DB032097FBF0F086B23046EC
:10495000BDE8FE832DE9F04104460D46B84991F8C3
:104960002500FFF7BBFF0646B54991F82600FFF783
:10497000B5FF074626802F800020BDE8F0817FB577
:1049800004460D4602A903A8FFF7E4FF064616B148
:10499000012004B070BD694601A8FFF7DBFF0646A1
:1049A0000EB10220F5E7BDF80400BDF80C108842F6
:1049B00006DCBDF80C10BDF80400323081420CDB7F
:1049C000BDF80C00BDF80410884236DCBDF80410B8
:1049D000BDF80C00323081422FDABDF80000BDF87E
:1049E0000810884206DCBDF80810BDF8000032301F
:1049F00081420CDBBDF80800BDF8001088421CDCC9
:104A0000BDF80010BDF808003230814215DABDF85B
:104A10000C10BDF80420881800EBD071C1F34F01D1
:104A20002180BDF80810BDF80020881800EBD07177
:104A3000C1F34F0129800020ABE70320A9E7FEB5B1
:104A400004460D461646ADF8046001208DF80900B5
:104A500001A86A1E91B2621E009090B203231A460A
:104A6000FFF7AEFB01A804F10F018AB21E390090D6
:104A700088B22B462946FFF71DFB01A8009005F1DF
:104A80000F0083B21E3881B222462046FFF712FB88
:104A900000208DF8090001A86A1F91B2621F0090E2
:104AA00090B20B231A46FFF78BFBFEBD2DE9F047B2
:104AB00004465F487C380068002850D12CB160491A
:104AC0001231881EFFF75BFF3AE05D491231881E04
:104AD000FFF755FFA0BB5A49B1F9200002F05AF880
:104AE00007465749088A02F06DF8804654488169A4
:104AF000404602F0AFF80646394601F0DFFE0546B3
:104B000002F028F84E490882B1F9220002F042F87A
:104B100080464B49488A02F055F881464848C169A9
:104B2000484602F097F80746414601F0C7FE0646A0
:104B3000444902F08CF9054602F00CF840494882DD
:104B40003F48007D00F08000E8B9C0203C4908756E
:104B50000846008A88810846408AC88113E03848A0
:104B6000007D00F0800030B13548007D00F07F000E
:104B70003349087507E0002031498881C8814FF624
:104B8000FF70088248822E48007D00F08000BDE85A
:104B9000F08770B504460D46628821882AA001F08E
:104BA0008BFAE288A1882DA001F086FA628921891A
:104BB0002FA001F081FAE289A18932A001F07CFAEC
:104BC000294635A001F078FA002070BD2DE9F04F9C
:104BD00089B00026B3461F20ADF8080010208DF8DC
:104BE0000C0000BF4FF6FF70FEF7BAFF1F22142122
:104BF0000846FFF724FF02AB2AA278216420FFF7C2
:104C000094FB00200E490875886112E30C48416846
:104C1000012088470A48007D00F0C000402878D174
:104C20004FF0000B0648007D20F0400004494DE0A5
:104C3000A4812342848121420080214200802342BA
:104C4000400000200000A0437831203D2025642C46
:104C5000207931203D2025640D0A00007832203D66
:104C60002025642C207932203D2025640D0A000087
:104C70007833203D2025642C207933203D20256485
:104C80000D0A00007834203D2025642C2079342042
:104C90003D2025640D0A0000666163203D202564E7
:104CA0000D0A0000C7EBD2C0B4CEB5E3BBF7C6C156
:104CB000C4BBC9CFB5C4D0A3D7BCB5E3BDF8D0D071
:104CC000C6C1C4BBD0A3D7BC2100000008750846EC
:104CD000008A05A921F82600FE48408A01EB8601DA
:104CE0004880701CC6B2012E06D0022E12D0032EB0
:104CF0001ED0042E0CD12AE04FF6FF721421084674
:104D0000FFF79DFE1F2214214FF4E670FFF797FE78
:104D100070E270E24FF6FF7214214FF4E670FFF775
:104D20008EFE1F224FF496711420FFF788FE61E279
:104D30004FF6FF724FF496711420FFF780FE1F228A
:104D40004FF496714FF4E670FFF779FE52E2BDF82A
:104D50001410BDF81820881A002801DB014600E075
:104D600041420C46BDF81620BDF81A10501A002812
:104D700001DB014600E041420D4664436D4360198A
:104D800001F0B1FBCDE9000101F04DFB074601F058
:104D90007DFB1FFA80F9BDF81C10BDF82020881A91
:104DA000002801DB014600E041420C46BDF81E2010
:104DB000BDF82210501A002801DB014600E04142F4
:104DC0000D4664436D43601901F08DFBCDE9000190
:104DD00001F029FB074601F059FB1FFA80FA504603
:104DE00001F0F0FE0746484601F0ECFE80463946E9
:104DF00001F0D2FD0490049801F034FD07464FF015
:104E00006632B54B01F082FB0ED3049801F02AFD07
:104E10000746B24AB24B01F009FC05D3B9F1000FC5
:104E200002D0BAF1000F1AD100264FF6FF724FF4EC
:104E300096714FF4E670FFF702FE1F221421084618
:104E4000FFF7FDFDA749049801F004FF804601F03B
:104E500081FE87B2394605A8FFF79BFEE9E1BDF860
:104E60001410BDF81C20881A002801DB014600E060
:104E700041420C46BDF81620BDF81E10501A0028FD
:104E800001DB014600E041420D4664436D43601979
:104E900001F029FBCDE9000101F0C5FA074601F058
:104EA000F5FA1FFA80F9BDF81810BDF82020881A0D
:104EB000002801DB014600E041420C46BDF81A2003
:104EC000BDF82210501A002801DB014600E04142E3
:104ED0000D4664436D43601901F005FBCDE9000107
:104EE00001F0A1FA074601F0D1FA1FFA80FA504604
:104EF00001F068FE0746484601F064FE80463946E8
:104F000001F04AFD0490049801F0ACFC07464FF014
:104F10006632714B01F0FAFA08D3049801F0A2FC52
:104F200007466E4A6E4B01F081FB1AD200264FF6FF
:104F3000FF724FF496714FF4E670FFF780FD1F2269
:104F400014210846FFF77BFD6649049801F082FEB4
:104F5000804601F0FFFD87B2394605A8FFF719FE2C
:104F600067E1BDF81810BDF81C20881A002801DB85
:104F7000014600E041420C46BDF81A20BDF81E1063
:104F8000501A002801DB014600E041420D4664430F
:104F90006D43601901F0A7FA074601F044FACDE924
:104FA000000101F073FA1FFA80F9BDF81410BDF882
:104FB0002020881A002801DB014600E041420C460F
:104FC000BDF81620BDF82210501A002801DB01465A
:104FD00000E041420D4664436D43601901F083FADD
:104FE000074601F020FACDE9000101F04FFA1FFA5F
:104FF00080FA504601F0E6FD0746484601F0E2FD22
:105000008046394601F0C8FC0490049801F02AFC5F
:1050100007464FF06632304B01F078FA08D3049817
:1050200001F020FC07462D4A2D4B01F0FFFA1AD261
:1050300000264FF6FF724FF496714FF4E670FFF7BB
:10504000FEFC1F2214210846FFF7F9FC25490498AD
:1050500001F000FE804601F07DFD87B2394605A8CB
:10506000FFF797FDE5E0BDF81810BDF81420881A89
:1050700001F090FD074639461B4801F08DFC1549AB
:105080008861BDF81810BDF81420881801F082FD61
:10509000009010488169009801F0DCFD13490190EF
:1050A00001F0D5FE80464FF0804101F075FC0746C7
:1050B00001F034FD00B207490884BDF81E10BDF8A8
:1050C0001620881A01F066FD07463946084801F0A7
:1050D00063FC0FE0400000206666EE3FCDCCCCCCF8
:1050E000CCCCF03F0000C8420000DC430000F0439D
:1050F00000008C43F749C861BDF81E10BDF81620AA
:10510000881801F047FD0090F248C169009801F04D
:10511000A1FDF149019001F09AFE80464FF08041D7
:1051200001F03AFC074601F0F9FC00B2E949488475
:10513000886901F0F3FCB0F1000801DB404601E0B2
:10514000C8F1000002280ADCE249C86901F0E6FC67
:10515000071E01DB384600E07842022834DD0026D5
:105160004FF6FF70FEF7FCFC02ABDCA27821642056
:10517000FFF7DBF84FF6FF724FF496714FF4E670CD
:10518000FFF75DFC1F2214210846FFF758FCD148A9
:1051900090F8240008B9012000E00020CD4981F8F2
:1051A0002400084690F8240030B1902081F82500B2
:1051B000D02081F8260006E0D020C64981F82500DD
:1051C000902081F8260034E04FF6FF70FEF7C8FC0F
:1051D00002ABC9A278216420FFF7A7F84FF47A70D8
:1051E000FDF770FE4FF6FF70FEF7BAFC002009B025
:1051F000BDE8F08F00BF0A20FDF764FE0BF101004F
:105200001FFA80FBBBF57A7F12DD4FF6FF70FEF7C9
:10521000A7FC02ABBCA278216420FFF786F84FF40C
:105220007A70FDF74FFE4FF6FF70FEF799FC01E034
:1052300000BFEBE400BF0020D9E770B5B748806934
:1052400040F00800B54988610846806940F0800058
:105250008861B348006820F47F60B149086008465F
:10526000006840F44C700860AD480C30006840F0B5
:105270000600AB490C310860AA4800686FF30B00C8
:10528000A84908600846006840F638010843A54967
:105290000860A4480830006840F4E060A149083183
:1052A00008608C491231881EFFF754FB4FF6FF70DF
:1052B000FEF756FC8749886901F0D4FA04469A4AF9
:1052C0009A4B01F0B3F910D28249886901F0CAFA09
:1052D0000446954A964B01F019F906D2FFF776FC81
:1052E00008B9002070BD0120FCE70020FAE70EB5E8
:1052F0001F20ADF8040010208DF8080001208DF863
:10530000090000208DF80A001F20ADF8040001A854
:1053100010232022002100900846FEF751FF4FF491
:105320007840ADF8040001A810232022002100904D
:105330001046FEF745FF4FF4FC60ADF8040001A8ED
:1053400010232022002100904020FEF739FF00208A
:10535000ADF8040001A81023202200210090602055
:10536000FEF72EFF40F2FF70ADF8040001A81023F5
:105370002022002100908020FEF722FF4FF6E070EF
:10538000ADF8040001A81023202200210090A020E5
:10539000FEF716FF4FF6FF70ADF8040001A81023CA
:1053A000202200210090C020FEF70AFF4FF4784031
:1053B000ADF8040001AB5FA200214FF4E070FEF7EE
:1053C000B4FF0EBD0EB51F20ADF8040010208DF8FF
:1053D000080001208DF8090000208DF80A00FFF771
:1053E00086FFC9E03B4841680120884700286FD00C
:1053F0003849B1F9200001F0CDFB80463549088AD3
:1054000001F0E0FB814633488169484601F022FC07
:105410000746414601F052FA064601F09BFB84B272
:105420002C49B1F9220001F0B5FB80462949488A90
:1054300001F0C8FB81462748C169484601F00AFCD3
:105440000746414601F03AFA064601F083FB85B271
:10545000B4F5F07F09DAB5F5A07F06DA102D05DD89
:1054600001AA29462046FEF7ABFF85E0B4F5E07FB0
:105470000EDD4FF6FF70ADF8040001A84FF49B73EA
:105480004FF4F072112100900020FEF799FE73E0B6
:10549000202C03DA1F20ADF804006DE0202C06DD7F
:1054A000402C04DA4FF47840ADF8040064E0402C5E
:1054B00006DD602C04DA4FF4FC60ADF804005BE01C
:1054C000602C3BDD802C39DA0020ADF8040053E07D
:1054D0004FE00000400000200000A043CEB4CDEA21
:1054E000B3C9D0A3D1E9A3ACC7EBD6D8D0C2B2D947
:1054F000D7F7A3A100000000C6C1C4BBD0A3D1E967
:10550000CDEAB3C921000000C6C1C4BBD0A3D1E914
:10551000B2D9D7F7B3ACCAB1A3A1000000100240C2
:10552000000C0140041C01408DEDB5A0F7C6B0BED3
:10553000F7C6B03EC7E5C6C100000000802C06DDFE
:10554000A02C04DA40F2FF70ADF8040014E0A02CA7
:1055500006DDC02C04DA4FF6E070ADF804000BE075
:10556000C02C09DDE02C07DA4FF6FF70ADF804001F
:1055700002E00A20FDF7A6FC34E70000FE480088A0
:1055800000F0010068B1FC48008820F00100FA49F1
:105590000880FA48006808B9012000E00020F749B7
:1055A0000860704770B505460C46F548C06940F084
:1055B0000200F349C861F0481C300580001F0480D8
:1055C000ED481038008820F48070EB4910390880CD
:1055D0000846008820F010000880E748001F008877
:1055E00040F04100E449091F08801D2303220021E7
:1055F0000220FEF7DDF8E0481038008840F0010096
:10560000DD491039088070BDDD4AD26942F00202DE
:10561000DB4BDA611A46926942F009029A61D94A73
:10562000126822F47002D74B1A601A46126842F4CC
:1056300030021A60D24A926942F00102D04B9A615C
:10564000D14A526822F44062CF4B5A601A465268DF
:1056500042F400625A60C84A1C321080121F118046
:10566000C54A103A128822F48072C34B103B1A804C
:105670001A46128822F010021A80BF4A0832128895
:1056800042F4E042BC4B08331A801A46128842F4B6
:1056900000621A800022B84B28331A80B64A1032B2
:1056A0001288B54B10331A80B34A103A128842F070
:1056B0008002B14B103B1A801A46128842F0010258
:1056C0001A80704770B504460D46AD48C06940F079
:1056D0000800AB49C8610846806940F00400886151
:1056E0000120AA490860A94814380068A74914395C
:1056F00008600120A5490860A5480480001F0580B6
:10570000A3482C38008820F48070A1492C390880E7
:105710000846008820F0100008809D481438008852
:1057200040F001009A491439088099480C380088E3
:1057300020F0020096490C390880954814380088FA
:1057400020F00C009249143908800846008820F0A7
:10575000F00008808E482C38008840F001008C4909
:105760002C3908808A482030008840F0030088499E
:10577000203108803223002202210846FEF718F863
:1057800070BD8448007800F08000002861D1804816
:105790001C38008800F0010000B37D4820380088E4
:1057A00000F00100D0B17B48007800F04000A8B1C3
:1057B0007848007800F03F003F280AD1754800780B
:1057C00040F08000734908704FF6FF7072490880FE
:1057D00004E070480078401C6E4908706C481C3822
:1057E000008800F00200A0B369482038008800F06B
:1057F000020070B36748007800F0400098B1654837
:10580000007840F0800063490870614808300088E3
:10581000614908805E480C38008820F002005C492D
:105820000C39088015E000205A4908705A49088050
:105830005749083908805748007840F040005549DA
:10584000087053480C38008840F0020050490C3969
:1058500008804FF6FC704E491C3908807047484A52
:10586000D26942F00402464BDA611A46926942F06C
:1058700008029A61434A126842F00062414B1A6082
:105880001A46126842F040721A60444A1080121F91
:105890001180424A2C3A128822F480723F4B2C3BF2
:1058A0001A801A46128822F010021A803B4A143AD3
:1058B000128842F07002394B143B1A801A46128843
:1058C00042F008021A800022344B08331A80334A0F
:1058D0000C3A128842F00202304B0C3B1A801A46F6
:1058E000128842F001021A80704710B52C48008AD5
:1058F00000F0010088B12148001D006808B90120AE
:1059000000E000201D49091D08602648017826A0F6
:1059100000F0D2FB0020234908702148008A20F0C3
:1059200001001F49088210BD70B505460C46144899
:10593000C06940F010001249C86119488585048586
:10594000008820F48070164908800846008820F0FE
:10595000100008800846808940F0010088810846D0
:10596000008840F001000880322303220121022038
:10597000FDF71EFF70BD00001004004084012242AC
:1059800000100240000C01400000014014080140DA
:105990002C0C0040680000206A0000202C08004009
:1059A000001000406C0000206672616D653A25644D
:1059B0006670730D0A0000002748806940F40050AB
:1059C000254988610846806940F0080088612348BD
:1059D000006820F00F00214908600846006840F088
:1059E0000B0008601D480C30006840F001001B49A6
:1059F0000C3108606E201A4908800020091F0880B9
:105A000017481438008840F4E040154914390880DC
:105A10000846008840F40060088011480C3800886F
:105A200040F040000E490C3908800846008840F0DC
:105A3000800008800A481830008840F40040084977
:105A400018310880802006492C39088008460088D3
:105A500040F001000880704700100240000C014037
:105A60002C3401406248806940F00400604988613C
:105A70006048006820F0F0005E4908605C4880697A
:105A800040F400705A4988610846C06840F40070CC
:105A9000C8600846C06820F40070C86008464068C6
:105AA00020F4404048600846406840F400404860A8
:105AB00051480068514908404F490860084600684D
:105AC00008600846006820F480700860081D0068BF
:105AD00020F00200091D08600846006820F46020DC
