:020000040800F2
:1000000020070020F901000801020008030200088F
:1000100005020008070200080902000800000000AD
:100020000000000000000000000000000B020008BB
:100030000D020008000000000F0200081102000875
:10004000130200081302000813020008130200083C
:10005000130200081302000813020008130200082C
:100060001302000813020008D91400081302000844
:10007000130200081302000813020008130200080C
:1000800013020008130200081302000813020008FC
:10009000130200081302000813020008ED14000800
:1000A00013020008130200081302000813020008DC
:1000B000A119000813020008130200081302000827
:1000C00013020008130200081302000813020008BC
:1000D00013020008D51900081302000813020008D3
:1000E000C5140008130200081302000813020008D8
:1000F000130200081302000813020008130200088C
:1001000013020008C91600081302000813020008B1
:10011000130200081302000813020008130200086B
:10012000130200081302000813020008130200085B
:1001300000F002F800F050F80AA090E8000C8244A9
:100140008344AAF10107DA4501D100F045F8AFF286
:10015000090EBAE80F0013F0010F18BFFB1A43F0A5
:1001600001031847D0EE0000F0EE0000103A24BF63
:1001700078C878C1FAD8520724BF30C830C144BF0C
:1001800004680C607047000000230024002500264E
:10019000103A28BF78C1FBD8520728BF30C148BFEA
:1001A0000B607047662904F04A83642900F07A8066
:1001B000782900F0B380632900F0F68300207047AF
:1001C0001FB500F00FFC04000020002103F086FAA8
:1001D000E0601FBD10B510BD00F020FD1146FFF717
:1001E000EFFF02F00DFC00F03EFD03B4FFF7F2FF5D
:1001F00003BC01F082FC0000094880470948004721
:10020000FEE7FEE7FEE7FEE7FEE7FEE7FEE7FEE7C6
:10021000FEE7FEE704480549054A064B7047000023
:1002200041190008310100082001002020070020AA
:1002300020030020200300200FB4044910B503AAB6
:10024000029800F0BDFB10BC5DF814FB48000020D4
:1002500070B50C460546012A05D02878800600D5E1
:10026000EA69002302E0012305E05B1C934202D20D
:10027000E05C0028F9D1A869E618C01AA861286ACC
:10028000184428622846AFF3008004E0D5E9012134
:1002900014F8010B9047B442F8D32846AFF300801E
:1002A00070BD00002DE9F041064600241068752954
:1002B000314616A510D0AFF30080002802DA404284
:1002C00013A507E031688A0701D512A502E04907A6
:1002D00004D511A5012401E0AFF3008000210A221A
:1002E00006F1240709E0B0FBF2FCB0FBF2F302FBDD
:1002F0001C00303078541846491C0028F3D123469E
:100300002A463046BDE8F04100F0DEB800000000AB
:100310002D0000002B0000002000000070B50446F6
:100320000D4621461068AFF300802188090502D5EB
:100330000F4A7A4402E00E4A7A440E32002104F158
:10034000240305E000F00F060009965D5E54491C89
:100350000028F7D120780023000704D5702D02D0A3
:1003600009B1022311322046BDE8704000F0ACB85C
:1003700030EC00002DE9F05F894604464FF0000A9A
:10038000DFF824B1FB44C0F820A02046E16888478C
:1003900000287DD0252806D0D4E901219047206A85
:1003A000401C2062F1E700255F462046E16888474F
:1003B0002028064607DB312E05D2B81910F8200C8C
:1003C00008B10543F1E7A80701D525F00405C4F8F5
:1003D0001CA00027C4F818A02A2E09D0304601F02E
:1003E00085FB38B304EB8708303EC8F8186019E085
:1003F00059F8041B204604EB87029161E1688847A5
:10040000012F064618D1E069002820DA25F02005E2
:100410001DE0D8F8180000EB800006EB40003038F3
:10042000C8F818002046E1688847064601F05EFBE0
:100430000028EED1012F0AD02E2E08D12046E168E7
:1004400088477F1C0646022F45F02005C4DBA069C3
:10045000002803DA404245F00105A061E80701D019
:1004600025F01005A6B1A6F14100192802D82036C2
:1004700045F400654A463146204625604D46FFF763
:1004800091FE60B1012807D0ED1D25F0070000E0C6
:1004900007E000F1080978E705F1040975E730463F
:1004A0007AE7206ABDE8F09F06EC000070477047CD
:1004B000704710B500F09AFA006810BD10B50446F8
:1004C00000F094FA046010BD2DE9F0470D469946FE
:1004D0009246044600F124080168880604D5E069C4
:1004E00021F01001216000E00120A84201DD471B3E
:1004F00000E00027A1697A1902EB0900081AA0613F
:100500002078C00602D42046AFF30080002608E021
:10051000D4E901211AF806009047206A401C761C95
:1005200020624E45F4DB2078C0060AD52046AFF3A2
:10053000008006E0D4E9012130209047206A401C69
:100540002062381EA7F10107F4DC07E0D4E901219D
:1005500018F805009047206A401C2062281EA5F16B
:100560000105F3DC2046AFF300802078000602D5B9
:100570000220BDE8F0870120FBE770472DE9FF4F1F
:100580000C461E464FF0FF378BB0D2E90001DDF874
:1005900060800A908A46C1F30A5505B93D4600219C
:1005A00008464FF00000BAF1000F00F4400005DAF1
:1005B00000EB80004FF4400101EA50004FEA9059EF
:1005C000B9F1010F00DDB9460A9850EA4A000ED091
:1005D00044F61050A5F2FF3545432F14B8F1000F33
:1005E0001ED07542291E1EDDC9F100021CE0B8F1C3
:1005F000010F4FF0000001D0302103E0F24305E08D
:100600002154401CB042FBDB304600220021215423
:100610000B99C1F80880C1E900200FB0BDE8F08F48
:10062000BD1B6D1CDEE74A4600DA694206A800F0F1
:100630007FFA06AB93E8070003AB83E80700504658
:100640000A9900F057FB8DE80700A0F500501F380D
:1006500000900398002D09DD42F21F014A4608442C
:1006600003A90390684600F0B6FD08E0A0F500502D
:100670004A461F3803A90390684600F0C0FD8DE884
:1006800007000004000C03D04FF0FF30410800E0E9
:100690001046B8F1000F03D00022009215461EE06C
:1006A000751E05D400F0A6F9303262556D1EF9D5DD
:1006B000B3460122084302D000227F1C04E02078C8
:1006C000302801D100227F1E002A099786D01DE024
:1006D000112D07DA00F08EF9303262556D1C50EAA8
:1006E0000102F5D1084302D00098C8B10EE0002104
:1006F000681E05E0235C625C63542254401E491C62
:100700008142F7DBAB46A81B401E0990002004F88D
:100710000B000B98099AC0F80880C0E9002B7CE711
:1007200011264FF0000859E72DE9F04F884604469E
:10073000D21D22F0070191B0D1E90001CDE90A01F3
:1007400001F062F902460B98C00F01D02D2007E09E
:100750002068810701D52B2002E0202101EAC0009A
:10076000032A099001D0072A05DB034641462046AB
:1007700000F09EF90BE12078800601D5E06900E0E9
:100780000620B8F1650F814606D0B8F1660F18D083
:10079000B8F1670F70D131E00020B9F1110F00906E
:1007A00001DB112301E009F101030AAA01A90CA848
:1007B000FFF7E4FEDDE90C70002609F10105834630
:1007C00047E001204B4600904FF000470AAA01A9DC
:1007D0000CA8FFF7D3FEDDE90DB00C995D460026AD
:1007E00010B909F101000D18B9EB050003D4C0F1EF
:1007F000FF3609F10105A5EB09002BE0B9F1010F66
:1008000001DA4FF001090020B9F1110F00904846BC
:1008100001DD112300E003460AAA01A90CA8FFF795
:10082000ADFEDDE90C704D460026834620780007BA
:100830000AD4AB4500DA5D4601A8012D04DD41195B
:1008400011F8011C302907D04F4502DA17F1040FC7
:1008500004DA012082460FE06D1EEEE7002F02DC75
:10086000ED1B3E4403E0781CA84200DD7D1CB81B54
:1008700000F1010A4FF000472078000703D4AA4591
:1008800001DB4FF0FF3A0021B7F1004F0DF14308B3
:100890008DF8431024D002202B23002F01DA7F4251
:1008A0002D230A21021EA0F1010000DC5FB197FB9D
:1008B000F1FC97FBF1F201FB1C7C17460CF1300CAC
:1008C00008F801CDEEE7A8F10100037021880905C1
:1008D00001D5452100E06521A0F1010800F8011CC7
:1008E00009980FA9A1EB0807FF1D00B101204119CC
:1008F00001EBEA70A1693844081A401EA061207813
:10090000C00602D42046AFF30080099828B1D4E98C
:1009100001219047206A401C20622078C00622D521
:100920002046AFF300801EE0002E04DBB34502DD5D
:1009300001A8805D00E03020D4E901219047206AC1
:10094000401C2062761CAAF101005FEA000A0AD16D
:1009500000F048F8C0680168405CD4E90121904784
:10096000206A401C2062281EA5F10105DCDC07E09E
:10097000D4E9012118F8010B9047206A401C20623D
:10098000381EA7F10107F3DC2046AFF300800320F7
:1009900011B043E610B5436913B1AFF3008001E035
:1009A000FFF756FC012010BD127800F124010A70F7
:1009B00000224A700122EDE711684FF0FF32E9E7AB
:1009C000074B70B50D467B4400F05FF8044628469F
:1009D00000F01CF910B14FF0FF3070BD204670BD23
:1009E000531C000000487047DC000020004870479E
:1009F000BC00002030B5B0F10A024FEA900E71F150
:100A000000034EEA817EB0EB0E0061EB91014FEAEC
:100A1000101E4EEA017E10EB0E0041EB11114FEA61
:100A2000102E4EEA016E10EB0E0041EB11214FEA41
:100A3000104E4EEA014E10EB0E0041EB11414018F2
:100A400041F100014FEAD00040EA41704FEAD10184
:100A500010EB80054FEA810444EA907444EB0104F2
:100A60006D1944EB0404521BA3414FF0000348BF2F
:100A70000A3200D530BD401C41F1000130BD0000FC
:100A800001694A1C02610878704700B58FB0CDE952
:100A900001310021059105497944CDE90310114642
:100AA0006846FFF767FC0FB000BD0000E5FFFFFFE1
:100AB0002DE9F0411F46044603260168072A01F488
:100AC000006004DB08B116A505E016A503E008B137
:100AD00015A500E015A521F010002060A069C01E3A
:100AE000A0610FB1401EA0612046AFF300804FB15E
:100AF000D4E9012138469047206A401C2062C01C7E
:100B0000206206E0206AFAE7D4E9012115F8010B1A
:100B10009047761EF8D22046AFF30080BDE8F08102
:100B20004E414E006E616E00494E4600696E660091
:100B30002DE9F047814616468AB0334878440DC8FF
:100B40008DE80D0030487844801C03AC0DC884E863
:100B50000D0041F69B300844372190FBF1F290FBE9
:100B6000F1F5A5F1800501FB12041B3C02D564429E
:100B7000012000E00020DFF890A080460027FA4422
:100B8000AAF1BE0A0DE0E00709D03246684607EB3D
:100B900047010AEB810100F032FB8DE80700641089
:100BA0007F1C002CEFD1184F7F44AC3F18E0E807C2
:100BB00014D007EB04100DF1180A90E80E008AE833
:100BC0000E00C068F04201D198190890324606A97B
:100BD00003A800F014FB03AB83E807006D10641C4E
:100BE000002DE4D132466946B8F1000F03A802D0C7
:100BF00000F0F1FA01E000F002FBC9E90001C9F8D8
:100C000008200AB0BDE8F087DCE40000007B00F0BB
:100C10008000704700487047BC0000207546FFF711
:100C2000F9FFAE4605006946534620F007008546A9
:100C300018B020B5FFF7EEFABDE820404FF00006EF
:100C40004FF000074FF000084FF0000B21F00701B4
:100C5000AC46ACE8C009ACE8C009ACE8C009ACE8F7
:100C6000C0098D4670470446AFF300802046FFF769
:100C7000BCFA00004FF0013C50F8042B51F8043B43
:100C80009A4221D1A2EB0C03934313EACC1317D160
:100C900050F8042B51F8043B9A4215D1A2EB0C03F7
:100CA000934313EACC130BD150F8042B51F8043BB7
:100CB0009A4209D1A2EB0C03934313EACC13DBD085
:100CC0004FF00000704700BFD01A01BAB1FA81F1AD
:100CD00001F0180122FA01F0CB40C1F12001DBB292
:100CE000C0B2C01A2CFA01F3D11A914311EAC31110
:100CF000E6D170475FEA400C08BF91F0000F4FEA61
:100D00008C234FEAC12243EA51514FEA1C5018BFCD
:100D100000F5F0404FEA300018BF41F000415FEAB3
:100D20006C5C00F02980BCF1FF3F08BF40F08040C0
:100D30007047130C06BF12044FF0100C4FF0000C5C
:100D4000130E04BF12020CF1080C130F04BF1201A2
:100D50000CF1040C930F04BF92000CF1020CD30FA2
:100D600004BF52000CF1010C11464FF00002A0F13B
:100D70001F00A0EB0C00704711F0004F08BF704738
:100D800031F000413FF4D5AF0B0C06BF09044FF022
:100D9000100C4FF0000C0B0E04BF09020CF1080CF4
:100DA0000B0F04BF09010CF1040C8B0F04BF890069
:100DB0000CF1020CCB0F04BF49000CF1010CCCF17B
:100DC0002003A0EB0C0022FA03F302FA0CF241EA32
:100DD000030100F10100704720F07F4C80EA03001E
:100DE00023F07F47ACEB070303F57C5300F0004092
:100DF00003F1FF032DE980494FEA154B09B44FEA8F
:100E0000144325EA0B4E24EA03480FF2042606EBAE
:100E1000132749083E785FEA320203FB0667C7F5ED
:100E2000000707FB06F64FEA54374FEAD64606F1AD
:100E3000020607FB066CCCF1005C4FEA1C472CEA6B
:100E4000074C07FB06F40CFB06F504EB15464FEACE
:100E5000961634BF00204FF000404FEAD13706FB12
:100E600007FC4FEA1C4C0CFB0BF7D21B03FB0CF7E7
:100E700061EB07010CFB0EF7B0EB074072EB17427A
:100E80000CFB08F734BFA2EB0742B2EB074261EB61
:100E900017414FEA0C444FEA910706FB07FC4FEA63
:100EA0001C4C0CFB0BF7B0EBC74072EB573203FB4B
:100EB0000CF734BFA2EBC742B2EBC74261EB57312C
:100EC0000CFB0EF7B0EBC70072EB57720CFB08F788
:100ED00034BFA2EBC702B2EBC70261EB5771039FAD
:100EE0004FEA816141EA921104EBCC044FEAD13719
:100EF0004FEA826206FB07FC42EA90124FEA8060EA
:100F00004FEA1C4C0CFB0BF7D21B03FB0CF761EBFD
:100F100007010CFB0EF7B0EB074072EB17420CFB1E
:100F200008F734BFA2EB0742B2EB074261EB17416F
:100F30004FEA8C554FEA910704EB9C2406FB07FC13
:100F40004FEA1C4C0CFB0BF7B0EBC74072EB57326F
:100F500003FB0CF734BFA2EBC742B2EBC74261EB15
:100F600057310CFB0EF7B0EBC70072EB57720CFB5E
:100F700008F734BFA2EBC702B2EBC70261EB5771AF
:100F800015EB4C254FEA816141EA92114FEA8262EA
:100F90004FEAD13742EA901206FB07FC44F1000405
:100FA0004FEA80604FEA1C4C0CFB0BF7D21B03FB93
:100FB0000CF761EB07010CFB0EF7B0EB074072EB8F
:100FC00017420CFB08F734BFA2EB0742B2EB074213
:100FD00061EB174115EB1C154FEA813141EA924153
:100FE0004FEA823242EA90424FEA80304FEA0C7672
:100FF00044F1000448EA03434EEA0B484FF0000E68
:10100000B2EB080C71EB030724BF624639464EEB86
:101010000E0E4FF0000B0018524149414BEB0B0BE9
:10102000B2EB080C71EB03077BF1000B24BF6246A7
:1010300039464EEB0E0E4FF0000B0018524149415D
:101040004BEB0B0BB2EB080C71EB03077BF1000BC6
:1010500024BF624639464EEB0E0E51EA020718BF16
:1010600046F0010616EB0E7655F1000254F1000130
:1010700003D5BDE88901BDE80088BDE88901BDE868
:101080000048B619524141EB0101A3F10103704739
:1010900080807F7E7D7C7B7A7978777676757473B5
:1010A000727171706F6E6E6D6C6C6B6A6A69686874
:1010B000676666656464636362616160605F5F5E0A
:1010C0005E5D5D5C5C5B5B5A5A5959585857575680
:1010D00056555555545453535252525151505050E5
:1010E0004F4F4F4E4E4D4D4D4C4C4C4B4B4B4A4A37
:1010F0004A4949494848484747474746464645457B
:1011000045444444444343434342424242414141B3
:10111000002B26D4770021D01CB54FEA370703B443
:101120004FF010004FF010014FF000000FBCBDE871
:1011300010400BF1010BBBF1010F08BF5FEA17076D
:1011400022BF12F1010211F101014FF0004143F100
:10115000000300F0004043EA00007047F9D357084D
:10116000DAE746EA064613F1400F4FEA16461FDD5E
:1011700013F1200FDFBF16430A46002120335B42E4
:10118000C8D0C3F1200746EA064602FA07F74FEA3D
:10119000164646EA0706C3F1200722FA03F201FACF
:1011A00007F721FA03F14FF0000342EA0702B1E723
:1011B00046EA020646EA06464FEA164646EA0106AF
:1011C000BCBF46EA0646360C4FF000034FF0000263
:1011D0004FF000019EE72DE9C048934630B491E8F6
:1011E000380007C831EA400C48BF34EA430C03D545
:1011F000FFF7F2FDFFF78CFFF0BCBDE800882DE99A
:10120000C048934630B491E8380007C810F0804FCA
:1012100008BF13F0804F03D100F005F8FFF778FF07
:10122000F0BCBDE8008820F07F4780EA030023F08F
:101230007F4C07EB0C03A3F57C5300F00040A3F1B7
:10124000FE0392F0000F00F0B38095F0000F00F065
:1012500077802DE901494FEA11404FEA144621EA0F
:10126000004800FB06FC24EA064708FB06F607FBDD
:1012700008F800FB07F718EB06484CEB164C4FEA52
:10128000124B18EB07484FEA15464CEB174022EA81
:101290000B4E0BFB06FC25EA06470EFB06F607FB8A
:1012A0000EFE0BFB07F71EEB064E4CEB164C4FF0F9
:1012B00000061EEB074E4CEB174B18EB0B0840F1EA
:1012C000000018EB0E0B58EB000840F100008F1ADD
:1012D0004FF000013CBFC943661B14BFB5EB040CC3
:1012E00000213CBFC943F61B4FEA17444EEA8E0E5D
:1012F00027EA04454FEA1C4704FB07622CEA074C27
:1013000005FB07F70CFB05F604FB0CFC16EB074688
:1013100042EB174216EB0C4642EB1C421BEB060657
:1013200058EB0202414146EA9E0601D5BDE801891B
:10133000B619524141EB0101A3F10103BDE8018956
:101340004FEA14454FEA114724EA054621EA074CC3
:1013500005FB07F406FB07F70CFB06F105FB0CFC8D
:1013600011EB074144EB17444FEA124711EB0C41D4
:1013700044EB1C4422EA074C05FB07F206FB07F787
:101380000CFB06F605FB0CFC16EB074642EB17427E
:1013900016EB0C4642EB1C456A1854F1000148BF9D
:1013A0007047B619524141EB0101A3F101037047A7
:1013B00095F0000F37D04FEA11424FEA144721EA67
:1013C000024624EA074C02FB07F106FB07F70CFB79
:1013D00006F402FB0CFC14EB074441EB17414FEA07
:1013E000154714EB0C4441EB1C4125EA074C02FB6A
:1013F00007F506FB07F70CFB06F602FB0CFC16EBE9
:10140000074645EB174516EB0C4645EB1C421219F7
:1014100051F1000148BF7047B619524141EB01013B
:10142000A3F1010370474FEA14454FEA114724EA3C
:10143000054621EA074C05FB07F106FB07F70CFB05
:1014400006F24FF0000605FB0CFC12EB074241EBE5
:10145000174112EB0C4251EB1C4148BF70479218E8
:1014600041EB0101A3F1010370470000024605E0D2
:101470001348416B01F0450000B100E0F8E700BF00
:1014800001F0040020B104200D4B98630320704745
:1014900001F0010018B10120094B9863F7E70848F3
:1014A0000069904201D01020F1E740F2FF50044B58
:1014B00098631846406908231840C0B2E7E7000067
:1014C000008001400348006840F400600149086062
:1014D00070470000140401400348006840F0100009
:1014E00001490860704700001404014010488068FA
:1014F00000F0400028B90F48006840F040000D4956
:1015000008600B48806800F0800028B9094800682E
:1015100040F08000074908600548806800F40070CA
:1015200028B90448006840F4007002490860704718
:1015300000200140140401404C48406940F4807090
:101540004A4948610846806940F4F070886148481B
:1015500000680020464908600846006840F0BB303B
:101560000860081F006800F0FF20091F0860084697
:10157000006840F0BB1008603E48006800203D490C
:1015800008600846006840F0BB300860081F00682B
:10159000394908403749091F08600846006837493B
:1015A00008433449091F08603548006880B234494F
:1015B0000860084600683349084331490860081F3D
:1015C000006800F07F40091F0860084600682E4947
:1015D00008432B49091F08602C48406820F47060BC
:1015E0002A4948600846406840F430604860084630
:1015F000006800F07F400860084600682249084300
:101600002249086000204FF02041086148612049CC
:101610000860C806006940F48040C90608610846B1
:10162000006940F4805008610846006940F01000ED
:101630000861084600690861084640694861084633
:10164000406940F4007048610846406940F001007C
:1016500048610846D0F8140140F44070C1F8140104
:101660000846006940F00100086170470010024020
:10167000041401400418014000FFFF0FBB0000B03C
:10168000041C01400000BBBBBBBBBB0000200140F1
:10169000140100A001480088704700000008006C99
:1016A00001490880704700000008006C014908806B
:1016B00070470000FE07006C024A1080921C1180E7
:1016C00070470000FE07006C00B500F021F800BD77
:1016D00010B50E4B9A60DB686FF30A030B4CE360A6
:1016E0002346DB6800F03F042343084CE3602346B5
:1016F000DB6843EA8113E3602346DB68E36023464B
:10170000DB6843F48063E36010BD000000800140AB
:1017100000B54D48406B00F4807020B34B48007812
:1017200001280AD1002201210C20FFF7D1FF0C2053
:10173000FFF79CFE4649087002E00020444908700B
:101740004148806B40F480703F4988630846C06B15
:101750004CF23A3188433C49C86301203D49087046
:101760003B48007800BD3848406B00F0020080B173
:101770003548806B40F00200334988630846C06BEF
:101780004CF23A3188433049C8630220304908702E
:10179000E8E72D48406B00F0080080B12A48806BD4
:1017A00040F00800284988630846C06B4CF23A3183
:1017B00088432549C863042025490870D2E7224898
:1017C000406B00F0200080B11F48806B40F020008B
:1017D0001D4988630846C06B4CF23A3188431A4968
:1017E000C86306201A490870BCE71748406B00F030
:1017F000100080B11448806B40F0100012498863DB
:101800000846C06B4CF23A3188430F49C863052043
:101810000F490870A6E70C48406B00F4007080B1D7
:101820000948806B40F40070074988630846C06B24
:101830004CF23A3188430449C863072004490870D0
:1018400090E700208EE70000008001401900002092
:101850001A0000201B00002010B500F001F810BD98
:101860000CB50020019000903348006840F48030AF
:101870003149086000BF3048006800F40030009033
:101880000198401C0190009818B90198B0F5A06F1C
:10189000F1D12948006800F4003010B10120009017
:1018A00001E0002000900098012843D123480068FF
:1018B00040F01000214908600846006820F003004D
:1018C00008600846006840F0020008601A48406856
:1018D000194948600846406848600846406840F436
:1018E000806048600846406820F47C1048600846E4
:1018F000406840F4E81048600846006840F0807096
:10190000086000BF0C48006800F000700028F9D0A3
:101910000948406820F003000749486008464068CD
:1019200040F00200486000BF0348406800F00C002F
:101930000828F9D10CBD0000001002400020024030
:1019400010B51348006840F00100114908600846CE
:101950004068104908400E494860084600680E4932
:1019600008400B4908600846006820F480200860A1
:101970000846406820F4FE0048604FF41F0088606D
:10198000FFF76AFF4FF000600449086010BD0000D7
:10199000001002400000FFF8FFFFF6FE08ED00E037
:1019A00010B50B48007828B101F05AF8002008491A
:1019B000087004E001F02AF80120054908704FF092
:1019C0008040008A20F001004FF08041088210BD65
:1019D0001C00002010B50648008800F0200030B13F
:1019E00001F06EFE0446214602A0FEF725FC10BD64
:1019F0000038014046726F6D20436F6D70757465DD
:101A0000723A25630A000000490050EAC12018BF5D
:101A100004204A0D18BF40F0010040F2FF72B2EB03
:101A2000515F08BF40F00200012808BF0520704741
:101A300000214FF0E0221161C21700EB5272D21068
:101A4000044B1A60194609684FF47A725143024AEE
:101A50001160704700000020040000200146104A79
:101A600012684A434FF0E0235A6100229A611A46F5
:101A7000126942F001021A6100BF4FF0E0221069C2
:101A800000F001021AB100F48032002AF5D04FF0C4
:101A9000E022126922F001024FF0E0231A61704740
:101AA000040000200146104A12684A434FF0E02328
:101AB0005A6100229A611A46126942F001021A61C3
:101AC00000BF4FF0E022106900F001021AB100F4EB
:101AD0008032002AF5D04FF0E022126922F0010294
:101AE0004FF0E0231A6170470000002030380A28C8
:101AF00001D20120704700207047014600BF7047A7
:101B000000B51348806940F4887011498861114814
:101B100000686FF30F000F4908600846006843F241
:101B2000333108430B4908600B48406820F07F6060
:101B3000094948600846406840F04C7048600720FA
:101B400000F06EFF00F062FF032000F071FF00BDA7
:101B500000100240001001400020014010B537483D
:101B6000406940F48070354948610846806940F416
:101B7000B47088613248006820F00F003049086076
:101B80000846006840F0030008602E48006800F036
:101B9000FF202C4908600846006840F0BB10086030
:101BA000081D0068284908402649091D08600846A4
:101BB0000068264908432349091D08602448006835
:101BC00020F07040224908600846006840F030402C
:101BD00008604FF0BB30091D08601E48006820F007
:101BE0000F001C4908600846006840F00B000860C0
:101BF0000846406820F4702048600846406840F479
:101C00003020486000204FF020418861C8611249AF
:101C1000086045F210004FF02041886140F60170E5
:101C2000C8614FF44070C1F81C010846806940F05B
:101C3000010088613220FFF711FF10BD0010024043
:101C4000000C01400014014000F0FF00BB0B00BB82
:101C500000180140002001401C0100A01A488069C2
:101C600040F48870184988611848006820F07F4067
:101C700016490860084640684FF2F001884313494E
:101C800048600846006840F0084008600846406820
:101C900048F2800108430D4948600846C06840F496
:101CA0002C60C8600A48006820F470200849086069
:101CB0000846006840F4002008600846C06840F00C
:101CC0001000C86070470000001002400020014072
:101CD000001001401CB50446084804800120CDE9ED
:101CE000004007484088401E83B205480088401ED7
:101CF00081B20022104600F005F81CBD0A00002049
:101D0000B00000202DE9F0410446DDE90657012F1F
:101D100048D14FF02A0CDFF83882A8F800C04FEA0B
:101D2000242C08F10208A8F800C0C446ACF8004012
:101D30004FEA212CA8F800C0C446ACF800104FF0C0
:101D40002B0CDFF80C82A8F800C04FEA222C08F117
:101D50000208A8F800C0C446ACF800204FEA232CC3
:101D6000A8F800C0C446ACF800304FF02C0CDFF8E7
:101D7000E081A8F800C0204611E0164609E0DFF82F
:101D8000D0C10CF1020CACF8005006F1010C1FFAA6
:101D90008CF69E42F3DD00F1010C1FFA8CF08842B4
:101DA000EBDDD3E04FF02A0CDFF8A481A8F800C0E7
:101DB0004FEA242C08F10208A8F800C0C446ACF889
:101DC00000404FEA212CA8F800C0C446ACF800102F
:101DD0004FF02B0CDFF87881A8F800C04FEA222CD6
:101DE00008F10208A8F800C0C446ACF800204FEA89
:101DF000222CA8F800C0C446ACF800204FF02C0CF0
:101E0000DFF84C81A8F800C0204609E0DFF840C1A7
:101E10000CF1020CACF8005000F1010C1FFA8CF030
:101E20008842F3DD4FF02B0CDFF82481A8F800C0C6
:101E30004FEA232C08F10208A8F800C0C446ACF809
:101E400000304FEA232CA8F800C0C446ACF800309C
:101E50004FF02C0CDFF8F880A8F800C0204609E00D
:101E6000DFF8ECC00CF1020CACF8005000F1010CF2
:101E70001FFA8CF08842F3DD4FF02B0CDFF8D08096
:101E8000A8F800C04FEA222C08F10208A8F800C008
:101E9000C446ACF800204FEA232CA8F800C0C44682
:101EA000ACF800304FF02A0CDFF8A480A8F800C08E
:101EB0004FEA242C08F10208A8F800C0C446ACF888
:101EC00000404FEA242CA8F800C0C446ACF80040FB
:101ED0004FF02C0CDFF87880A8F800C0104609E01D
:101EE000DFF86CC00CF1020CACF8005000F1010CF2
:101EF0001FFA8CF09842F3DD4FF02A0CDFF8508087
:101F0000A8F800C04FEA212C08F10208A8F800C088
:101F1000C446ACF800104FEA212CA8F800C0C44613
:101F2000ACF800104FF02C0CDFF82480A8F800C0AB
:101F3000104609E0DFF818C00CF1020CACF80050B4
:101F400000F1010C1FFA8CF09842F3DDBDE8F0813E
:101F5000FE07006C2DE9FE4F04460325207B022876
:101F60007ED1B4F9080000281DDDA0882189401A1F
:101F7000401E1FFA80F8B4F804A0E088401B1FFA46
:101F800080F9E0886188084428441FFA80FB01201A
:101F9000764909885B464A46CDE9001051464046DD
:101FA000FFF7B0FE25E0B4F90800002821DAA08888
:101FB000218808441FFA80F8A088218808442189D4
:101FC000401A401C1FFA80FAE088401B1FFA80F973
:101FD000E0886188084428441FFA80FB0120634997
:101FE00009885B464A46CDE9001051464046FFF756
:101FF00089FEB4F90A0000281DDDA088401B1FFAE5
:1020000080F8A0882188084428441FFA80FAE088D4
:102010006189401A401E1FFA80F9B4F806B0012009
:10202000524909885B464A46CDE900105146404670
:10203000FFF768FE27E0B4F90A00002823DAA08839
:10204000401B1FFA80F8A0882188084428441FFA02
:1020500080FAE088618808441FFA80F9E08800E08F
:1020600013E0618808446189401A401C1FFA80FB14
:1020700001203E4909885B464A46CDE90010514699
:102080004046FFF73FFEBDE8FE8F2A203849088012
:10209000A0880012891C088020790880A0882188E7
:1020A000084400123249891C0880207921780844AC
:1020B000C0B22F49891C08802B20891E0880E08827
:1020C0000012891C0880A0790880E0886188084493
:1020D00000122749891C0880A079A1780844C0B261
:1020E0002349891C08802C20891E0880207B90B9F8
:1020F00000260DE0002706E01C4800881C49891CCA
:102100000880781C87B22088B842F5DA701C86B245
:102110006088B042EEDC207B012824D100261FE03D
:10212000002718E0208806FB0070012202EB400027
:102130002169085C00020290208806FB007021697A
:1021400011F810000299084302900949891C02986D
:102150000880781C87B22088B842E3DA701C86B207
:102160006088B042DCDC00BF8DE700000A00002080
:10217000FE07006C70B5DDE9044542800180838074
:10218000C48000260681468101260673056170BD64
:1021900010B5FFF7E3FC0020A3498880B020FFF7CB
:1021A00085FA0020FFF77CFAD320FFF77FFAFFF7CC
:1021B00071FAFFF76FFAFFF76DFA9B4988800846BE
:1021C00080884FF6FF7101EA002097498880FFF769
:1021D00061FA95498988084393498880084681882F
:1021E00092A0FEF729F8C020FFF760FA0A20FFF757
:1021F00057FA0A20FFF754FAC120FFF757FA442094
:10220000FFF74EFAC520FFF751FA0020FFF748FA12
:102210000920FFF745FAB120FFF748FA9020FFF7B1
:102220003FFA1120FFF73CFAB420FFF73FFA0220F3
:10223000FFF736FAB720FFF739FAC620FFF730FA72
:10224000B620FFF733FA0020FFF72AFA2220FFF723
:1022500027FA3B20FFF724FAE020FFF727FA0020B7
:10226000FFF71EFA0420FFF71BFA0620FFF718FA03
:102270000220FFF715FA1120FFF712FA0C20FFF7E2
:102280000FFA3F20FFF70CFAAC20FFF709FA4F20B6
:10229000FFF706FA0920FFF703FA0E20FFF700FA0E
:1022A0000A20FFF7FDF92120FFF7FAF92420FFF7B4
:1022B000F7F90F20FFF7F4F9E120FFF7F7F9002015
:1022C000FFF7EEF91B20FFF7EBF91E20FFF7E8F907
:1022D0000520FFF7E5F91120FFF7E2F90620FFF7E7
:1022E000DFF93020FFF7DCF9FF20FFF7D9F94020B4
:1022F000FFF7D6F90320FFF7D3F90E20FFF7D0F947
:102300000D20FFF7CDF93920FFF7CAF93B20FFF781
:10231000C7F90F20FFF7C4F9F220FFF7C7F918201B
:10232000FFF7BEF9A320FFF7BBF91220FFF7B8F9BA
:102330000220FFF7B5F9B220FFF7B2F91220FFF73C
:10234000AFF9FF20FFF7ACF91020FFF7A9F9002043
:10235000FFF7A6F9F720FFF7A9F9A920FFF7A0F9E1
:102360009120FFF79DF92D20FFF79AF90A20FFF73A
:1023700097F94F20FFF794F9FB20FFF797F92120F9
:10238000FFF78EF90420FFF78BF93620FFF78EF95F
:102390000020FFF785F93A20FFF788F95520FFF76D
:1023A0007FF9F920FFF782F90020FFF779F908207B
:1023B000FFF776F9F420FFF779F90020FFF770F9BD
:1023C0000020FFF76DF90820FFF76AF99120FFF769
:1023D00067F90420FFF764F91120FFF767F9782007
:1023E000FFF73CFB2920FFF761F92A200E4908720C
:1023F0002B2048722C20C871002088714FF4A070E7
:1024000008804FF4F070488008213620FFF754F917
:102410000848006840F00100064908604EF6D360A5
:10242000FFF758FC10BD0000B000002025780D0A11
:10243000000000000C0C0140084A1070072222EA3C
:102440000000074A11684FF6FF02114041EA0021DF
:10245000044A1143024A1160704700000C0000203A
:102460000CED00E00000FA05F0B50346134E367897
:10247000C6F10406F4B2114E37780F2646FA07F576
:1024800003FA04F6F0B201EA050630430607300EFF
:102490000B4EB0545611B60006F1E026D6F8006196
:1024A00002F01F0C012707FA0CF73E435711BF003B
:1024B00007F1E027C7F80061F0BD00000C00002024
:1024C00000E400E02DE9F14F82B0029801F055FBE5
:1024D000804600222D4B01F09FFB064632460B46FC
:1024E00000202B4901F0C4F904460D462046294638
:1024F00001F016FB1FFA80FA504601F03EFB22461F
:102500002B46CDE9000101F0BBFC804600221F4BA9
:1025100001F082FB064601F003FB1FFA80FB0BEB88
:102520000A101FFA80FA1B48806944F2040108432C
:10253000184988611848006820F47F6016490860CF
:102540000846006840F0B00008600846006840F4A3
:102550000060086010480830006840F480600E4950
:10256000083108600D48A0F800A042F20C000B49A9
:10257000091D08800846008840F0200008802522B8
:1025800003210846FFF770FFBDE8FE8F00003040D2
:10259000882A914100100240040801400838014097
:1025A0007CB505460C4617482B4622221821CDE95A
:1025B00000401548FFF7DEFD1348FFF7CBFC322043
:1025C000FFF74CFA11482B4622221821CDE9004092
:1025D0000F48FFF7CFFD0E48FFF7BCFC3220FFF796
:1025E0003DFA0C482B4622221821CDE900400A482A
:1025F000FFF7C0FD0848FFF7ADFC3220FFF72EFAC9
:102600007CBD00000255000874000020A24E0008A6
:1026100088000020424800089C00002000BF054AB6
:10262000128802F04002002AF9D0024B1B1D1880CC
:1026300070470000003801408CB00220FFF7FCFE1C
:102640004820FFF7F5F9FFF75BFA4FF46140FFF719
:1026500039FF072000F00EFAFFF700FBFEF76CFFD2
:10266000FFF796FD00F0BEFD00F032FA4FF6FF7066
:10267000FFF730FB134896213223B222CDE9001038
:1026800030211148FFF776FD0F48FFF763FC0F4834
:10269000BE2173236822CDE900103A210C48FFF7D0
:1026A00069FD0B48FFF756FC0AE0DC21D220FFF75A
:1026B00077FFBDF81A20BDF8181006A0FDF7BCFD85
:1026C000F3E70000625B00084C000020229E000837
:1026D0006000002078203D2025642C79203D2025B5
:1026E000640000002DE9F84F80460C4617461D4651
:1026F0000094A7F12000C7B22879102802D0202822
:1027000006D102E04FF0100905E04FF0400902E069
:102710000120BDE8F88F00BF002644E0287910288A
:1027200002D020280CD105E0214800EB071010F85A
:1027300006B007E01F4800EB871010F806B001E074
:102740000120E6E700BF4FF0000A17E00BF0800021
:1027500020B12A462146404600F072F84FEA4B600D
:102760004FEA106B601C84B213484088A04201DA23
:102770000120CEE70AF1010000F0FF0ABAF1080FCC
:10278000E4DB0098201A297988420AD1009C08F1DC
:1027900001001FFA80F808480088404501DA01204E
:1027A000B7E7701CC6B24E45B8DB0020B1E70000A9
:1027B000B6D10008A6D70008B00000202DE9FE4FD2
:1027C00005460F4690469946A8450BD13E4606E081
:1027D000314628460C9A00F033F8701C86B24E45FC
:1027E000F6DD2BE0A8EB050001F0B2FE8346A9EB75
:1027F000070001F0ADFE5946029001F0ABFD8246A4
:102800002C4619E0384601F0BBFE0290601B01F037
:102810009FFE5146009001F0C7FE0190029901F021
:1028200037FD834601F074FE86B2314620460C9A8D
:1028300000F006F8601C84B24445E3DDBDE8FE8F7D
:1028400070B505460E4614463146284600F09AF803
:102850002C20034908802088891C088070BD000056
:10286000FE07006C2DE9F84F04460D4616461F463C
:10287000DDF8288006FB07FA98F80500012815D135
:10288000E819401E83B2A019401E82B22946204694
:1028900000F096F84FF0000905E0B8F8000018497C
:1028A000088009F10109D145F7D327E0A01982B2C8
:1028B0002B4629462046CDF80080FFF77FFFE81918
:1028C00083B2A01982B2E81981B22046CDF8008007
:1028D000FFF774FFE81983B2224629462046CDF857
:1028E0000080FFF76BFFE9198BB2A1198AB2A11919
:1028F00088B22946CDF80080FFF760FFBDE8F88F69
:102900000008006C2DE9F0410746884614461D4634
:1029100000262879102802D0202804D101E01026B2
:1029200004E0202602E00120BDE8F08100BF23E0A2
:10293000A87980B922782B4641463846FFF7D2FE67
:1029400008B10120F0E7304606EBD07107EB6101DA
:102950008FB2641C10E0A87901280DD122782B4693
:1029600041463846FFF7BEFE08B10120DCE7641C93
:1029700008EB06001FFA80F820780028D8D100BFA5
:10298000D2E700002A220D4B1A8002129B1C1A80EB
:102990001A46108002121A801A4610802B229B1EA3
:1029A0001A800A129B1C1A801A4611800A121A8079
:1029B0001A4611802C229B1E1A807047FE07006C5D
:1029C00030B52A240D4D2C800412AD1C2C802C46D1
:1029D000208014122C802C4622802B24AD1E2C80AB
:1029E0000C12AD1C2C802C4621801C122C802C46F5
:1029F00023802C24AD1E2C8030BD0000FE07006C0F
:102A000010B5FFF719FE002010BD00000348C06894
:102A100020F480400149C860704700000020014058
:102A20000249C9680143014AD16070470010014062
:102A300000F0010129B10849C96821F40051064A92
:102A4000D16000F0020129B10449C96821F00801F0
:102A5000024AD16070470000002001400010014090
:102A60000348C06840F480400149C86070470000D6
:102A7000002001400249C9688143014AD160704782
:102A8000001001402DE9F04106460F4601F004FA1E
:102A900004000D4618BF0120284320F00040C0F17B
:102AA0007F6000F1E040C00F0ED0301C18BF012045
:102AB000384320F00040C0F17F6000F1E040C00FDB
:102AC00004BF0120FDF7FAFC20462946BDE8F0814D
:102AD0002DE9F04F89B00026B3461F20ADF808005D
:102AE00010208DF80C0000BF4FF6FF70FFF7F2F8D2
:102AF0001F221421084600F03DFB02ABF3A278210F
:102B00006420FFF7FFFE0020FB4908758861EEE2B4
:102B1000F948416801208847F748007D00F0C0006F
:102B2000402873D14FF0000BF348007D20F04000A7
:102B3000F14908750846008A05A921F82600EE48E3
:102B4000408A01EB86014880701CC6B2012E06D077
:102B5000022E11D0032E1DD0042E0CD129E04FF6E9
:102B6000FF721421084600F005FB1F2214214FF4C8
:102B7000E67000F0FFFA9BE24FF6FF7214214FF46B
:102B8000E67000F0F7FA1F224FF49671142000F05F
:102B9000F1FA8DE24FF6FF724FF49671142000F0B7
:102BA000E9FA1F224FF496714FF4E67000F0E2FA52
:102BB0007EE2BDF81410BDF81820881A002801DB49
:102BC000014600E041420C46BDF81620BDF81A103F
:102BD000501A002801DB014600E041420D466443E3
:102BE0006D43601900F0C9FFCDE90001FFF74AFF0E
:102BF000074600F095FF1FFA80F9BDF81C10BDF8DC
:102C00002020881A002802DB014601E051E24142FF
:102C10000C46BDF81E20BDF82210501A002801DB1A
:102C2000014600E041420D4664436D43601900F0E7
:102C3000A4FFCDE90001FFF725FF074600F070FF74
:102C40001FFA80FA504601F09BFC0746484601F007
:102C500097FC8046394601F07DFB0490049801F012
:102C6000EBFA07464FF06632A44B00F099FF0ED303
:102C7000049801F0E1FA0746A14AA24B01F0CAF814
:102C800005D3B9F1000F02D0BAF1000F1AD1002616
:102C90004FF6FF724FF496714FF4E67000F06AFA47
:102CA0001F221421084600F065FA9749049801F0A4
:102CB0007BFC804601F02CFC87B2394605A800F069
:102CC000FBFA14E2BDF81410BDF81C20881A002885
:102CD00001DB014600E041420C46BDF81620BDF87C
:102CE0001E10501A002801DB014600E041420D464B
:102CF00064436D43601900F040FFCDE90001FFF728
:102D0000C1FE074600F00CFF1FFA80F9BDF818104D
:102D1000BDF82020881A002801DB014600E041426E
:102D20000C46BDF81A20BDF82210501A002801DB0D
:102D3000014600E041420D4664436D43601900F0D6
:102D40001CFFCDE90001FFF79DFE074600F0E8FEFD
:102D50001FFA80FA504601F013FC0746484601F07E
:102D60000FFC8046394601F0F5FA0490049801F012
:102D700063FA07464FF06632604B00F011FF08D34C
:102D8000049801F059FA07465D4A5E4B01F042F89B
:102D90001AD200264FF6FF724FF496714FF4E67088
:102DA00000F0E8F91F221421084600F0E3F9564923
:102DB000049801F0F9FB804601F0AAFB87B239467E
:102DC00005A800F079FA92E1BDF81810BDF81C20B2
:102DD000881A002801DB014600E041420C46BDF89C
:102DE0001A20BDF81E10501A002801DB014600E031
:102DF00041420D4664436D43601900F0BEFE074634
:102E0000FFF740FECDE9000100F08AFE1FFA80F9CD
:102E1000BDF81410BDF82020881A002801DB0146F7
:102E200000E041420C46BDF81620BDF82210501AB1
:102E3000002801DB014600E041420D4664436D433A
:102E4000601900F09AFE0746FFF71CFECDE900016D
:102E500000F066FE1FFA80FA504601F091FB07462B
:102E6000484601F08DFB8046394601F073FA049024
:102E7000049801F0E1F907464FF066321F4B00F06D
:102E80008FFE08D3049801F0D7F907461C4A1D4B62
:102E900000F0C0FF3AD200264FF6FF724FF4967151
:102EA0004FF4E67000F066F91F221421084600F086
:102EB00061F91549049801F077FB804601F028FB81
:102EC00087B2394605A800F0F7F910E1436C696351
:102ED0006B205468652041646A75737420506F6973
:102EE0006E7420546F2041646A75737420546F753A
:102EF0006368205061642E00200000206666EE3F6B
:102F0000CDCCCCCCCCCCF03F0000C842BDF81810E2
:102F1000BDF81420881A01F01BFB07463946764895
:102F200001F018FA75498861BDF81810BDF8142031
:102F3000881801F00DFB009070488169009801F03D
:102F400033FB6F49019001F0FBFB80464FF080415D
:102F500001F000FA074601F0BFFA00B267490884A1
:102F6000BDF81E10BDF81620881A01F0F1FA0746C8
:102F70003946644801F0EEF96049C861BDF81E1099
:102F8000BDF81620881801F0E3FA00905B48C1698B
:102F9000009801F009FB5C49019001F0D1FB8046EB
:102FA0004FF0804101F0D6F9074601F095FA00B2E2
:102FB00052494884886901F08FFAB0F1000801DBBA
:102FC000404601E0C8F1000002280ADC4B49C8690C
:102FD00001F082FA071E01DB384600E07842022841
:102FE00034DD00264FF6FF70FEF774FE02AB47A2F9
:102FF00078216420FFF786FC4FF6FF724FF496713C
:103000004FF4E67000F0B6F81F221421084600F0D5
:10301000B1F83A4890F8240008B9012000E00020F7
:10302000364981F82400084690F8240030B19020F9
:1030300081F82500D02081F8260006E0D0202F4915
:1030400081F82500902081F8260050E04FF6FF70AF
:10305000FEF740FE02AB34A278216420FFF752FC59
:103060002649886901F0E8F807462448B0F92000AD
:103070003A460B4600902FA0FDF7DEF81F49C869BD
:1030800001F0DAF807461D48B0F922003A460B462F
:1030900000902EA0FDF7D0F84FF47A70FEF7DEFC1A
:1030A0004FF6FF70FEF716FE002009B0BDE8F08F66
:1030B00000BF0A20FEF7D2FC0BF101001FFA80FBD3
:1030C000BBF57A7F12DD4FF6FF70FEF703FE02AB11
:1030D00024A278216420FFF715FC4FF47A70FEF7E4
:1030E000BDFC4FF6FF70FEF7F5FD01E000BF0FE5F8
:1030F00000BF0020D9E700000000DC4320000020D2
:103100000000F04300008C430000A04341646A7556
:103110007374204661696C65642C20547279204177
:103120006761696E2100000041646A757374204F05
:103130004B210000786661633A2025662C20786F69
:1031400066663A2025640D0A000000007966616316
:103150003A2025662C20796F66663A2025640D0A90
:103160000000000041646A7573742074696D656FB6
:1031700075742E00FEB504460D461646ADF8046083
:1031800001208DF8090001A86A1E91B2621E00900C
:1031900090B203231A46FFF765FB01A804F10F0163
:1031A0008AB21E39009088B22B462946FFF706FBEB
:1031B00001A8009005F10F0083B21E3881B22246AB
:1031C0002046FFF7FBFA00208DF8090001A86A1FCE
:1031D00091B2621F009090B20B231A46FFF742FB98
:1031E000FEBD000070B52D48806940F008002B49F5
:1031F00088610846806940F080008861284800683E
:1032000020F47F60264908600846006840F44C704E
:10321000086023480C30006840F0060020490C315B
:103220000860204800686FF30B001E4908600846DC
:10323000006840F6380108431A4908601948083008
:10324000006840F4E0601749083108601649881E9C
:1032500000F0D8F84FF6FF70FEF73CFD1249123926
:10326000886900F0E9FF0446104A114B00F0D2FDD6
:1032700011D20D491239886900F0DEFF04460B4A6D
:103280000C4B00F08DFC06D2FFF722FC08B90020A1
:1032900070BD0120FCE70020FAE7000000100240AA
:1032A000000C0140041C0140320000208DEDB5A04F
:1032B000F7C6B0BEF7C6B03E70B504460D4662888C
:1032C00021880CA0FCF7B8FFE288A1880EA0FCF7CB
:1032D000B3FF6289218911A0FCF7AEFFE289A189C1
:1032E00013A0FCF7A9FF294616A0FCF7A5FF0020B4
:1032F00070BD00007831203D2025642C20793120DC
:103300003D2025640D0A00007832203D2025642CE4
:10331000207932203D2025640D0A00007833203DBD
:103320002025642C207933203D2025640D0A0000DF
:103330007834203D2025642C207934203D202564DC
:103340000D0A0000666163203D2025640D0A00001F
:1033500070B50646002500242848006820F00200C9
:10336000264908602648006820F400702449086057
:103370002248006820F0040020490860304600F030
:1033800075F90620FEF78EFB1C48006820F002004D
:103390001A4908600120FEF785FB1848006840F0D4
:1033A0000200164908600846006820F00200086024
:1033B00000BF18E04FF6FF7000EA44040F480068B1
:1033C00020F002000D4908600846006840F0020045
:1033D00008600B48001F0068C0F3002008B1601CA3
:1033E00084B2681CC5B2102DE4DB241103480068C8
:1033F00040F0040001490860204670BD0C0C0140FB
:103400000C1C01402DE9F04104460D46084991F895
:10341000250000F06FF80646054991F8260000F0F7
:1034200069F8074626802F800020BDE8F081000063
:10343000200000207FB504460D4602A903A8FFF72F
:10344000E1FF064616B1012004B070BD694601A82F
:10345000FFF7D8FF06460EB10220F5E7BDF80400DD
:10346000BDF80C10884206DCBDF80C10BDF8040055
:10347000323081420CDBBDF80C00BDF804108842EC
:1034800036DCBDF80410BDF80C00323081422FDA72
:10349000BDF80000BDF80810884206DCBDF8081031
:1034A000BDF80000323081420CDBBDF80800BDF8E9
:1034B000001088421CDCBDF80010BDF80800323056
:1034C000814215DABDF80C10BDF80420881800EB15
:1034D000D071C1F34F012180BDF80810BDF8002064
:1034E000881800EBD071C1F34F0129800020ABE7B1
:1034F0000320A9E72DE9FE4380460027002406E0CB
:103500004046FFF725FF2DF81400601C84B2052CFF
:10351000F6DB002416E0601C85B20FE03DF81400D5
:103520003DF81510884207DD3DF814603DF81500A0
:103530002DF814002DF81560681C85B2052DEDDB03
:10354000601C84B2042CE6DB0027012405E03DF872
:103550001400384487B2601C84B2042CF7DB0320CB
:1035600097FBF0F086B23046BDE8FE832DE9F041CE
:1035700004463C480068C0F38020002853D124B1A1
:103580003949881EFFF756FF3CE03749881EFFF790
:1035900051FFB8B334491239B1F9200000F0D8FF17
:1035A000074631491239088A00F0EAFF80462E4862
:1035B00012388169404600F0F7FF0646394600F0B0
:1035C00067FE054600F0A4FF274912390882B1F9C9
:1035D000220000F0BDFF074623491239488A00F057
:1035E000CFFF804620481238C169404600F0DCFF1A
:1035F0000646394600F04CFE054600F089FF1A49A0
:103600001239488218481238007D00F0800010BB43
:10361000C0201549123908750846008A8881084675
:10362000408AC88117E010481238007D00F0800001
:1036300040B10D481238007D00F07F000A49123970
:10364000087508E00020084912398881C8814FF6C2
:10365000FF700882488204481238007D00F0800024
:10366000BDE8F081081C014032000020002100BFAD
:103670001EE000F0800232B10F4A126842F400727C
:103680000D4B1A6005E00C4A126822F400720A4BD6
:103690001A604206100E094A126822F00202074B15
:1036A0001A601A46126842F002021A604A1CD1B22D
:1036B0000829DEDB704700000C1C01400C0C0140A7
:1036C00000BF0548008800F020000028F9D002481B
:1036D000001D0088C0B270470038014010B50029B5
:1036E0000AD00878002807D005487844FDF7C2FAC8
:1036F000002801D0002010BD0248784410BD000011
:103700006AB9000062B9000010B591EA030F48BF22
:1037100083F0004300F1AE84841A71EB030C05D2F0
:10372000121943EB0C03001B61EB0C01DFF824E1E1
:103730004FEA1154A4EB135C1EEA430F18BF9EEA34
:10374000445F73D023EA0E03DCF1200E21EA04511A
:1037500043F4801332D322FA0CFE10EB0E0023FA4E
:103760000CFE41EB0E01CCF1200E03FA0EFE10EB25
:103770000E0051F10001B1F5801FCCF1200E32D2C4
:1037800001EB045112FA0EF2BDE8104058BF704729
:10379000401C38BF5FEA420218BF7047002814BFC0
:1037A00020F0010041F100014FEA410313F5001F31
:1037B00038BF7047A1F1C04100F026BB012A43EB9E
:1037C0000302ACF1200CDCF11F0E32BF4FF0000EF3
:1037D00023FA0CF310EB030041EB0451B4EB115F3F
:1037E000D0D0A1EB045101F5801149085FEA300007
:1037F00001EB04510ED350F1000038BF12FA0EFE57
:1038000008D1BDE81040C9E7401C38BF5FEA42025A
:10381000CAD1C3E7BDE810404FEA410313F5001FCA
:1038200038BF7047A1F1C04100F0EEBA9EEA445F94
:1038300008D011EA5E0FBDE8104004BF01F000415E
:1038400000207047BDE8104070B500F08FFA00BF4F
:1038500064FBBE3E0000E0FF491058BFC1F140418B
:103860005B1058BFC3F140438B42EFF300807047B9
:103870002DE9C04130B4DFF8A0C23CEA111418BFF2
:103880003CEA131400F0EC8081EA03051CEA1114F1
:1038900044EAD57418BF1CEA131500F0C780A4EBE6
:1038A00005044FF0004545EAC12145EAC32341EA3A
:1038B000505143EA525304F17F74994204F50034A5
:1038C0004FEAC0204FEAC22208BF904200F09C801D
:1038D0004FEA13650FF24016765D4FEA134506FB7B
:1038E00005F7C7F1807706FB07F74FEAD737A7FB45
:1038F00003687642C8F58038A7FB06CE38BFA8F12A
:10390000010807FB08E64FF0000EA6FB028CE6FB61
:1039100003CEDCF1000CCEF1004E38BFAEF1010E4B
:10392000A6FB0C584FF000074FF00005E6FB0E8792
:10393000A1FB08C6A0FB07CE16EB0E0645F100055D
:10394000E1FB076515F1E04E7EBFA4F580345FEA28
:1039500046066D4116F1800745F100054FEA17272D
:103960004FEA066647EA0567A6F1DE46B6F1805FD4
:103970004FEA15251FD9384624F0010C05EBC47118
:10398000BCF1FE6F01EB0C1102D8F0BCBDE8008168
:1039900024425CBF01F5801E9EEAC47F02D4F0BCC5
:1039A000BDE80081244238D4F0BCA1F1C041BDE89B
:1039B000004100F029BA4FEAD22242EA43524FEACC
:1039C000D323A7FB02864FEAD02040EA415007FBF1
:1039D00003661EEA0E0F4FEAD12105FB026658BFAF
:1039E000A6EB0056B6EB00564FEA520E4EEAC37EE7
:1039F00018EB0E0E56EB530EBDD518EB02085E41C8
:103A00007F1C55F10005B6E74FF480154FF0000715
:103A10004FF000064FF00008ADE7F0BC4FF000009B
:103A200001F1C04101F00041BDE8008111EA0C1F25
:103A30000CEA131500D00CE013EA0C1F00F02580EF
:103A40004FF00000F0BC81EA030101F00041BDE845
:103A50000081F0BCBDE8004181EA030100F0D4B967
:103A6000F0BCBDE8004170B500F080F9097EFC3E75
:103A700000F007B881EA03014FF0000001F00041B7
:103A8000704781EA030100F0BFB9F0BCBDE8004116
:103A90004FF0000021497047FFFDFBF9F7F5F4F204
:103AA000F0EEEDEBE9E8E6E4E3E1E0DEDDDBDAD8D9
:103AB000D7D5D4D3D1D0CFCDCCCBCAC8C7C6C5C437
:103AC000C2C1C0BFBEBDBCBBBAB9B8B7B6B5B4B34E
:103AD000B2B1B0AFAEADACABAAA9A8A8A7A6A5A439
:103AE000A3A3A2A1A09F9F9E9D9C9C9B9A999998FD
:103AF0009797969595949393929191908F8F8E8EA0
:103B00008D8C8C8B8B8A898988888787868585842C
:103B100084838382828181800000FF070000F87F18
:103B20004FEA1153A3F58063D3F11E03A8BFD3F16D
:103B3000200C08DB4FF0004242EAC12252EA505208
:103B400032FA03F0704709420BD4102BC4BF002097
:103B5000704703F5787CBCF1FF3F05D04FF0FF3094
:103B600070474FF00000704770B500F0FFF800BFDD
:103B70004992248000207047F0E7B0FA80F310FAF1
:103B800003F10AD0C3F11D0303F580634FEA4150EE
:103B90004FEA035202EBD12170474FF0000070470B
:103BA00051EA030C17D41CF5801F58BFBCF5801FC9
:103BB00000F10680994218BF704708BF90427047D5
:103BC00007D711F5801F58BF13F5801F19D49942EC
:103BD0007047894270471CF5801F08D5BCF5801FCF
:103BE000F7D58B4218BF704708BF824270474FF429
:103BF000001C1CEB410F38BF1CEB430F01D28B4262
:103C0000704770B500F0B2F8922449004FF00051AF
:103C10004FF08053FFF720BEDFF848C170B51CEAB3
:103C2000111E1EBF1CEA13159EEA0C0F95EA0C0F1D
:103C300000F06F8081EA030423EA4C134EEAD47E3D
:103C400021EA4C1141F4801143F48013AE44A1FBEE
:103C5000024CA0FB0365AEF17F7E361955EB0C05D7
:103C6000A1FB034C4CF10003A0FB021C16EB0C065D
:103C7000654153F10003094218BF46F0010613F4F1
:103C8000007F0BD14FEA03314FEA0530340341EA9C
:103C9000155140EA16506FF003020AE04FEAC321C3
:103CA0004FEAC520F40241EA555140EA56506FF000
:103CB000020202EB2E4201EB025585EACE710AD0D8
:103CC0005FEA440C18BF24F0004450F1000041F1B9
:103CD000000120EAD47040F2FE7C624500D270BD43
:103CE000A84214BF4FF080444FF04044002E08BF5C
:103CF0000024BEF1806FA8BFA1F1C041BDE87040B3
:103D000080F282804FF0000001F1C04101F00041DB
:103D100070479EEA0C0F0CEA131518BF95EA0C0FBA
:103D200006D04FF0000081EA030E0EF0004170BD96
:103D300000F01CF88900013E00F007B800F009B857
:103D40004FEA430C5FEA5C5C08D081EA030100F0B3
:103D50005BB84FEA410C5FEA5C5CF6D14FF00000C3
:103D6000014970470000FF070000F87F0EF1020EC6
:103D70002EF0030E5EF8046B364205D4012A43EBA5
:103D8000030515F5001F12D8012841EB010C1CF5A5
:103D9000001F0CD80ED14FEAD17C15F5001F0CEB9B
:103DA0004C0C0CF1020C08BF4CEBD37C04E04FF040
:103DB000080C01E04FEAD37C0CEB4C0526FA05F623
:103DC00006F00706B6F1040C06D20EEB860CBDE831
:103DD00070404CF0010C6047DFE80CF0090B020268
:103DE0004FF000414FF00000A1F5002170BD1946D1
:103DF0001046012851EB010418BFD4F5001484BF0C
:103E0000002001F0004170BD0808A0F500114FEA44
:103E10003101704753EA010C17D41CF5801F58BFBD
:103E2000BCF5801F00F106808B4218BF704708BFA9
:103E30008242704707D713F5801F58BF11F5801FC6
:103E400019D48B4270479B4270471CF5801F08D5E0
:103E5000BCF5801FF7D5994218BF704708BF904244
:103E600070474FF4001C1CEB430F38BF1CEB410F95
:103E700001D2994270470FB40CBC03BCFFF7C1BE1E
:103E800091EA030F10B581F000413FF545AC83F096
:103E9000004300F0EFB800002DE9F04101F5801C6F
:103EA000BCF5001FC0F2C3804FEA115C21EA0C513F
:103EB0000CF1FD0C41F480115FEA5C0C0CF5C07C48
:103EC00001D3400049413DA4890241EA9051870253
:103ED0008E0E0A0CA45D04FB04F602FB06F6C6F186
:103EE0004046A4FB0662F60D46EA422606FB06F4AF
:103EF000A4FB01235242C3F1404338BF5B1EA6FB23
:103F000002420024E6FB0324D20B42EA4446A6FB0D
:103F10000623A1FB02E2A3FB07E4A4184FF0000272
:103F200052F10002E3FB01426442C2F1404E38BF4D
:103F3000AEF1010EA6FB04234FF00002E6FB0E32A9
:103F4000A2FB03464FF00004B61954F10004E2FB53
:103F50000264A1FB06E6A4FB07E816EB08064FF097
:103F6000000858F10008E4FB01687642C8F14058A7
:103F700038BFA8F10108A2FB06E4A3FB08E52D1950
:103F80004FF0000454F10004E2FB0854A1FB05E6E5
:103F9000A7FB04E818EB06084FF0000656F10006F0
:103FA000E1FB048618F1200556F10006A809A8F1E6
:103FB0001B08B10908F03F08B8F10A0F40EA866013
:103FC0001CD901EB0C51BDE8F08100BFFCF5EEE817
:103FD000E2DDD8D3CFCBC7C3C0BDB9B6B4B1AEACA8
:103FE000A9A7A5A3A19F9D9B9A9896959392908F20
:103FF0008D8C8B898887868584838281A0FB00686D
:1040000000FB01F208EB4208B8EB872807D534180B
:1040100058EB0104D5D5401C51F10001D1E7341A09
:1040200078EB0104CDD4401E71F10001C9E75FEACD
:104030004C0C5FEA9C5C0DD105D34FF0000001F001
:104040000041BDE8F081BDE8F04170B5FFF78EFE9C
:104050006DDBFFBEBDE8F0414FF000000049704746
:104060000000F87F10B591EA030F48BF83F00043CA
:104070003FF552AB841A71EB030C07D212198CF086
:10408000004C43EB0C03001B61EB0C01DFF8A4E1D7
:104090004FEA1154A4EB135C1EEA430F18BF9EEACB
:1040A000445F00F0B08023EA6E03524221EA0451DB
:1040B000C3EB6E0338BF5B1EDCF1200E25D322FA62
:1040C0000CFE10EB0E0043FA0CFE41EB0E01CCF19E
:1040D000200E03FA0EFE10EB0E0051F10001CCF1A0
:1040E000200E29D412FA0EF201EB0451BDE8104063
:1040F00058BF7047401C1CBFB2F1004F70470028EA
:104100000CBF491C20F00100704712EB020E43EB7C
:10411000030218BF4FF0010E4EEA4202ACF1200C30
:10412000DCF11E0E54D943FA0CFE10EB0E0051F1D7
:10413000FF31CCF11E0ED5D50EF1010E12FA0EFE96
:10414000404141EB010101EB445C5FEA5C5C10D94A
:1041500010EBDE7001EB045138BFBEF1004FBDE83B
:10416000104018BF704700280CBF491C20F0010008
:10417000704730D24FEAD42C11F5001124F40064BA
:104180001BD0B1FA81F20B3AA41AA41ED2F120037B
:10419000914030FA03F31943904001EBCC71002CAD
:1041A00001EB0451BDE81040A8BF704701F1C041C8
:1041B0004FF0000001F000417047B0FA80F310FAB0
:1041C00003F100D110BDE41A173C4805C90AE4E721
:1041D00001EB045110BD491001EB0451BDE8104042
:1041E0004FEA300002E04FF0000170474A0008BF7C
:1041F0000042F8D0B2F5001F28BF704701F000411F
:104200004FF0000070479EEA445F07D011EA5E0F4E
:10421000BDE8104004BF002100207047BDE81040F9
:1042200070B5FFF7A3FD00BF40DFF63E83F000410D
:10423000104670470000E0FF43004FEAD30C4FEAFE
:104240003C0C43401FBF40070CF1605113F0FE4F80
:1042500070471CF0006F03D100200CF00041704744
:104260000CF0004343EA507010B540EACC0000F077
:104270001CFA00BF000000924FEA0001FFF7C4BD26
:104280004FF000414FF00000A1F500217047000001
:1042900090EA010F48BF81F0004100F16282421AAA
:1042A0003CBF801A89184FEAD0524FF07F4C1CEA6D
:1042B000410FA2EBD15318BF9CEA026F00F03B8084
:1042C0004FF0004C4CEA00204CEA012121FA03FC9B
:1042D00010EB0C0C1ED202F1FF325FEA1C2040EB07
:1042E000C25038BF70471CF07F0F4FEA400C18BF18
:1042F000BCF17F4F38BF7047C3F12003994008BF1E
:1043000020F00100BCF17F4F38BF7047A0F1C040E2
:1043100000F011BA4FEA3C00000A40EBC25028BF3F
:104320001CF0FF0F4FEA400CE6D018BFBCF17F4FE6
:1043300038BF7047EAE79CEA026F05D010EA5C0FCD
:1043400008BF00F00040704710B500F0AEF900BFA4
:1043500064FBBE3E4FF47F0C1CEAD0121EBF1CEA69
:10436000D11392EA0C0F93EA0C0F00F0858090EACB
:10437000010F48BF42F4807240F4000C41F4000089
:104380002CF07F4120F07F4000B58142A2EB030278
:104390000FF2081CACEB504EC0F100009EF800E09C
:1043A0004FEA4E0E00FB0EFC38BF49004FEA2C1CB2
:1043B00002F5FA020CFB0EF34FEACE1E4FEA112C67
:1043C0004FEAC1210EEB635E42EB22420EFB0CFC76
:1043D0004FEA1C5300FB03114FEA112C4FEA013145
:1043E0000EFB0CFC4FEADC4C00FB0C11C14228BF59
:1043F00009184CEB03335DF804EB10EB410143EB80
:10440000C250B2F57C0F38BF704729D512F0F00FBB
:104410001CBF00F1C04000F0004070470081828363
:104420008485868788898B8C8D8E8F9192939596C3
:1044300097999A9C9D9FA0A2A3A5A7A8AAACAEB04D
:10444000B2B3B5B7B9BCBEC0C2C5C7C9CCCED1D452
:10445000D7D9DCDFE2E6E9ECF0F3F7FAFE00000082
:104460004FEA400C0CF1807CBCF17E4F28BF7047B6
:10447000B0F1C04000F05FB990EA010F0CEAD1132F
:1044800048BF42F48072624538BF634507D213F4D7
:104490007F0F16D080EA010000F00040704710B591
:1044A00000F003F9097EFC3E00F005B880EA010047
:1044B00000F00040704780EA010000F0004000F08A
:1044C0003AB912F47F0F04BF0248704780EA010036
:1044D00000F031B90000C07F41000B0ED3F19E0205
:1044E00008D950F400034FEA032323FA02F048BF2F
:1044F0004042704710B500F0D8F800BF49922480C0
:10450000002070476FF0004282EA200070470000F0
:10451000C10DD1F19E0206DB4FEA002343F00043B8
:1045200023FA02F07047004207D54FEA4001B1F18B
:10453000FE4F02D24FF00000704710B500F0B5F802
:1045400049922480002070476FEA200070470000E5
:1045500010F0004148BF4042B0FA80F310FA03F275
:10456000C3F19D030BD051EAC35101EB1220530656
:1045700038BF704700F1010008BF20F0010070470C
:10458000B0FA80F310FA03F2C3F19D030AD0D90503
:1045900001EB1220530638BF704700F1010008BF3D
:1045A00020F00100704700004FF47F0C1CEAD0128D
:1045B0001EBF1CEAD11392EA0C0F93EA0C0F00F015
:1045C000478090EA010F48BF42F480724FF0004CE0
:1045D0004CEA00204CEA012102EB0302A0FB01138C
:1045E000A2F50002002918BF43F001035B0028BFB9
:1045F0004FEA330342EB22425FEA132C4CEBC250EA
:104600002EBFBCEB436FB2F57C0F70474FEA036CD3
:10461000BCF1004F08BF20F00100B2F57C0F38BF9D
:1046200070470BD582F0FF0212F5803FC8BF70477C
:1046300000F1C040D8BF00F00040704700F5000C0A
:104640005FEA4C0C48BF7047B0F1C04000F073B84F
:1046500090EA010F0CEAD11348BF42F48072624520
:1046600038BF634504D280EA010000F00040704783
:1046700010B500F01AF800BF8900013E00F007B83D
:1046800000F009B85FEA410C5FEA1C6C08D080EAD0
:10469000010000F050B85FEA400C5FEA1C6CF6D1F4
:1046A0004FF00040A0F5800070470EF1020E2EF092
:1046B000030E5EF8044B244204D44FEA4102B2F1E7
:1046C0007F4F11D84FEA4003B3F17F4F0CD80ED182
:1046D0004FEAD07CB2F17F4F0CEB4C0C0CF1020C8A
:1046E00008BF4CEBD17C04E04FF0080C01E04FEA2E
:1046F000D17C0CEB4C0324FA03F404F00704B4F16E
:10470000040C06D20EEB840CBDE810404CF0010CFA
:104710006047DFE80CF0070802024FF00040A0F508
:10472000800010BD0846420018BFD2F1807288BFD9
:1047300000F0004010BDFF2141EAD050C005704795
:1047400080F0004090EA010F7FF5A9AD81F00041B3
:1047500000F007B890EA010F48BF81F000413FF533
:104760009EAD421A04D882F00042A0EB0200114430
:104770004FEAD0524FF07F4C1CEA410FA2EBD153CD
:1047800018BF9CEA026F4AD04FF0004C4CEA002060
:104790004CEA012121FA03FCB0EB0C0C0FD412F00F
:1047A000FE0F36D05FEA4C001DD5001240EBC25020
:1047B00038BF70471CF03F0F18BF70470BE0A2F1E5
:1047C00001025FEA1C2040EBC25038BF70471CF06A
:1047D0007F0F18BF7047C3F12003994014BF401EDC
:1047E00020F00100704780084FEA122308BF70478D
:1047F000B0FA80FCA2EB0C02CCF1280C60FA0CF0B1
:1048000093EA122F04BF00EBC25070474FEAC37007
:104810007047130A5FEADC1008BF7047F6E79CEAAE
:10482000026F04D010EA5C0F08BF0020704710B57B
:10483000FFF73BFF40DFF63E81F000407047FBF79B
:1048400073BF1DAFFCA61DAFFDAE1DAF1DAF1DAFED
:10485000FDAEFDAE3BB7FDA63EA7FDAE9DC6A93998
:104860008B31FBBEFFAE3CA71DAF1CAFFDAE3EAF14
:10487000FDAE3EAF3EAF3DB7FCAE1DAF5EB7BC9EDA
:104880005EAF1EAF5BAF1CAF5EAFDDBE7BD6C54972
:10489000A541B9C6FFC6DDB6DEBEFDB61DAF1DAF74
:1048A0001DAF1EAFDCA63DAFFCA61DAFFDAE1EAF1B
:1048B000FDAEFEA6FAA61CB7DCB6A931664911E624
:1048C0000FE6E4416A31CA39AB31BDC6DCAE5DAF3B
:1048D000DDAEFDAE3EAF1CA73DAF5DAFDDAEFEBEB3
:1048E000BDBE3FC77AAE1ECF9CC68941A5610DF6FD
:1048F0000AEE4249895165496641BCD6DDB61CAF16
:104900005EBF1EBFFDAE5DAF3CA7FCA6DDBE892924
:104910008A418729EA418B39AA39694902590BF63C
:104920004BF685692661F0ED32EEA5410A2A1CB7E7
:10493000DBAEDDB6FDAE1DAF3EAFFDB6BDCEA941CF
:1049400048496741A9496A414939CB596361EAED50
:104950002BF6446924612CF60DF68349A9291CBF66
:10496000FCAE1DB71DB7FDB6FEBECA21A931BFFF03
:104970009FFFDFFF7FFFBFFFDFFF294144590BF699
:104980000AF6226964690AEE2BF64251AA41BBBEBF
:104990001DB71CAFFCAEDDBEBEC6AA31EA39BFFFF3
:1049A000DEFF9FFFDFFFDEF7DEF7AA4944590AF674
:1049B00009F6416922590AEE2DFE22598941FCC6A9
:1049C000FEB61DB7FDB6CC21EC29BEEFDEFFC9490E
:1049D000A9496849C749BFFFFFFF284942594CEE22
:1049E0002CFE8261A5692DE649DEC3598A419CBE31
:1049F000DEBEDCC6DDCECA29A929FFFFBEFFC84145
:104A000067398839A639FFFFBEF7895162592BE60D
:104A10002CEE4359E3602DF66BEE04592B41FCC696
:104A2000FCB687418839FFFFFFF7BFFFDFFFBEFFFE
:104A3000FFFFDFFFDFFFBCEFDDFF685183614BEE5F
:104A40000CEEA369E46030FEEBED26698B51FABEF3
:104A50001CB72649C9497DF7FEFFDFFFBFFFFEFFF8
:104A6000DEF7BFFF7EFFFEFFFDFFE75044690CF657
:104A70002DFE22596571CEED6DFE25614949FBBEC3
:104A8000FCA688514841FFFFBDF7DFFFBFFFDEFFF7
:104A9000DFF7BEFFFFFF5BDF1BE7AA69C3600EFE07
:104AA000ADF5656141596CEE4BE604592A411CC7CE
:104AB0003CB76941EA517FFFDFFFBFFFBFFFFFFF48
:104AC000FFFFFEFFFEFFFBDEFBF60569E378D0FD8E
:104AD000CFF58259C1694DEECDE5637148615ACE7B
:104AE000DCC66941074168518849BEFFFEFF3CE7CB
:104AF000FAE67BE719EFA751036967D206CA408936
:104B000020710FE630FE20614281A3A9C499A75904
:104B100088318A49685929610751DDFFDCF73BE795
:104B20003AEF1BE719FF46716188E3F963E1A19849
:104B300022814DEE8DED4389439043C9C4B9456947
:104B4000864926414461EAE32DF4E250A8494A41EE
:104B5000CA496859277126CAC1E181E961F982F120
:104B600004D2C280E380A4C181D042E162B9C468AA
:104B7000884947610469C9EB68F36088E4888578EF
:104B8000E670A470C390C3E160E9C1F120F161F95E
:104B9000C3E140A0A29042C1C1D842D983B9A47058
:104BA000484947690479C7EB85FB63F185F9A6E9B4
:104BB00086D9C4D1A2E142F922F9A3F921E982F907
:104BC00060F1A1E003D122D102E9E1E064C9857876
:104BD0002959E658047926ECA3FB00F9A0F842F124
:104BE00061F1A2F9A0F9E0F802F941F1A3F123E99A
:104BF00062E9C1E8E2D8E0D0C1E0A0D823C9A5802D
:104C0000485928494571E6DBC4FBA1F161F982F9F5
:104C100060F901F100F141F9A1F960F1E2E1639875
:104C2000859843C923C901D101D9C1D842C9E478C3
:104C30006651AA4186612BD4E8F3E1D901F261E91A
:104C400081F963F901F1E3F920E1E2E966CAA360C1
:104C50000861A5A924C122D9E1E0C1E043C9E578F2
:104C600067597BBE9BD64451217906FC22FBA3F9F0
:104C7000E0F020F921F941E9A4E142A0C3607BFF03
:104C8000FBEE44716398C2C8C2D0A2D045B9C668D1
:104C900049591CB7FBB6EA41246144E4A0FB41F941
:104CA00022F9C0F822F961F183D9C69805497ADF63
:104CB00039E78551C58064B9A4C964B907AA075109
:104CC0004A41DEBE1CBF4B39066904E4A0F3A2E9E9
:104CD000C2F861F941F902F185E1A5886859FEFF42
:104CE000FFEFDEFF7DFF2669C670E7680849BEDE7C
:104CF000DDC6DDAE1EBF8921A7516BDCC6F302F213
:104D000020F921F100F922F9C5E184800851FFFF63
:104D1000DFFFFFF7BDF7075246496749A9417BBE50
:104D20001DB7FEC67DB63DC7BACE2449017986EBD4
:104D300085FB83F9A2F941F9C3D9C57869519EFF72
:104D4000DFFFFFFFFFFFFADE1CEF8741A941BDCE69
:104D5000FDBEFFC6FFBEBBAEDBBEEA39E7610BD4CA
:104D6000E9EB41E181F920F1E3E1E478AA597DF72B
:104D7000FFFFBFFFBEF77CEFFBEE674969419DCEA9
:104D8000FEC61EAF1D9F3DAF1EBF9BB6BBD646598C
:104D9000E388E3E940E9A2F9E3E1C3782749FEFFAC
:104DA000DEF7FFFFFFFFFEF7FFFF6741C9419DC62A
:104DB000FDAEDDA65CA7FDA6BDB63CBF1CB7893124
:104DC000286947D2E5D984D147DAA370C961DDFFEC
:104DD000FFFFDFEFBEEFFFFFBEFFA8498831FEBE39
:104DE0001DA75EBF5CB7FDB6FEBEFAAE5CAFFEBEF1
:104DF0009CD60661E56827790469886167413AE7CE
:104E00003CDFFFFFDFFFBEFFDFFF4731C931DEBE02
:104E10001EAF1CA7FAA63DB7FCAE5CB7FBAEFDB655
:104E2000DCB6AB39AB39AB39C9396829A8315BDF9E
:104E30009DE7DFFFBFFFBFFFDFFFC8292A2ADDAEE6
:104E4000FEAE1EAF1DAF1DAFFDAEFDAEFDAE1CAF85
:104E50003CAFDEBEDDC6BCBEFDBEFDBEDDC6A941AB
:104E60006849274168514949AB41BCCEDCB63FB7E0
:104E70001EAF1EAF1DAF1DAF1DAFFDAEFDB61CAF0B
:104E80001BAFFEB6FEB6DDB6FDB6FDB6BDC68941AA
:104E900048514849685149498A41BCC6FCB61EAFD1
:104EA000FEA61DAFFCA61DAFFDAE1DAF1DAF1DAF15
:104EB000FDAEFDAE3BB7FDA63EA7FDAE9DC6A93932
:104EC0008B31FBBEFFAE3CA71DAF1CAFFDAE3EAFAE
:104ED000FDAE3EAF3EAF3DB7FCAE1DAF5EB7BC9E74
:104EE0005EAF1EAF5BAF1CAF5EAFDDBE7BD6C5490C
:104EF000A541B9C6FFC6DDB6DEBEFDB61DAF1DAF0E
:104F00001DAF1EAFDCA63DAFFCA61DAFFDAE1EAFB4
:104F1000FDAEFEA6FAA61CB7DCB6A931664911E6BD
:104F20000FE6E4416A31CA39AB31BDC6DCAE5DAFD4
:104F3000DDAEFDAE3EAF1CA73DAF5DAFDDAEFEBE4C
:104F4000BDBE3FC77AAE1ECF9CC68941A5610DF696
:104F50000AEE4249895165496641BCD6DDB61CAFAF
:104F60005EBF1EBFFDAE5DAF3CA7FCA6DDBE8929BE
:104F70008A418729EA418B39AA39694902590BF6D6
:104F80004BF685692661F0ED32EEA5410A2A1CB781
:104F9000DBAEDDB6FDAE1DAF3EAFFDB6BDCEA94169
:104FA00048496741A9496A414939CB596361EAEDEA
:104FB0002BF6446924612CF60DF68349A9291CBF00
:104FC000FCAE1DB71DB7FDB6FEBECA21A931BFFF9D
:104FD0009FFFDFFF7FFFBFFFDFFF294144590BF633
:104FE0000AF6226964690AEE2BF64251AA41BBBE59
:104FF0001DB71CAFFCAEDDBEBEC6AA31EA39BFFF8D
:10500000DEFF9FFFDFFFDEF7DEF7AA4944590AF60D
:1050100009F6416922590AEE2DFE22598941FCC642
:10502000FEB61DB7FDB6CC21EC29BEEFDEFFC949A7
:10503000A9496849C749BFFFFFFF284942594CEEBB
:105040002CFE8261A5692DE649DEC3598A419CBECA
:10505000DEBEDCC6DDCECA29A929FFFFBEFFC841DE
:1050600067398839A639FFFFBEF7895162592BE6A7
:105070002CEE4359E3602DF66BEE04592B41FCC630
:10508000FCB687418839FFFFFFF7BFFFDFFFBEFF98
:10509000FFFFDFFFDFFFBCEFDDFF685183614BEEF9
:1050A0000CEEA369E46030FEEBED26698B51FABE8D
:1050B0001CB72649C9497DF7FEFFDFFFBFFFFEFF92
:1050C000DEF7BFFF7EFFFEFFFDFFE75044690CF6F1
:1050D0002DFE22596571CEED6DFE25614949FBBE5D
:1050E000FCA688514841FFFFBDF7DFFFBFFFDEFF91
:1050F000DFF7BEFFFFFF5BDF1BE7AA69C3600EFEA1
:10510000ADF5656141596CEE4BE604592A411CC767
:105110003CB76941EA517FFFDFFFBFFFBFFFFFFFE1
:10512000FFFFFEFFFEFFFBDEFBF60569E378D0FD27
:10513000CFF58259C1694DEECDE5637148615ACE14
:10514000DCC66941074168518849BEFFFEFF3CE764
:10515000FAE67BE719EFA751036967D206CA4089CF
:1051600020710FE630FE20614281A3A9C499A7599E
:1051700088318A49685929610751DDFFDCF73BE72F
:105180003AEF1BE719FF46716188E3F963E1A198E3
:1051900022814DEE8DED4389439043C9C4B94569E1
:1051A0008649274925610BE40CECE35888512A41D4
:1051B000CC498849457924D201EA62E943F182E980
:1051C00004E2E280A280C4C1C1C022D981B9C36017
:1051D00068496859E46007EC86F381880589847022
:1051E000E478C5806390E6E161E9A3F920E9C1F1C3
:1051F000A1E1609881A063C9A1D043E942C1E578EB
:1052000029518759E47006ECA3FBE3E9C4E9A4E162
:1052100065E1C3E962E181F160F140F1A1F161F181
:1052200042F1E2D0E2D041D981D0E2E8C1C0E680CB
:105230002A510751E57027ECC2FB41F1E0F021F162
:1052400003F940F920F140F981F9A1E903E2C3E152
:1052500043E9C1D8C1D800D9C1D002E102C1068159
:1052600049490A51267104DCC2FB83F143F942F932
:1052700021F923F941F983F923D9C198A270E58076
:10528000649803D1C2D820E101D901D963C9E57876
:1052900067498A51676129D4E6F3A1D9E2F921F17E
:1052A00062F901F182F942E189DAC360A851484903
:1052B000275966B9C3C822E1E1E0C1D063C9C47807
:1052C00068517BC67CDE04590189E6FB41FBA2F9EB
:1052D00001F162F9A3E96198C468BDFFBDFF3BEF2E
:1052E00059EF0569629002D1E2D802D164C1E57834
:1052F00048413EAFBEB68A51E57006E4C2FB81F17B
:1053000062F9A0F104E283786951BFFFDFFF1CEF6F
:1053100039E7A749C47843C9E2C843C964B12771D2
:105320006A41FEBEFDBE89392471E7F3C3FBE0E9A3
:1053300041F941F1A4E1C7786941DFFFDFF7FFFFE1
:10534000DFFF4951877885C921C96390A87157C685
:105350001DBFDDAEFFB6A821A4514AD4C5EB41E282
:1053600082F1A2F1A4E1C7784841FFFFFFFFBEF739
:105370009EFF69410879C2B863D1858048413CC726
:10538000FCAE7DB7BDA61EBFBACE64494079A5FB71
:1053900045FB81E983D9A6800741BEFFFFFFDEF709
:1053A000FFFF8741478903C144C9A67069311CB713
:1053B0003DB71BA75EB7DDAE1EBFEA31C559EADBBC
:1053C00087FB81F1C4E9C6884751DFFFDFFFDDF7C6
:1053D000DEFF8641C56824A9A6A92759C9293DBF72
:1053E000BBAE1FB71DAFDCAEFDBEBBB6DBC6666194
:1053F000829062F184E144782649FEFFFFFFFEFFC0
:10540000FFFFA84189596961A9599CCEFDB6FDAE3F
:105410001FB79EA63DAF1DB7DEB63EB7FDAE8939BC
:10542000467107D207CAE6708849FEFFDEF7FEFF25
:10543000BEFFA84969396931CA29BCB61CB71DB776
:10544000DEAE5EBF1CAFFCAEFFB6DFA65FAFDCBE5C
:1054500079D6466146712959CA49DEFFBEFF5BE72E
:105460003BEF6741C941BDCEFDBE3CBFFBAE1CB7A3
:105470001DB71DAFDDA67DB71CA71FAFFEAE1CAFCD
:105480003CAFEB3148394B418A399EFFFFFF3AE789
:105490003AEFC939C931DDBE1EB7FDA65EAFDC9E4D
:1054A0003DAF3CAF1DAFFDAEFDAEFDB61CAF1BA7C3
:1054B0005CA7FBB61DBFDBB6FCC66A314A49694131
:1054C000AA39BCC6FDBEFDAE1DA75EAFFCAE1DB7C2
:1054D0001CAF1CA71DAFFDAEFEB61DB71CAF1BA7B2
:1054E0005BA7FBAE1DBFDBB6FDC66A314A49694109
:1054F000AA39BDC6FDBEFDAE1DA75EAFFCAE3DB771
:105500001CAF1DAFFCA61DAFFDAE1DAF1DAF1DAF87
:10551000FDAEFDAE3BB7FDA63EA7FDAE9DC6A939CB
:105520008B31FBBEFFAE3CA71DAF1CAFFDAE3EAF47
:10553000FDAE3EAF3EAF3DB7FCAE1DAF5EB7BC9E0D
:105540005EAF1EAF5BAF1CAF5EAFDDBE7BD6C549A5
:10555000A541B9C6FFC6DDB6DEBEFDB61DAF1DAFA7
:105560001DAF1EAFDCA63DAFFCA61DAFFDAE1EAF4E
:10557000FDAEFEA6FAA61CB7DCB6A931664911E657
:105580000FE6E4416A31CA39AB31BDC6DCAE5DAF6E
:10559000DDAEFDAE3EAF1CA73DAF5DAFDDAEFEBEE6
:1055A000BDBE3FC77AAE1ECF9CC68941A5610DF630
:1055B0000AEE4249895165496641BCD6DDB61CAF49
:1055C0005EBF1EBFFDAE5DAF3CA7FCA6DDBE892958
:1055D0008A418729EA418B39AA39694902590BF670
:1055E0004BF685692661F0ED32EEA5410A2A1CB71B
:1055F000DBAEDDB6FDAE1DAF3EAFFDB6BDCEA94103
:1056000048496741A9496A414939CB596361EAED83
:105610002BF6446924612CF60DF68349A9291CBF99
:10562000FCAE1DB71DB7FDB6FEBECA21A931BFFF36
:105630009FFFDFFF7FFFBFFFDFFF294144590BF6CC
:105640000AF6226964690AEE2BF64251AA41BBBEF2
:105650001DB71CAFFCAEDDBEBEC6AA31EA39BFFF26
:10566000DEFF9FFFDFFFDEF7DEF7AA4944590AF6A7
:1056700009F6416922590AEE2DFE22598941FCC6DC
:10568000FEB61DB7FDB6CC21EC29BEEFDEFFC94941
:10569000A9496849C749BFFFFFFF284942594CEE55
:1056A0002CFE8261A5692DE649DEC3598A419CBE64
:1056B000DEBEDCC6DDCECA29A929FFFFBEFFC84178
:1056C00067398839A639FFFFBEF7895162592BE641
:1056D0002CEE4359E3602DF66BEE04592B41FCC6CA
:1056E000FCB687418839FFFFFFF7BFFFDFFFBEFF32
:1056F000FFFFDFFFDFFFBCEFDDFF685183614BEE93
:105700000CEEA369E46030FEEBED26698B51FABE26
:105710001CB72649C9497DF7FEFFDFFFBFFFFEFF2B
:10572000DEF7BFFF7EFFFEFFFDFFE75044690CF68A
:105730002DFE22596571CEED6DFE25614949FBBEF6
:10574000FCA688514841FFFFBDF7DFFFBFFFDEFF2A
:10575000DFF7BEFFFFFF5BDF1BE7AA69C3600EFE3A
:10576000ADF5656141596CEE4BE604592A411CC701
:105770003CB76941EA517FFFDFFFBFFFBFFFFFFF7B
:10578000FFFFFEFFFEFFFBDEFBF60569E378D0FDC1
:10579000CFF58259C1694DEECDE5637148615ACEAE
:1057A000DCC66941074168518849BEFFFEFF3CE7FE
:1057B000FAE67BE719EFA751036967D206CA408969
:1057C00020710FE630FE20614281A3A9C499A75938
:1057D00088318A49685929610751DDFFDCF73BE7C9
:1057E0003AEF1BE719FF46716188E3F963E1A1987D
:1057F00022814DEE8DED4389439043C9C4B945697B
:10580000864927412769ECE32CEC0361A7496939F4
:10581000AB514A51467144C2C3E942F1A0F9A3D940
:1058200024D22279C38084B9C1C041D182B9E4684D
:1058300068518651E370E7EBA6EBA1880481C46848
:10584000C6788580619024EA40E182F900F182F116
:10585000A3E96090419844D102D901E162C1C570C9
:1058600029516859C470E4EBC2FBC3E1E5E1E4D916
:1058700063D965E162F141F182F141F121F960F909
:1058800081F102D903D122D9A1D8E1E043C98578B9
:105890004A590A51C67046ECE3FB62F101F180F10E
:1058A00040F943F182F983F1E3E1E3E943F161F97E
:1058B00062F101E9A1D0E1D0E1D8A0D063C9C680EE
:1058C000285149510669E6D3C4FBA2F162F962F995
:1058D00002F940E9A1E161988280E4900198C3F166
:1058E00061E940D8C2E0E0D0E1D8E1D843C984788A
:1058F0006761A94966592BD4C7FB80D9C1F900E972
:1059000062F123F226CA0571475906512681C6C99C
:10591000C4E902E1E3E0E0D802E9C0D043C1058177
:1059200047619CC6BBD64361E090E5FB42FBA2F118
:10593000A2D9228826717DFFDDFF7BF7DAF6266982
:10594000A48802C903D180D0C1E043D9A4B90671AB
:1059500028513BB7FAB6A759A178E5E3E3FB63E129
:1059600026DA24714749FFFFBFF73DE79CDF863108
:10597000635163B944C9E1D002D963C9A59968618B
:105980004939DEB69EBEC93964612AECA8EBE188CC
:10599000C568DEFFDEFFDEFFFFFFFEF7FFF75CEF0F
:1059A0003CF70679839022D163D14180A8695ACE11
:1059B000FDC61EA73FB709224439AFD4ABCB447113
:1059C0002761BEFFDFFFDEFFDEF7FFFFFEF75BEFC5
:1059D0001BEF2759E590C2C023C9A5788A49BDBEEF
:1059E000FEB63DA71DA7BCAE1DD745416761476107
:1059F00028519EFFBEFFFFFFFFFFDEEFFEFFF9DE37
:105A00007BF76749C47843C943C1067149213EB752
:105A1000FCAEFDA67EB7FCA6BCB6C93189490849D3
:105A20006A59BEFFDFFFBEF7DEF7FFFFDDF79BF72A
:105A300019E7A849C568C7C1A6A927590A32FCAE0B
:105A40003DB73FAFDC9E7CA75CAF1CBF9CCEEB4953
:105A50002841FFFFDFFFFFFFFFFF9DEFFEFF1AE77B
:105A60003AEF89412951076105599CE69CBE1DBF4B
:105A7000DEB6FEAEFDAE1BA73BAFFBB69BBECA3982
:105A80006941DFFFFFFFDFF7DEF7DEFFDEFF5CF7D8
:105A90005DF7E931AA29C9310832DCC6DBB65DBF42
:105AA000DDA6FDB6FDB63DBFBBAE1DBFBCC6893190
:105AB000AA49FFFFDFFFDEF7FFFF3CEFFCE6C83936
:105AC0006729BAB65EC7DBAE3BB71CB71CAF1BA7D6
:105AD0005DAF1CAF5DB71DAF1EAF3EAFBCAECA29F8
